:020000040800F2
:1000000068370120A9060008850400088704000855
:100010008B0400088F04000893040008000000000F
:10002000000000000000000000000000790200084D
:100030009704000800000000D5020008B121000864
:10004000C3060008C3060008C3060008C30600086C
:10005000C3060008C3060008C3060008C30600085C
:10006000C3060008C3060008C3060008C30600084C
:10007000C3060008C3060008C3060008C30600083C
:10008000C3060008C3060008C3060008C30600082C
:10009000C3060008C3060008C3060008C30600081C
:1000A000C3060008C3060008C3060008C30600080C
:1000B000C30600083B5C0008C3060008C30600082E
:1000C000C3060008C3060008C3060008C3060008EC
:1000D000C30600081D5B0008C3060008C30600082D
:1000E000C3060008C3060008C3060008C3060008CC
:1000F000C3060008C3060008C3060008C3060008BC
:10010000C3060008C3060008C3060008C3060008AB
:10011000C3060008C3060008C3060008C30600089B
:10012000C3060008C3060008C3060008C30600088B
:10013000C3060008C3060008C3060008C30600087B
:10014000C3060008C3060008C3060008C30600086B
:10015000C3060008C3060008C3060008C30600085B
:10016000C3060008C3060008C3060008C30600084B
:10017000C3060008C3060008C3060008C30600083B
:10018000C3060008C306000800F002F800F05CF89F
:100190000AA090E8000C82448344AAF10107DA45E2
:1001A00001D100F051F8AFF2090EBAE80F0013F0D8
:1001B000010F18BFFB1A43F0010318477C740000BD
:1001C0009C7400000A444FF0000C10F8013B13F03F
:1001D000070408BF10F8014B1D1108BF10F8015BA0
:1001E000641E05D010F8016B641E01F8016BF9D193
:1001F00013F0080F1EBF10F8014BAD1C0C1B09D1EA
:100200006D1E58BF01F801CBFAD505E014F8016B5B
:1002100001F8016B6D1EF9D59142D6D370470000ED
:100220000023002400250026103A28BF78C1FBD8FF
:10023000520728BF30C148BF0B6070471FB507F099
:10024000A2F81FBD10B510BD07F037F81146FFF733
:10025000F5FF00F0CDF807F055F803B4FFF7F2FF13
:1002600003BC06F0F5FF000030BF72B6704762B6FF
:10027000704780F3088870472C4B19680868B0E80D
:10028000F04F80F30988BFF36F8F4FF0000080F3C9
:10029000118870470000000008480068006880F37B
:1002A00008884FF0000080F3148862B661B6BFF38F
:1002B0004F8FBFF36F8F00DF00BF00BF08ED00E07E
:1002C000DFF80C00016841F470010160704700BF65
:1002D00088ED00E0EFF30980BFF36F8F134B1A68CE
:1002E0001EF0100F08BF20ED108A20E9F04F1060BB
:1002F00009B44FF0500080F31188BFF34F8FBFF364
:100300006F8F03F045FD4FF0000080F3118809BCAA
:1003100019680868B0E8F04F1EF0100F08BFB0EC85
:10032000108A80F30988BFF36F8F70473800002070
:10033000EFF305807047000028E04148808838B915
:100340003F4A5188108802F09EF8012001F077FFA3
:100350003B488088012819D139484188022002F0A1
:1003600092F83749C9884FF47A7201FB02F001F024
:1003700066FF33484188012002F085F83049C9887A
:100380004FF47A7201FB02F001F059FFD5E708B58E
:1003900000204FF4165301220A21009005F05EFC64
:1003A00005F020FD04E005F042FD012003F0B7FB5D
:1003B000F9E71CB5044605F0F2F8224804210023B1
:1003C0008022CDE9001020A1224803F02AF922481A
:1003D000032100233222CDE9001020A1224803F09E
:1003E00020F92248006803F06AF905F0FFF81CBD07
:1003F0001CB54FF4407000F077F9A82001F0E0FE42
:1004000001F04CFF44F6206001F096FF02F002F884
:1004100002200B490880002048808880144800781A
:10042000C8801248012100238022CDE9001011A1CB
:10043000134803F0F6F803F034FE00201CBD000062
:10044000AC010020040000204D6F646275735F747E
:1004500061736B008F030008080000204D6F746FFC
:10046000725F7461736B00003903000800000020A4
:100470000C00002073746172745F7461736B000010
:10048000B3030008704700BFFEE700BFFEE700BFF0
:10049000FEE700BFFEE770470CB50020019000901A
:1004A0007648006840F480307449086000BF7348A3
:1004B000006800F4003000900198401C0190009802
:1004C00018B90198B0F5A04FF1D16C48006800F45C
:1004D000003010B10120009001E000200090009851
:1004E000012846D165484030006840F0805063499B
:1004F000403108606248006840F44040604908604C
:100500005E48083000685D490831086008460068A8
:1005100040F4004008600846006840F4A0500860BD
:100520005848091F0860081F006840F08070091FC4
:10053000086000BF5148006800F000700028F9D042
:1005400040F20570504908604C480830006820F0BF
:1005500003004A49083108600846006840F002007C
:10056000086000BF45480830006800F00C0008280B
:10057000F8D10CBD10B54548006840F470004349FF
:1005800008603E48006840F001003C4908600020D7
:100590003A4908310860394800683D490840374900
:1005A00008603C48091D0860081F006820F480208E
:1005B000091F0860002031490C310860FFF76CFF0B
:1005C0004FF0006031498039086010BD70B50020DF
:1005D0000022022300240221284D08352D6805F051
:1005E0000C0020B1042806D0082834D107E02A4D99
:1005F0002A4E356033E02A4D284E35602FE01F4DDE
:100600002D1D2D68C5F380541C4D2D1D2D6805F042
:100610003F0154B1224DB5FBF1F5184E361D366839
:10062000C6F3881605FB06F209E01B4DB5FBF1F594
:10063000124E361D3668C6F3881605FB06F20F4DBE
:100640002D1D2D68C5F301456D1C6B00B2FBF3F544
:10065000124E356003E0104D104E356000BF00BFF4
:10066000064D08352D68C5F303150E4E705D0B4D14
:100670002D68C540094E356070BD0000003802404D
:100680000070004008544007003C024088ED00E044
:10069000FFFFF6FE103000240024F40010000020BC
:1006A00000127A00140000200948804709480047DA
:1006B000FEE7FEE7FEE7FEE7FEE7FEE7FEE7FEE712
:1006C000FEE7FEE704480549054A064B704700006F
:1006D000750500088901000868310120683701208C
:1006E000683301206833012032490143324A1160E6
:1006F000704770B5002100230F22C4781CB32E4C24
:10070000246804F4E064C4F5E064C4F30721C1F193
:100710000404E3B20A4144789C40E1B28478144076
:1007200021430C07210E254C05786155047804F00F
:100730001F050124AC4005786D11AD0005F1E025E1
:10074000C5F8004109E0047804F01F050124AC401D
:100750001B4D0678761145F8264070BD194A0A40AF
:100760000243154B1B1F1A60704739B1124A121D04
:1007700012680243104B1B1D1A6006E00E4A121D40
:10078000126882430C4B1B1D1A607047042808D165
:100790004FF0E021096941F004014FF0E0221161BE
:1007A00007E04FF0E021096921F004014FF0E02259
:1007B000116170470000FA050CED00E000E400E074
:1007C00080E100E080FFFF1F10B504469848844296
:1007D00008D10121084600F086FB0021012000F02D
:1007E00082FB76E09348844208D10121022000F088
:1007F0007AFB0021022000F076FB6AE08E488442FA
:1008000008D10121042000F06EFB0021042000F03B
:100810006AFB5EE08948844208D10121082000F08B
:1008200062FB0021082000F05EFB52E08448844215
:1008300008D10121102000F056FB0021102000F00B
:1008400052FB46E07F48844208D10121202000F07D
:100850004AFB0021202000F046FB3AE07A4884421F
:1008600008D10121402000F03EFB0021402000F093
:100870003AFB2EE07548844208D10121802000F027
:1008800032FB0021802000F02EFB22E070488442E1
:1008900008D10121801500F026FB0021A01500F0F1
:1008A00022FB16E06B48844208D10121401500F07C
:1008B0001AFB0021601500F016FB0AE0664884422E
:1008C00007D10121001500F00EFB0021201500F0DA
:1008D0000AFB10BDF0B50A4600210023002400BF2A
:1008E0003DE0012505FA01F3156805EA03049C4281
:1008F00034D105684F000326BE40B5430560157925
:100900004E00B5400668354305601579012D02D0CB
:100910001579022D16D185684F000326BE40B543D8
:10092000856055794E00B5408668354385604568D9
:1009300001268E40B5434560456896798E40B6B233
:1009400035434560C5684F000326BE40B543C560CA
:10095000D5794E00B540C6683543C560491C10299D
:10096000BFD3F0BD4FF6FF710160002101714171ED
:100970008171C171704708B54FF480320092009ABE
:100980000A430092009AC261C161009AC261C269C1
:100990000092C269009208BD0246002013690B4014
:1009A0000BB1012000E0002070470146086980B2C9
:1009B00070470246002053690B400BB1012000E054
:1009C000002070470146486980B270470183704734
:1009D000418370470AB1018300E041837047416160
:1009E000704742694A4042617047F0B500230024D5
:1009F0004D07ED0E02FA05F3CE1000F1200555F873
:100A000026504E07F70E0F26BE40B543CF1000F11B
:100A1000200646F82750CE1000F1200555F8265044
:100A200045EA0304CE1000F1200545F82640F0BD4C
:100A3000000002400004024000080240000C024096
:100A4000001002400014024000180240001C024046
:100A5000002002400024024000280240F9480068BB
:100A600040F00100F74908600020F64908310860AD
:100A7000F4480068F4490840F2490860F348091D49
:100A80000860F348EF4984310860F0481038091DC8
:100A90000860EC48006820F48020EA4908600020E3
:100AA000E8490C310860E7498C3108607047002143
:100AB000E44A921C117011460870704710B5014647
:100AC0000022002300204A11012A02D1DD4C2368B4
:100AD00008E0022A03D1DB4C7034236802E0D94CD1
:100AE0007434236801F01F02012494401C400CB1AF
:100AF000012000E0002010BD38B500200090002447
:100B0000002500BF3120FFF7D9FF05460098401CA3
:100B100000900098B0F5A04F01D0002DF2D0312008
:100B2000FFF7CCFF08B1012400E00024204638BDC7
:100B300001460020C34A106820F0F80040EAC100D6
:100B400010607047C349086070470021BD4A703289
:100B500011701170012802D004280AD104E001218B
:100B6000B84A7032117005E00521B64A7032117032
:100B700000E000BF00BF7047B7490860704770B51C
:100B8000049C41EA82150126C6EB530645EA064558
:100B9000054345EA0465AB4E361D356070BDAD4971
:100BA00008667047820142EA0172A64B84331A60DC
:100BB0007047A8498866704710B5830143EA01630E
:100BC00043EA02739F4C8834236010BDA149086733
:100BD0007047A049C864704702460020994B08330B
:100BE000186820F0EC6042EA01031843954B083383
:100BF0001860704702460020924B0833186820F0B6
:100C0000784042EA010318438E4B0833186070475E
:100C1000014600208B4A0832106820F00300084388
:100C20001060704787480830006800F00C0070477B
:100C300001460020834A0832106820F0F000084383
:100C400010607047014600207E4A0832106820F488
:100C5000E05008431060704701460020794A08328E
:100C6000106820F4604040EAC10010607047F0B5A1
:100C7000002100220024022500260223714F08379C
:100C80003F6807F00C0121B1042905D0082937D1AC
:100C900005E0724F076036E0714F076033E0694F3F
:100CA0003F1D3F68C7F38056664F3F1D3F6807F002
:100CB0003F036EB16A4FB7FBF3F7DFF888C10CF161
:100CC000040CDCF800C0CCF3881C07FB0CF40CE02F
:100CD000624FB7FBF3F7DFF86CC10CF1040CDCF8E2
:100CE00000C0CCF3881C07FB0CF4564F3F1D3F6837
:100CF000C7F301477F1C7D00B4FBF5F7076002E0F6
:100D0000564F076000BF00BF4E4F08373F6807F0DF
:100D1000F0010909534F7A5C0768D7404760494F93
:100D200008373F6807F4E051890A4E4F7A5C4768FC
:100D3000D7408760434F08373F6807F46041490B4D
:100D4000484F7A5C4768D740C760F0BD002100F487
:100D50004072B2F5407F0AD13A4A0832116821F454
:100D6000F811414A02401143364A08321160354AAF
:100D700070321268C0F30B031A43324B70331A609F
:100D80007047354944390860704733494039086035
:100D9000704736490860704701460020294A8C3266
:100DA000106820F01F004A1E1043264A8C32106043
:100DB000704701460020234A8C32106820F4F85016
:100DC0004A1E40EA02201F4A8C32106070470146DA
:100DD00000201C4A8C32106820F440100843106038
:100DE000704701460020174A8C32106820F44000FA
:100DF00008431060704701460020124A8C32106888
:100E000020F440300843106070471949086070476B
:100E100039B10C4A3032126802430A4B30331A603F
:100E200006E0084A303212688243064B30331A60BB
:100E30007047F9B1034A343212680243014B34332C
:100E40001A601CE000380240FFFFF6EA1030002470
:100E50000030002000004742800E47420024F4008A
:100E600000127A0024000020FFFCFF0F5C014742C3
:100E7000E01147428F4A126882438E4B1A607047D6
:100E800039B18C4A121D126802438A4B1B1D1A602D
:100E900006E0884A121D12688243864B1B1D1A60A9
:100EA000704739B1834A0C3212680243814B0C33CC
:100EB0001A6006E07F4A0C32126882437D4B0C3385
:100EC0001A60704739B17B4A103212680243794B7D
:100ED00010331A6006E0774A103212688243754B6D
:100EE00010331A60704739B1724A243A12680243CB
:100EF000704B243B1A6006E06E4A243A1268824323
:100F00006C4B243B1A60704739B16A4A203A126828
:100F10000243684B203B1A6006E0664A203A12689A
:100F20008243644B203B1A60704739B1614A1C3AD6
:100F3000126802435F4B1C3B1A6006E05D4A1C3A94
:100F4000126882435B4B1C3B1A60704739B1594AA7
:100F5000143A12680243574B143B1A6006E0554A94
:100F6000143A12688243534B143B1A60704739B1EC
:100F7000504A103A126802434E4B103B1A6006E08A
:100F80004C4A103A126882434A4B103B1A60704731
:100F900039B1484A1C3212680243464B1C331A606E
:100FA00006E0444A1C3212688243424B1C331A60EA
:100FB000704739B13F4A2032126802433D4B20331B
:100FC0001A6006E03B4A203212688243394B2033D4
:100FD0001A60704739B1374A243212680243354BE0
:100FE00024331A6006E0334A243212688243314BBC
:100FF00024331A60704739B12E4A2C3212680243EA
:101000002C4B2C331A6006E02A4A2C321268824399
:10101000284B2C331A60704739B1264A3032126897
:101020000243244B30331A6006E0224A3032126801
:101030008243204B30331A607047012808D11D4984
:101040003C31096841F008011A4A3C32116007E05E
:1010500018493C31096821F00801164A3C321160F8
:10106000704739B1134A273A12780243114B273B94
:101070001A7006E00F4A273A127882430D4B273B3D
:101080001A7070470B484030006840F08070094982
:1010900040310860704701460020064A283A12682D
:1010A0000A400AB1012000E00020704701492639BA
:1010B000087070473438024010B50446FA4884423C
:1010C00008D101211020FFF752FF00211020FFF767
:1010D0004EFF57E0F548844209D101214804FFF74B
:1010E00035FF00214FF40030FFF730FF4AE0F048B1
:1010F000844209D101218804FFF728FF00214FF421
:101100008020FFF723FF3DE0EA48844209D1012116
:10111000C804FFF71BFF00214FF40020FFF716FF64
:1011200030E0E548844209D101210805FFF70EFFB0
:1011300000214FF48010FFF709FF23E0DF488442CD
:1011400008D101212020FFF712FF00212020FFF706
:101150000EFF17E0DA48844209D101218807FFF722
:10116000F5FE00214FF08040FFF7F0FE0AE0D54881
:10117000844207D101214005FFF7E8FE0021600508
:10118000FFF7E4FE10BD2DE9FF4705460E4600249B
:10119000A14600BFA046B08900B100BF2C8A24F44C
:1011A0004054F08804432C82AC8941F20C608443A3
:1011B000B08831890843718908430443AC81AC8A03
:1011C00024F44074B0890443AC826846FFF74FFDB5
:1011D000B548854202D0B948854202D1DDF80C906D
:1011E00001E0DDF80890A88900F4004040B109EB67
:1011F000C90000EB091031684900B0FBF1F707E0C6
:1012000009EBC90000EB091031688900B0FBF1F768
:101210006420B7FBF0F004012009642101FB107881
:10122000A88900F4004040B1322000EBC800B0FBB8
:10123000F1F000F00700044308E0322000EB081052
:101240006421B0FBF1F000F00F0004432C81BDE8F5
:10125000FF874FF41651016000218180C180018118
:101260000C21418100218181704710B50246002088
:10127000108A20F470600B884C8823438C882343A9
:10128000CC8823431843108210BD00210180418087
:101290008180C180704721B1828942F400528281ED
:1012A00004E082894DF6FF731A4082817047028BF9
:1012B00002F47F420283028B0A430283704721B10A
:1012C000828942F40042828103E08289C2F30E02E5
:1012D0008281704721B1828A42F40062828204E0F6
:1012E000828A4FF2FF731A4082827047C1F308026C
:1012F0008280704701468888C0F308007047028AE0
:101300004FF6F0731A400282028A0A430282704743
:1013100021B1828942F00202828104E082894FF683
:10132000FD731A408281704782894FF2FF731A4021
:10133000828182890A4382817047028A4FF6DF7375
:101340001A400282028A0A430282704721B1028A4D
:1013500042F48042028204E0028A4BF6FF731A4094
:1013600002827047818941F001018181704721B17A
:10137000828A42F00802828204E0828A4FF6F77382
:101380001A4082827047028BD2B20283028B42EAF9
:1013900001220283704721B1828A42F020028282B8
:1013A00004E0828A4FF6DF731A408282704721B1CF
:1013B000828A42F01002828204E0828A4FF6EF7342
:1013C0001A4082827047828A4FF6FB731A408282EB
:1013D000828A0A438282704721B1828A42F00202E5
:1013E000828204E0828A4FF6FD731A40828270473F
:1013F0001AB1838A0B43838202E0838A8B43838200
:101400007047F0B50346002400260025002040F672
:101410006A17B94200D100BF1846C1F3421401F067
:101420001F06012707FA06F5012C01D10C3004E054
:10143000022C01D1103000E014301AB107682F439C
:10144000076002E00768AF430760F0BD0246002076
:10145000B1F5007F00D100BF13880B400BB1012014
:1014600000E00020704701F40072B2F5007F00D167
:1014700000BFCA430280704770B5024600240023B3
:101480000025002040F66A16B14200D100BFC1F32A
:10149000421501F01F03012606FA03F3012D13D1B3
:1014A0009689334017E000000010014000440040DE
:1014B00000480040004C0040005000400014014033
:1014C00000780040007C0040022D02D1168A334093
:1014D00001E0968A33400C12012606FA04F41688BD
:1014E000344013B10CB1012000E0002070BD10B5F4
:1014F0000022002340F66A14A14200D100BF0A1264
:1015000001249440A3B2DC43048010BD10B504460E
:10151000FE48844208D101210846FFF728FD00213A
:101520000120FFF724FD9DE0B4F1804F08D1012197
:101530000846FFF70BFD00210120FFF707FD91E0B2
:10154000F348844208D101210220FFF7FFFC00216B
:101550000220FFF7FBFC85E0EE48844208D1012120
:101560000420FFF7F3FC00210420FFF7EFFC79E0F3
:10157000E948844208D101210820FFF7E7FC002157
:101580000820FFF7E3FC6DE0E448844208D1012124
:101590001020FFF7DBFC00211020FFF7D7FC61E0F3
:1015A000DF48844208D101212020FFF7CFFC002131
:1015B0002020FFF7CBFC55E0DA48844208D1012116
:1015C0000220FFF7D4FC00210220FFF7D0FC49E005
:1015D000D548844209D101210804FFF7C8FC002145
:1015E0004FF48030FFF7C3FC3CE0D048844209D17F
:1015F00001214804FFF7BBFC00214FF40030FFF746
:10160000B6FC2FE0CA48844209D101218804FFF7C3
:10161000AEFC00214FF48020FFF7A9FC22E0C54872
:10162000844208D101214020FFF790FC0021402096
:10163000FFF78CFC16E0C048844208D101218020CD
:10164000FFF784FC00218020FFF780FC0AE0BB4804
:10165000844207D101218015FFF778FC0021A015F5
:10166000FFF774FC10BD00220288A84B98420ED0F0
:10167000AC4B98420BD0B0F1804F08D0A44B9842AD
:1016800005D0A44B984202D0A34B984204D14FF608
:101690008F731A404B881A43A04B984207D0A04B37
:1016A000984204D04FF6FF431A400B891A43028038
:1016B0004B68C3620B880385944B984202D0994BC8
:1016C000984201D18B7A03860123838270474FF0C1
:1016D000FF314160002101800181418081727047AA
:1016E0000185828270470A46002101884FF68F7378
:1016F000194011430180704741627047C1627047D1
:101700000146486A70470146088D704721B102883A
:1017100042F00202028004E002884FF6FD731A4094
:101720000280704721B1028842F00402028004E086
:1017300002884FF6FB731A400280704721B102887D
:1017400042F08002028004E002884FF67F731A4064
:101750000280704702884FF6F7731A4002800288B1
:101760000A430280704702884FF6FF431A40028006
:1017700002880A430280704721B1028842F00102C8
:10178000028004E002884FF6FE731A400280704720
:1017900070B5002400220023058C4FF6FE763540FC
:1017A0000584028C8388048B4FF68F752C40B51E00
:1017B0002C400D882C43751E2A408D892A434D8864
:1017C0002A43524DA84202D0564DA84213D14FF69B
:1017D000F7752A40CD892A434FF6FB752A408D883C
:1017E0002A434FF6FF652B404FF6FF552B400D8ADD
:1017F0002B434D8A2B43838004838D684563028489
:1018000070BD70B5002400220023058C4FF6EF76E2
:1018100035400584028C8388048B48F6FF752C4084
:101820004FF6FF452C400D884FF6FF7606EA05255A
:101830002C434FF6DF752A408D8906EA05152A43A9
:101840004D8806EA05152A43304DA84202D0354D91
:10185000A8421DD14FF67F752A40CD894FF6FF76FD
:1018600006EA05152A434FF6BF752A408D8806EA19
:1018700005152A434FF6FF352B404FF2FF752B40DD
:101880000D8A06EA85052B434D8A06EA85052B431A
:10189000838004838D688563028470BD70B50024E5
:1018A00000220023058C4FF6FF6635400584028C2C
:1018B0008388848B4FF68F752C404FF6FC752C4037
:1018C0000D882C434FF6FF552A408D894FF6FF7641
:1018D00006EA05252A434D8806EA05252A430B4DCD
:1018E000A84202D00F4DA84238D14FF2FF752A40CE
:1018F000CD894FF6FF7606EA05252A434FF6FF35D8
:101900002A408D8806EA05252A4319E00000014097
:101910000004004000080040000C0040001000409F
:101920000014004000040140004001400044014018
:101930000048014000180040001C0040002000400A
:101940004EF6FF752B404DF6FF752B400D8A06EACB
:1019500005152B434D8A06EA05152B4383808483A6
:101960008D68C563028470BD70B500220023002419
:10197000058C4EF6FF7635400584038C8488828B77
:1019800048F6FF752A404FF6FF452A400D884FF66E
:10199000FF7606EA05252A434DF6FF752B408D8913
:1019A00006EA05352B434D8806EA05352B43FE4DE7
:1019B000A84202D0FD4DA84208D14BF6FF752C403D
:1019C0000D8A4FF6FF7606EA85152C4384808283C4
:1019D0008D680564038470BD002101804180818091
:1019E00081608181C18101824182704770B5034667
:1019F000002000241846183001258D40ACB21D8C03
:101A0000A5431D8409B108290AD100EB61000568CE
:101A10004FF68F76354005600568154305600FE089
:101A20000D1FC5F34E052844056848F6FF7635407E
:101A3000056005684FF6FF7606EA02263543056025
:101A400070BD4163704781637047C1637047016433
:101A500070470A460021018B4FF68F7319401143DE
:101A6000018370470A460021018B48F6FF73194035
:101A70004FF6FF7303EA02231943018370470A46B6
:101A80000021818B4FF68F7319401143818370477A
:101A90000A460021818B48F6FF7319404FF6FF7309
:101AA00003EA02231943818370470A460021018B10
:101AB0004FF6F77319401143018370470A4600211E
:101AC000018B4FF2FF7319404FF6FF7303EA0223B5
:101AD0001943018370470A460021818B4FF6F77343
:101AE00019401143818370470A460021818B4FF2D0
:101AF000FF7319404FF6FF7303EA022319438183F2
:101B000070470A460021018B4FF6FB7319401143C1
:101B1000018370470A460021018B4FF6FF331940BD
:101B20004FF6FF7303EA02231943018370470A4605
:101B30000021818B4FF6FB7319401143818370475D
:101B40000A460021818B4FF6FF3319404FF6FF7391
:101B500003EA02231943818370470A460021018B5F
:101B60004FF67F7319401143018370470A460021E5
:101B7000018BC1F30E014FF6FF7303EA02231943F1
:101B8000018370470A460021818B4FF67F7319400D
:101B90001143818370470A460021818BC1F30E01F6
:101BA0004FF6FF7303EA02231943818370470A4605
:101BB0000021018C4FF6FD731940114301847047D9
:101BC0000A460021018C4FF6F77319401143018436
:101BD00070470A460021018C4FF6DF7319404FF61B
:101BE000FF7303EA02131943018470470A46002178
:101BF000018C4FF67F7319404FF6FF7303EA02130F
:101C00001943018470470A460021018C4FF6FF53A7
:101C100019404FF6FF7303EA02231943018470470A
:101C20000A460021018C4FF2FF7319404FF6FF73F3
:101C300003EA02231943018470470A460021018CFC
:101C40004DF6FF7319404FF6FF7303EA0233194351
:101C50000184704730B5002301248C40A3B2048C6A
:101C60009C430484048C02FA01F5ADB22C43048435
:101C700030BD30B5002304248C40A3B2048C9C43B7
:101C80000484048C02FA01F5ADB22C43048430BD07
:101C9000828B4FF2FF331A408283828B4FF6FF73A1
:101CA00003EA01231A4382837047F0B50C461546B8
:101CB000002100220026078C4EF6FF7C07EA0C0765
:101CC0000784818B028C4FF6FF7707EA043640F6D3
:101CD000FF4739404FF6FF7707EA052739434FF6AC
:101CE000FF7707EA0337394345F6FF773A4046F472
:101CF00080573A4381830284F0BD828B4FF6F373A1
:101D00001A408283828B0A4382837047F0B50C4667
:101D10001546002100220026078C4FF6FF6C07EACB
:101D20000C070784818B028C4FF6FF7707EA0426A5
:101D30004FF60C7739404FF6FF7707EA03172F432A
:101D400039434FF2FF573A4046F480773A43818354
:101D50000284F0BD028B4FF2FF331A400283028BE4
:101D60004FF6FF7303EA01231A4302837047F0B56D
:101D70000C461546002100220026078C4FF6EF7C0A
:101D800007EA0C070784018B028C4FF6FF7707EAFE
:101D9000041640F6FF4739404FF6FF7707EA03374E
:101DA00039434FF6FF7703E0000001400004014093
:101DB00007EA052739434FF65F773A4046F01007A8
:101DC0003A4301830284F0BD028B4FF6F3731A404D
:101DD0000283028B0A4302837047F0B50C46154616
:101DE00000210022068C4FF6FE773E400684018BD0
:101DF000028C4FF60C7631407E1C06EA03162E4309
:101E000031434FF6F576324044F001063243018308
:101E10000284F0BD70B505460C46208850B9238970
:101E2000A28861882846FFF7D8FFE1882846FFF797
:101E3000CBFF25E0208804280AD12389A288618865
:101E40002846FFF794FFE1882846FFF783FF17E055
:101E5000208808280AD12389A28861882846FFF7AC
:101E600055FFE1882846FFF748FF09E02389A2884B
:101E700061882846FFF719FFE1882846FFF708FF29
:101E800070BD002101804180012181800021C1803D
:101E9000018170472DE9F04105460C4600260127D7
:101EA000608808B9022600E00026A088012801D138
:101EB000022700E001272088A0B92389A288618831
:101EC0002846FFF78AFFE1882846FFF77DFF238930
:101ED0003A4631462846FFF74AFFE1882846FFF791
:101EE00039FF13E02389A28861882846FFF73FFF66
:101EF000E1882846FFF72EFF23893A4631462846D7
:101F0000FFF76BFFE1882846FFF75EFFBDE8F08131
:101F10000146486B70470146886B70470146C86BA5
:101F200070470146086C70470A884B881A438B88B3
:101F30001A43CB881A430B891A434B891A438B895E
:101F40001A43A0F84420704700210180418081801D
:101F5000C180018141818181704731B1B0F8442055
:101F600042F40042A0F8442005E0B0F84420C2F357
:101F70000E02A0F84420704721B1828842F004028A
:101F8000828004E082884FF6FB731A40828070479B
:101F900021B1828842F00102828004E082884FF6FB
:101FA000FE731A40828070471AB183890B43838184
:101FB00002E083898B4383817047818270470246A8
:101FC0000020138A0B400BB1012000E00020704775
:101FD000CA430282704730B5024600200023002425
:101FE000158A05EA0103958905EA010413B10CB1CC
:101FF000012000E0002030BDCA430282704741EA60
:102000000203A0F8483070471AB183890B438381DB
:1020100002E083898B438381704721B1828842F03B
:102020000802828004E082884FF6F7731A408280AB
:10203000704701894FF6F8721140018170470A46D6
:10204000002101894FF68F731940114301817047B8
:1020500030B504460D4629462046FFF7F0FF20899B
:1020600040F00700208130BD2DE9F04104460D46C7
:1020700016461F46602D06D13B46012231462046BA
:10208000FFF775FE05E03B46012231462046FFF78B
:10209000A4FE29462046FFF7D2FF208940F0070022
:1020A0002081BDE8F08130B50C4600210189C9B21C
:1020B0004FF6FF7505EA03251543254329430181A2
:1020C00030BD2DE9F04105460E46174698460024DE
:1020D00043463A4631462846FFF7E5FF2C894FF63E
:1020E000F870044044F007044FF68F70044044F049
:1020F00070042C81BDE8F081F0B504460D4616460B
:102100001F463B46324629462046FFF7CCFF208932
:1021100040F480402081F0BD82884FF68F731A40D2
:10212000828082880A438280704702894FF6F87362
:102130001A40028102890A430281704702894FF6E0
:102140007F731A40028102890A4302817047F0B509
:102150000C4615461E460021002200230189028BF1
:10216000038C4FF6F877394021434FF6FC473A404D
:1021700040F201173A434FF6DD773B404FF6FF77C9
:1021800007EA06172F433B43018102830384F0BD16
:1021900021B1828842F08002828004E082884FF67A
:1021A0007F731A4082807047A0F85010704700007B
:1021B00010B502F055FA012801D003F033FA10BD32
:1021C00070B504460420FEF7E1FA32480470254653
:1021D0004FF47A70454301202F4908804FF0E020EA
:1021E000006940F002004FF0E021086108464561B7
:1021F000006940F00100086170BD70B5034600221F
:102200004FF0E0267569234E367803FB06F44FF055
:10221000E026B16910E04FF0E026B06988420BD0AB
:10222000884202D20E1A324402E02E1A0E44324480
:102230000146A24200D300E0EDE700BF70BD70B5DB
:10224000044602F00DFA012810D013480088844299
:1022500006D311480088B4FBF0F5284601F05FFC76
:102260000D480088B4FBF0F100FB11444FF47A7183
:1022700004FB01F0FFF7C1FF70BD30B50446002537
:1022800004E04FF47A70FFF7B8FF6D1CA542F8D355
:1022900030BD000034000020360000201CB50121B4
:1022A0001020FEF7B5FD0C20009001208DF80400F1
:1022B00000208DF8060003208DF8050001208DF820
:1022C000070069460348FEF705FB0C210148FEF7AD
:1022D0007DFB1CBD001002401CB501211020FEF743
:1022E00097FD01210846FEF7EDFD02208DF8040060
:1022F00003208DF8050000208DF806008DF80700FA
:102300004FF4D440009069466B48FEF7E3FA01228F
:1023100009216948FEF769FB01220B216648FEF797
:1023200064FB01220D216448FEF75FFB01220E21B0
:102330006148FEF75AFB1CBD30B589B0044600BFAA
:10234000FFF7CAFF5D48B0FBF4F0451E0020ADF872
:102350001800ADF81A000795ADF820008DF822009E
:1023600006A95748FFF77FF96020ADF80400012067
:10237000ADF806000020ADF810004FF48070ADF805
:10238000140032206843642190FBF1F0039001A90E
:102390004B48FFF7FDF901A94948FFF732FA01A9B7
:1023A0004748FFF77BFA01A94548FFF7DDFA01210D
:1023B0004348FFF7E1F901214148FFF7CEFD09B09D
:1023C00030BD3E4AB2FBF0F2521E4A436423B2FBD8
:1023D000F3F23B4B5A63394AB2FBF0F2521E4A43C6
:1023E0006423B2FBF3F2364B9A63344AB2FBF0F249
:1023F000521E4A436423B2FBF3F2314BDA632F4A95
:10240000B2FBF0F2521E4A436423B2FBF3F22C4BB0
:102410001A6470471CB501210820FEF7F9FC0F2053
:10242000009001208DF8040000208DF806000320A4
:102430008DF8050001208DF8070069462148FEF758
:1024400049FA0C211F48FEF7C1FA03211D48FEF787
:10245000BFFA642144F62060FFF7B3FF1CBD10B53E
:102460000C211848FEF7B2FA03211648FEF7B0FA1D
:1024700010BD10B50C211348FEF7AAFA032111482C
:10248000FEF7A4FA10BD70B504460D464CB1012C00
:1024900004D0022C06D1FFF7E2FF04E0FFF7E9FFCA
:1024A00001E000BF00BF00BFC5F1640144F6206039
:1024B000FFF787FF70BD000000100240007A030A9A
:1024C00000000140000C024000F1080141604FF0A3
:1024D000FF31816000F10801C160016100210160EC
:1024E000704700210161704742684A6093688B60C1
:1024F000936859609160086103685B1C03607047D2
:1025000010B502460B685C1C0CB9106907E002F1BB
:10251000080000E04068446824689C42FAD9446896
:102520004C604C68A160886041600A611468641C5A
:10253000146010BD01460A69D1E901309860D1E903
:10254000010358605068884201D1886850600020BB
:1025500008611068401E10601068704770B505462D
:102560000E462C4654B900BF502080F31188BFF3AB
:102570004F8FBFF36F8F00BF00BFFEE703F00FF870
:10258000D4E90F12206801FB0200A0600020A063C4
:1025900020686060E06B401E226C216800FB021125
:1025A000E160FF2084F8440084F845009EB920696A
:1025B00008B9012000E00020A8B904F1100001F0E2
:1025C00039FF80B14FF08050FA490860BFF34F8F58
:1025D000BFF36F8F07E004F11000FFF775FF04F100
:1025E0002400FFF771FF03F001F8012070BD2DE911
:1025F000F04106460D4617469846069C0DB92460E4
:1026000000E02760E663256401212046FFF7A6FF6E
:1026100084F84C80BDE8F0812DE9F84305460E466C
:1026200090460DB1012000E0002050B900BF5020BD
:1026300080F31188BFF34F8FBFF36F8F00BF00BFD0
:10264000FEE70EB9002701E005FB06F707F1500091
:1026500003F0A9F804464CB1A14609F150094346DC
:102660004A46314628460094FFF7C1FF2046BDE8A0
:10267000F88370B5044602F092FF94F9455010E0DB
:10268000606A08B9012000E0002038B904F1240094
:1026900001F0D0FE18B101F0D1FF00E003E0681EA8
:1026A00045B2002DECDC00BFFF2084F8450002F0AD
:1026B0009DFF02F074FF94F9445010E0206908B9BE
:1026C000012000E0002048B904F1100001F0B2FE42
:1026D00008B101F0B3FF681E45B200E001E0002D33
:1026E000ECDC00BFFF2084F8440002F07FFF70BDE7
:1026F00070B5054602F053FFA86BE96B884201D123
:10270000012400E0002402F071FF204670BD2DE995
:10271000F04104460F4615464FF00008A66B206CAA
:1027200048B9206800282CD1A06802F002F8804641
:102730000020A06025E07DB93946226C606804F075
:10274000C9FC216C606808446060D4E901018842DA
:1027500017D32068606014E03946226CE06804F00A
:10276000B9FC216CE068411AE1602168E0688842A8
:1027700003D2216CA068411AE160022D01D106B19B
:10278000761E701CA0634046BDE8F0812DE9FF4332
:1027900083B0064688461D464FF00009344654B9BA
:1027A00000BF502080F31188BFF34F8FBFF36F8FAE
:1027B00000BF00BFFEE7B8F1000F01D1206C08B9DF
:1027C000012000E0002050B900BF502080F31188A4
:1027D000BFF34F8FBFF36F8F00BF00BFFEE7022D27
:1027E00002D1E06B012801D1012000E0002050B9A6
:1027F00000BF502080F31188BFF34F8FBFF36F8F5E
:1028000000BF00BFFEE701F02BFF08B9059808B92B
:10281000012000E0002050B900BF502080F3118853
:10282000BFF34F8FBFF36F8F00BF00BFFEE700BF46
:1028300002F0B5FEA06BE16B884201D3022D28D1D6
:102840002A4641462046FFF762FF0746606A08B9FC
:10285000012000E0002068B904F1240001F0EAFD45
:1028600088B14FF0805053490860BFF34F8FBFF3DA
:102870006F8F08E03FB14FF080504E490860BFF3C2
:102880004F8FBFF36F8F02F0B1FE012007B0BDE89C
:10289000F083059818B902F0A9FE0020F6E7B9F117
:1028A000000F04D101A801F080FE4FF0010902F0F1
:1028B0009DFE01F0CAF802F072FE94F94400401C3B
:1028C00010B9002084F8440094F94500401C10B968
:1028D000002084F8450002F089FE05A901A801F056
:1028E0006BFEF0B92046FFF703FFA0B104F1100022
:1028F000059901F035FD2046FFF7BBFE00F0F7FF1C
:10290000002895D14FF080502A490860BFF34F8FBF
:10291000BFF36F8F8CE72046FFF7ABFE00F0E7FFB9
:1029200086E72046FFF7A5FE00F0E1FF0020ADE7B7
:1029300010B5044654B10020A06020600021E16081
:1029400000231A4619462046FFF720FF10BD2DE947
:10295000F041044601260027224600210120FFF70E
:102960005BFE05462846FFF7E3FF2846BDE8F081F9
:1029700070B505462C4654B900BF502080F311882D
:10298000BFF34F8FBFF36F8F00BF00BFFEE701F0B3
:1029900064FEA16888420FD1E068401EE060E068F4
:1029A00028B900231A4619462046FFF7EFFE0126F4
:1029B00003E0000004ED00E00026304670BD014653
:1029C0004A6A22B10A6B1268C2F1050000E00020D9
:1029D000704770B5054602F0E2FDA86B08B9012406
:1029E00000E0002402F002FE204670BD2DE9F34114
:1029F00082B005464FF000082C46002654B900BFAF
:102A0000502080F31188BFF34F8FBFF36F8F00BF4B
:102A100000BFFEE7206C08B9012000E0002050B99B
:102A200000BF502080F31188BFF34F8FBFF36F8F2B
:102A300000BF00BFFEE701F013FE08B9039808B914
:102A4000012000E0002050B900BF502080F3118821
:102A5000BFF34F8FBFF36F8F00BF00BFFEE700BF14
:102A600002F09DFDA76BFFB1781EA063206810B92E
:102A700001F03CFFA060206908B9012000E00020BF
:102A800060B904F1100001F0D5FC38B14FF080506E
:102A9000F8490860BFF34F8FBFF36F8F02F0A6FDB8
:102AA000012004B0BDE8F081039898B90EB9012067
:102AB00000E0002050B900BF502080F31188BFF320
:102AC0004F8FBFF36F8F00BF00BFFEE702F08EFD98
:102AD0000020E6E7B8F1000F04D1684601F065FD7B
:102AE0004FF0010802F082FD00F0AFFF02F057FD49
:102AF00094F94400401C10B9002084F8440094F973
:102B00004500401C10B9002084F8450002F06EFD1D
:102B100003A9684601F050FD40BB2046FFF759FF6E
:102B2000F0B1206838B902F03AFDA06801F0A4FDC8
:102B3000064602F05BFD04F12400039901F010FC4D
:102B40002046FFF796FD00F0D2FE002888D14FF016
:102B50008050C8490860BFF34F8FBFF36F8F7FE786
:102B60002046FFF786FD00F0C2FE79E72046FFF71A
:102B700080FD00F0BCFE2046FFF72BFF0028EED0C2
:102B80005EB102F00CFD2046FFF719FF07463946FB
:102B9000A06801F02CFE02F029FD002081E72DE95C
:102BA000F04106460F46344654B900BF502080F32A
:102BB0001188BFF34F8FBFF36F8F00BF00BFFEE7D9
:102BC00001F04BFDA168884204D1E068401CE06040
:102BD000012508E039462046FFF708FF054615B1F4
:102BE000E068401CE0602846BDE8F08170B505460D
:102BF0000E460DB1012000E0002050B900BF50206A
:102C000080F31188BFF34F8FBFF36F8F00BF00BFFA
:102C1000FEE7AE4201D8012000E0002050B900BF1D
:102C2000502080F31188BFF34F8FBFF36F8F00BF29
:102C300000BFFEE7022200212846FFF7EDFC044614
:102C400004B1A663204670BD2DE9F05F07468A46B1
:102C500090461E463C4654B900BF502080F3118870
:102C6000BFF34F8FBFF36F8F00BF00BFFEE7BAF116
:102C7000000F01D1206C08B9012000E0002050B9FC
:102C800000BF502080F31188BFF34F8FBFF36F8FC9
:102C900000BF00BFFEE7022E02D1E06B012801D188
:102CA000012000E0002050B900BF502080F31188BF
:102CB000BFF34F8FBFF36F8F00BF00BFFEE702F07F
:102CC000C9FC00BF5021EFF3118081F31188BFF3DD
:102CD0004F8FBFF36F8F00BF0546A06BE16B88423B
:102CE00001D3022E23D194F945B0324651462046F5
:102CF000FFF70DFD0BF1010088B9606A08B90120EA
:102D000000E0002080B904F1240001F093FB58B1E9
:102D1000B8F1000F08D00120C8F8000004E00BF162
:102D2000010040B284F845004FF0010901E04FF086
:102D3000000900BF85F3118800BF4846BDE8F09F39
:102D40002DE9F04706460F46344654B900BF5020DF
:102D500080F31188BFF34F8FBFF36F8F00BF00BFA9
:102D6000FEE7206C08B9012000E0002050B900BF48
:102D7000502080F31188BFF34F8FBFF36F8F00BFD8
:102D800000BFFEE7206808B9A06808B9012000E08C
:102D9000002050B900BF502080F31188BFF34F8F3F
:102DA000BFF36F8F00BF00BFFEE702F053FC00BF10
:102DB0005021EFF3118081F31188BFF34F8FBFF3E0
:102DC0006F8F00BF0546D4F83890E06B48451ED998
:102DD00094F945A009F10100A0630AF1010070B95E
:102DE000606A08B9012000E0002068B904F12400FD
:102DF00001F020FB40B13FB10120386004E00AF14E
:102E0000010040B284F845004FF0010801E04FF0A6
:102E1000000800BF85F3118800BF4046BDE8F08779
:102E200070B504460D46206C70B1216CE068014419
:102E3000E160D4E90210884201D32168E1602846AC
:102E4000226CE16804F046F970BD2DE9F74183B0CA
:102E500005460E464FF000082C466CB900BF5020C6
:102E600080F31188BFF34F8FBFF36F8F00BF00BF98
:102E7000FEE7000004ED00E00EB9206C08B9012067
:102E800000E0002050B900BF502080F31188BFF34C
:102E90004F8FBFF36F8F00BF00BFFEE701F0E0FB75
:102EA00008B9059808B9012000E0002050B900BF1A
:102EB000502080F31188BFF34F8FBFF36F8F00BF97
:102EC00000BFFEE700BF02F06AFBA76BF7B1314617
:102ED0002046FFF7A5FF781EA063206908B90120EE
:102EE00000E0002060B904F1100001F0A3FA38B14D
:102EF0004FF08050FA490860BFF34F8FBFF36F8FD8
:102F000002F074FB012006B0BDE8F081059818B905
:102F100002F06CFB0020F6E7B8F1000F04D101A825
:102F200001F043FB4FF0010802F060FB00F08DFD63
:102F300002F035FB94F94400401C10B9002084F8DD
:102F4000440094F94500401C10B9002084F8450065
:102F500002F04CFB05A901A801F02EFBF0B92046B8
:102F6000FFF737FDA0B104F12400059901F0F8F94D
:102F70002046FFF77EFB00F0BAFC0028A3D14FF0FB
:102F80008050D7490860BFF34F8FBFF36F8F9AE728
:102F90002046FFF76EFB00F0AAFC94E72046FFF7FF
:102FA00068FB00F0A4FC2046FFF713FD00288AD040
:102FB0000020A8E72DE9F74382B005460E464FF002
:102FC00000082C4654B900BF502080F31188BFF38D
:102FD0004F8FBFF36F8F00BF00BFFEE70EB9206CAD
:102FE00008B9012000E0002050B900BF502080F354
:102FF0001188BFF34F8FBFF36F8F00BF00BFFEE795
:1030000001F02EFB08B9049808B9012000E0002067
:1030100050B900BF502080F31188BFF34F8FBFF32A
:103020006F8F00BF00BFFEE700BF02F0B8FAD4F810
:103030003890B9F1000F1ED0E76831462046FFF7FF
:10304000EFFEE760606A08B9012000E0002060B987
:1030500004F1240001F0EEF938B14FF08050A0499E
:103060000860BFF34F8FBFF36F8F02F0BFFA0120EC
:1030700005B0BDE8F083049818B902F0B7FA002053
:10308000F6E7B8F1000F04D1684601F08EFA4FF070
:10309000010802F0ABFA00F0D8FC02F080FA94F9D3
:1030A0004400401C10B9002084F8440094F9450005
:1030B000401C10B9002084F8450002F097FA04A9DA
:1030C000684601F079FAF0B92046FFF782FCA0B11A
:1030D00004F12400049901F043F92046FFF7C9FAEE
:1030E00000F005FC0028A0D14FF080507C4908601A
:1030F000BFF34F8FBFF36F8F97E72046FFF7B9FA03
:1031000000F0F5FB91E72046FFF7B3FA00F0EFFB84
:103110002046FFF75EFC002887D00020A8E72DE9B5
:10312000F05F064689461746344654B900BF502022
:1031300080F31188BFF34F8FBFF36F8F00BF00BFC5
:10314000FEE7B9F1000F01D1206C08B9012000E0C1
:10315000002050B900BF502080F31188BFF34F8F7B
:10316000BFF36F8F00BF00BFFEE702F073FA00BF2E
:103170005021EFF3118081F31188BFF34F8FBFF31C
:103180006F8F00BF0546D4F838A0BAF1000F22D0E7
:1031900094F944B049462046FFF742FEAAF10100E7
:1031A000A0630BF1010070B9206908B9012000E0AB
:1031B000002068B904F1100001F03CF940B13FB1C2
:1031C0000120386004E00BF1010040B284F84400B3
:1031D0004FF0010801E04FF0000800BF85F31188AF
:1031E00000BF4046BDE8F09F2DE9F04706468846FF
:1031F000344654B900BF502080F31188BFF34F8F7D
:10320000BFF36F8F00BF00BFFEE7B8F1000F01D121
:10321000206C08B9012000E0002050B900BF502008
:1032200080F31188BFF34F8FBFF36F8F00BF00BFD4
:10323000FEE7206C08B1012000E0002050B900BF7B
:10324000502080F31188BFF34F8FBFF36F8F00BF03
:1032500000BFFEE702F0FEF900BF5021EFF311803E
:1032600081F31188BFF34F8FBFF36F8F00BF054607
:10327000A06B48B1D4F80C9041462046FFF7D0FD32
:10328000C4F80C90012700E0002700BF85F31188E7
:1032900000BF3846BDE8F08770B5044654B900BF9A
:1032A000502080F31188BFF34F8FBFF36F8F00BFA3
:1032B00000BFFEE702F073F9A56B02F097F928460C
:1032C00070BD70B50446254665B900BF502080F337
:1032D0001188BFF34F8FBFF36F8F00BF00BFFEE7B2
:1032E00004ED00E002F05BF9D5E90E10461A02F099
:1032F0007DF9304670BD10B501460A4652B900BF8F
:10330000502383F31188BFF34F8FBFF36F8F00BF3C
:1033100000BFFEE7906B10BD014600200EE0544A4E
:1033200002EBC00252688A4207D10022504B43F898
:10333000302003EBC0035A6002E0401C0828EED3A3
:1033400000BF704770B50446254655B900BF5020F0
:1033500080F31188BFF34F8FBFF36F8F00BF00BFA3
:10336000FEE72846FFF7D8FF284602F0B0FA70BD06
:103370000146886C704781647047014691F84C00A3
:10338000704710B501460A4652B900BF502383F377
:103390001188BFF34F8FBFF36F8F00BF00BFFEE7F1
:1033A000936B0BB9012000E0002010BD10B5014661
:1033B0000A4652B900BF502383F31188BFF34F8FE1
:1033C000BFF36F8F00BF00BFFEE7936BD46BA342C8
:1033D00001D1012000E0002010BD024600200BE0DA
:1033E000234B53F8303033B9214B43F8301003EB03
:1033F000C0035A6002E0401C0828F1D300BF7047A8
:103400000246002000210AE0194B03EBC1035B6870
:10341000934203D1164B53F8310002E0491C0829AE
:10342000F2D300BF70472DE9F04105460E4617461E
:103430002C4602F0B4F894F94400401C10B9002066
:1034400084F8440094F94500401C10B9002084F829
:10345000450002F0CBF8A06B28B93A46314604F19A
:10346000240000F0C9FF2046FFF703F9BDE8F08112
:10347000B402002010B5002407E004EB8401FB4AED
:1034800002EB8100FFF720F8641C052CF5D3F84807
:10349000FFF71AF8F748FFF717F8F748FFF714F89F
:1034A000F648FFF711F8F648FFF70EF8F048F5492F
:1034B0000860F048F449086010BD10B5044602F0F9
:1034C0006EF8F2480068401CF0490860F048006857
:1034D00040B9EF4804600846006801280DD1FFF7A5
:1034E000C9FF0AE0EB48006838B9E9480068C06ADB
:1034F000E16A884201D8E6480460E7480068401C59
:10350000E549086008460068206494F82C10012002
:103510008840E24909680843E0490860E16A01EB34
:103520008101D24A02EB8100211DFEF7DDFF02F08E
:103530005DF8D848006868B1D5480068C06AE16A9B
:10354000884207D24FF08050D5490860BFF34F8FB3
:10355000BFF36F8F10BD2DE9F05F82460E46904697
:103560009B460A9F0C9C56B900BF502080F31188DF
:10357000BFF34F8FBFF36F8F00BF00BFFEE74FEA6F
:103580008801A522206B03F0EAFDA8F10100216B60
:1035900001EB800929F0070909F0070008B90120AB
:1035A00000E0002050B900BF502080F31188BFF325
:1035B0004F8FBFF36F8F00BF00BFFEE7002507E00E
:1035C000715D04F134004155705D00B902E06D1C7D
:1035D0000A2DF5D300BF00213D200155052F00D352
:1035E0000427E762A7640020E064201DFEF779FF4E
:1035F00004F11800FEF775FF2461C7F10500A06112
:1036000064620020206584F854005A4651464846BA
:1036100001F0E6FE20600B9808B10B980460BDE84D
:10362000F09F2DE9FF4F85B0804689461746DDE9BA
:1036300012ABB80002F0B7F8064656B1582002F0B7
:10364000B2F804460CB1266304E0304602F03FF9BC
:1036500000E000247CB10020CDE900ABCDE90240C0
:103660003A4649464046089BFFF775FF2046FFF75C
:1036700024FF012501E04FF0FF35284609B0BDE8E1
:10368000F08F80490968096809B9012100E000212B
:1036900021B14FF0FF31834A116006E07949096892
:1036A000C968C8687F4A41681160704710B5044610
:1036B000206B02F00CF9204602F009F910BD70B53C
:1036C000054601F06CFF15B97148006800E0284616
:1036D0000446201DFEF72EFF78B9E06A00EB80005B
:1036E000624951F8200040B994F82C10012088401C
:1036F0006A490968814369480160A06A18B104F108
:103700001800FEF717FF64480068401C6249086013
:103710005F480068844209D1211D5848FEF7E4FE45
:1037200061480068401C6049086009E0574800682B
:10373000401E564908602046FFF7B8FFFFF7A1FF7B
:1037400001F054FF53480068E8B1514800688442D2
:1037500019D15648006808B9012000E0002050B98E
:1037600000BF502080F31188BFF34F8FBFF36F8FDE
:1037700000BF00BFFEE74FF0805049490860BFF32B
:103780004F8FBFF36F8F70BD2DE9F0414FF00008F0
:1037900046480068002868D145480068451C4448F0
:1037A000056015BB37480068006808B9012000E0D3
:1037B000002050B900BF502080F31188BFF34F8F15
:1037C000BFF36F8F00BF00BFFEE72E4807682E488B
:1037D00000682C4908602C48076036480068401C87
:1037E00034490860FFF74DFF00BF2E48006885424E
:1037F00063D300BF23480068006808B9012000E0D7
:10380000002020B14FF0FF302649086054E01D48E9
:103810000068C068C4686668B54202D22148066084
:103820004AE0201DFEF786FEA06A18B104F11800D8
:10383000FEF780FE94F82C10012088401749096893
:10384000084316490860E16A01EB8101074A02EB6F
:103850008100211DFEF748FE0D49E06A0968C96A2A
:103860008842C7D34FF00108C4E733E0F4020020D8
:10387000580300206C0300208003002094030020E4
:10388000A80300203C000020400000204800002049
:103890003800002054000020640000205000002068
:1038A00004ED00E0680000204400002070000020CB
:1038B0004C0000206000002000BFFE480068C06A85
:1038C00000EB8000FC4951F82000012801D94FF09D
:1038D000010804E0F9480068401CF8490860F8480D
:1038E000006808B14FF001084046BDE8F08170B5AE
:1038F00000240026F348006850B900BF502080F330
:103900001188BFF34F8FBFF36F8F00BF00BFFEE77B
:1039100001F045FEEB480068401EEA490860084691
:10392000006800284FD1E848006800284BD024E008
:10393000E648C068C46804F11800FEF7FBFD201DCE
:10394000FEF7F8FD94F82C1001208840E049096842
:103950000843DF490860E16A01EB8101D64A02EBC6
:103960008100211DFEF7C0FDD249E06A0968C96ADD
:10397000884202D30120D2490860D448006808B9BF
:10398000012000E000200028D2D00CB1FFF779FE22
:10399000CA48056865B100BFFFF7F6FE10B1012007
:1039A000C74908606D1E002DF6D10020C34908608C
:1039B000C348006838B101263007C6490860BFF324
:1039C0004F8FBFF36F8F01F011FE304670BD2DE9B0
:1039D000F04105460E46C0480768B6480068001D1D
:1039E000FEF7A8FD50B9B348006890F82C100120EC
:1039F0008840B74909688143B5480160681C38B9F7
:103A000036B1AC480168091DB448FEF76DFD1AE0F7
:103A10007C19A84800684460BC4207D2A5480168E8
:103A2000091DAF480068FEF76BFD0CE0A148016876
:103A3000091DAC480068FEF763FDAB48006884428E
:103A400001D2A9480460BDE8F0819E480068401C8E
:103A50009C49086070472DE9F04704460F464FF037
:103A6000000954B900BF502080F31188BFF34F8F75
:103A7000BFF36F8F00BF00BFFEE70FB1012000E072
:103A8000002050B900BF502080F31188BFF34F8F42
:103A9000BFF36F8F00BF00BFFEE78A48006808B918
:103AA000012000E0002050B900BF502080F31188B1
:103AB000BFF34F8FBFF36F8F00BF00BFFEE7FFF76D
:103AC000C4FF854806682068C5192068B04207D938
:103AD0002068A8420BD9B54209D94FF0010906E088
:103AE0002068A84201D8B54201D94FF001092560EC
:103AF000B9F1000F03D0A81B0021FFF768FFFFF703
:103B0000F6FE8046B8F1000F07D14FF080507149A2
:103B10000860BFF34F8FBFF36F8FBDE8F08770B5BC
:103B200004460025D4B16748006808B9012000E0C8
:103B3000002050B900BF502080F31188BFF34F8F91
:103B4000BFF36F8F00BF00BFFEE7FFF77EFF0021CE
:103B50002046FFF73CFFFFF7CAFE05463DB94FF090
:103B600080505C490860BFF34F8FBFF36F8F70BD0B
:103B70002DE9F04707463E4656B900BF502080F376
:103B80001188BFF34F8FBFF36F8F00BF00BFFEE7F9
:103B900048480068864201D1002426E001F0FFFC7D
:103BA00075695048D0F800804D48D0F8009001F079
:103BB0001DFD454501D04D4501D1022415E0474882
:103BC00085420BD1B06A38B996F85400012801D16A
:103BD00002240AE0032408E0022406E04348854268
:103BE00000D00DB9042400E001242046BDE8F08790
:103BF00070B5044601F0D3FC14B92E48006800E00B
:103C000020460646F56A01F0F1FC284670BD2DE914
:103C1000F041054601F01EFD00BF5021EFF3118079
:103C200081F31188BFF34F8FBFF36F8F00BF04463E
:103C300015B92048006800E028460746FE6A00BF24
:103C400084F3118800BF3046BDE8F0812DE9F047CC
:103C500080460D464FF00009052D01D2012000E0FD
:103C6000002050B900BF502080F31188BFF34F8F60
:103C7000BFF36F8F00BF00BFFEE7052D00D3042503
:103C800001F08DFCB8F1000F02D10A48006800E095
:103C900040460446A66CAE4276D0B5422BD90548C4
:103CA000006884422DD003480068C06AA84228D822
:103CB0001EE0000038000020F40200205800002020
:103CC0005C000020700000204800002080030020DD
:103CD0005000002004ED00E04C000020A80300206C
:103CE000400000203C0000206800002094030020D9
:103CF0004FF0010905E0FE480068844201D14FF011
:103D00000109E76AE16AA06C884200D1E562A56416
:103D1000A06900F0004010B9C5F10500A06107EBF3
:103D20008701F44A02EB81016069884201D10120D8
:103D300000E00020E0B1201DFEF7FCFB30B90120BF
:103D4000B840ED4909688143EB48016094F82C10B4
:103D500001208840E84909680843E7490860E16AAA
:103D600001EB8101E34A02EB8100211DFEF7BCFB60
:103D7000B9F1000F07D04FF08050E0490860BFF361
:103D80004F8FBFF36F8F00BF01F030FCBDE8F087AD
:103D9000DB48006818B10120DA49086032E00020F1
:103DA000D8490860D4480068B0FA80F0C0F11F011B
:103DB00001EB8100CF4A52F8200008B1012000E059
:103DC000002050B900BF502080F31188BFF34F8FFF
:103DD000BFF36F8F00BF00BFFEE701EB8102C54B51
:103DE00003EB820042685268426000F108024368B7
:103DF000934202D14268526842604268D268BC4B2A
:103E00001A6000BF704770B5054601F0C8FB15B9D0
:103E1000B748006800E028460446201DFEF78AFBEC
:103E200078B9E06A00EB8000B24951F8200040B94F
:103E300094F82C1001208840AF4909688143AE48AE
:103E40000160A06A18B104F11800FEF773FB211D90
:103E5000AD48FEF749FB94F85400012802D1002038
:103E600084F8540001F0C2FBA848006828B101F0B2
:103E700096FBFFF706FC01F0B9FB9D480068844201
:103E800029D1A2480068D0B19D48006808B9012036
:103E900000E0002050B900BF502080F31188BFF32C
:103EA0004F8FBFF36F8F00BF00BFFEE74FF0805012
:103EB00092490860BFF34F8FBFF36F8F0BE09248BA
:103EC000006893490968884203D100208849086046
:103ED00001E0FFF75DFF70BD10B5024600201146FE
:103EE00052B900BF502383F31188BFF34F8FBFF344
:103EF0006F8F00BF00BFFEE7834C4B69A34201D127
:103F0000012300E0002373B1824C8B6AA34201D1EC
:103F1000012300E0002333B98B6A0BB9012300E0D1
:103F2000002303B1012010BD70B505462C4655B9DC
:103F300000BF502080F31188BFF34F8FBFF36F8F06
:103F400000BF00BFFEE76A48006884422BD054B32C
:103F500001F025FB2046FFF7BFFF10B3201DFEF741
:103F6000E9FA94F82C100120884063490968084355
:103F700061490860E16A01EB81015E4A02EB810060
:103F8000211DFEF7B1FA5A49E06A0968C96A8842F8
:103F900007D34FF0805059490860BFF34F8FBFF3EC
:103FA0006F8F01F023FB70BD2DE9F041064600271D
:103FB000344656B900BF502080F31188BFF34F8FAD
:103FC000BFF36F8F00BF00BFFEE701F043FB00BFF0
:103FD0005021EFF3118081F31188BFF34F8FBFF3AE
:103FE0006F8F00BF05462046FFF776FF20B3444899
:103FF0000068E0B93E49E06A0968C96A884200D3AE
:104000000127201DFEF796FA94F82C100120884015
:1040100039490968084338490860E16A01EB8101C0
:10402000344A02EB8100211DFEF75EFA04E004F140
:1040300018013848FEF758FA00BF85F3118800BF11
:104040003846BDE8F08110B516E001F0A8FA324814
:10405000C068C468201DFEF76DFA2D480068401E38
:104060002B4908602D480068401E2C49086001F06B
:10407000BDFA2046FFF71AFB284800680028E4D163
:1040800010BD00BFFFF7DFFF1A4800680128F9D90B
:104090004FF0805019490860BFF34F8FBFF36F8F07
:1040A000F0E71CB51E4800210B468222CDE9001026
:1040B0001CA11E48FFF7B5FA0446012C02D101F0FD
:1040C0005EF80446012C3AD100BF502080F31188DD
:1040D000BFF34F8FBFF36F8F00BF4FF0FF30144916
:1040E000086001200949086000201249086023E0A7
:1040F00038000020F40200205000002004ED00E011
:10410000700000205C000020A80300205400002064
:104110004800002080030020940300204400002079
:104120006C00002049444C4500000000834000081A
:10413000680000204C00002001F077F910E0601CBE
:1041400008B1012000E0002050B900BF502080F3EA
:104150001188BFF34F8FBFF36F8F00BF00BFFEE723
:104160001CBD10B500BF502080F31188BFF34F8FE6
:10417000BFF36F8F00BF0020F949086001F0FAF922
:1041800010BDF8490868704770B501F063FA002562
:10419000F4480468204670BDF34800687047014643
:1041A00011B9F248006800E00846024652B900BF63
:1041B000502080F31188BFF34F8FBFF36F8F00BF84
:1041C00000BFFEE702F1340070470246002101E023
:1041D000521C491C1078A528FAD0890888B270476B
:1041E0002DE9F04107460C4690461E4617B9DF48B8
:1041F000006800E038460546256005F1340060603F
:10420000E86A2061286BE061286CA060A86C60619E
:104210000020A061052E12D0D4480068854202D14A
:10422000002020730FE02673032E0CD1FFF70DFC46
:10423000A86A08B102202073FFF759FB03E0284663
:10424000FFF796FC2073B8F1000F04D0286BFFF73E
:10425000BCFF208401E000202084BDE8F0812DE92E
:10426000F04707460C4690460026206848B3204693
:1042700041684968416000F1080142688A4202D100
:104280004168496841604168D1F80C9000BF204600
:1042900041684968416000F1080142688A4202D1E0
:1042A0004168496841604168CD6806EBC60007EB8C
:1042B0008001434601222846FFF792FF761C4D45B8
:1042C000E5D13046BDE8F0872DE9F0410546884646
:1042D000164600240527FFF7B8FBA3480068804571
:1042E00039D300BF7F1E07EB8702A14B03EB82018E
:1042F00004EBC40205EB82000122FFF7B0FF044487
:10430000002FEFD104EBC40105EB81000222994993
:104310000968FFF7A4FF044404EBC40105EB810026
:10432000022295490968FFF79AFF044404EBC4018F
:1043300005EB810004229149FFF791FF044404EB4F
:10434000C40105EB810003228D49FFF788FF044477
:104350000EB100203060FFF7CAFA2046BDE8F081B8
:1043600070B504460D4654B900BF502080F3118843
:10437000BFF34F8FBFF36F8F00BF00BFFEE77B48D7
:10438000016818312046FEF7BBF801212846FFF7E7
:104390001EFB70BD70B504460D46164654B900BFED
:1043A000502080F31188BFF34F8FBFF36F8F00BF92
:1043B00000BFFEE77348006808B1012000E000205C
:1043C00050B900BF502080F31188BFF34F8FBFF367
:1043D0006F8F00BF00BFFEE745F0004063490968EA
:1043E00088616248016818312046FEF77DF8012196
:1043F0003046FFF7ECFA70BD70B505460E46144620
:1044000055B900BF502080F31188BFF34F8FBFF321
:104410006F8F00BF00BFFEE754480168183128467F
:10442000FEF762F80CB14FF0FF3621463046FFF739
:10443000CEFA70BD70B50646F068C46854B900BFC6
:10444000502080F31188BFF34F8FBFF36F8F00BFF1
:1044500000BFFEE704F11800FEF76CF84948006859
:10446000A8B9201DFEF766F894F82C1001208840AA
:1044700045490968084344490860E16A01EB810144
:104480003B4A02EB8100211DFEF72EF804E004F107
:1044900018013E48FEF728F83449E06A0968C96AFD
:1044A000884204D9012501203949086000E000252F
:1044B000284670BD70B505460E463248006808B102
:1044C000012000E0002050B900BF502080F3118887
:1044D000BFF34F8FBFF36F8F00BF00BFFEE746F003
:1044E00000402860EC6854B900BF502080F3118868
:1044F000BFF34F8FBFF36F8F00BF00BFFEE72846AB
:10450000FEF718F8201DFEF715F894F82C1001207E
:1045100088401D49096808431B490860E16A01EBAE
:104520008101134A02EB8100211DFDF7DDFF0F49D8
:10453000E06A0968C96A884202D901201449086002
:1045400070BD10B5044654B900BF502080F31188E7
:10455000BFF34F8FBFF36F8F00BF00BFFEE719E0BF
:10456000540000204C0000204800002038000020AB
:10457000F40200203C0000204000002094030020B2
:10458000A8030020700000205000002080030020BD
:104590005C00002001F003F8FE4800682060FE483F
:1045A0000068606001F022F810BDFA4909680160F6
:1045B000F94909684160704770B505460C4655B920
:1045C00000BF502080F31188BFF34F8FBFF36F8F70
:1045D00000BF00BFFEE754B900BF502080F3118830
:1045E000BFF34F8FBFF36F8F00BF00BFFEE700F038
:1045F000D6FFE94802686868131A2068401C08B9A9
:10460000002617E0E34928680968884204D06868F2
:10461000904201D801260DE02068984207D9206811
:10462000C01A20602846FFF7C0FF002602E00020E5
:104630002060012600F0DAFF304670BD0120D74926
:1046400008607047014611B10A46506C00E0002036
:10465000704708B1024651647047D14908687047F5
:10466000D049096809B9012005E0CF49096809B9AD
:10467000022000E00020704770B505462C46002659
:10468000002D54D0C649E06A0968C96A884247D2F9
:10469000A06900F0004028B9C1480068C06AC0F1B4
:1046A0000500A061E16A01EB8101C04A02EB8101D2
:1046B0006069884201D1012000E0002050B3201D34
:1046C000FDF738FF78B9E06A00EB8000B74951F890
:1046D000200040B994F82C1001208840B4490968A2
:1046E0008143B3480160AE480068C06AE06294F854
:1046F0002C1001208840AE4909680843AC49086085
:10470000E16A01EB8101A94A02EB8100211DFDF75D
:10471000EBFE03E0A2480068C06AE062012606E002
:104720009F49A06C0968C96A884200D201263046B8
:1047300070BD70B505462C460026002D55D0984812
:104740000068844201D1012000E0002050B900BF80
:10475000502080F31188BFF34F8FBFF36F8F00BFDE
:1047600000BFFEE7E06C50B900BF502080F3118815
:10477000BFF34F8FBFF36F8F00BF00BFFEE7E06C4A
:10478000401EE064A16CE06A88422ED0E06C60BB01
:10479000201DFDF7CFFE78B9E06A00EB8000834969
:1047A00051F8200040B994F82C100120884080492D
:1047B000096881437E480160A06CE062E06AC0F154
:1047C0000500A06194F82C10012088407849096800
:1047D000084377490860E16A01EB8101734A02EB03
:1047E0008100211DFDF780FE0126304670BD2DE9B8
:1047F000F04706460F4634464FF00109002E67D0B9
:10480000E06C50B900BF502080F31188BFF34F8F88
:10481000BFF36F8F00BF00BFFEE7A06CB84201D2AC
:104820003D4600E0A56CE06AA84251D0E06C01284A
:104830004ED15B480068844201D0012000E0002096
:1048400050B900BF502080F31188BFF34F8FBFF3E2
:104850006F8F00BF00BFFEE7D4F82C80E562A0692F
:1048600000F0004010B9C5F10500A06108EB880117
:104870004E4A02EB81016069884201D1012000E0CB
:10488000002028B3201DFDF755FE78B9E06A00EB43
:104890008000464951F8200040B994F82C100120BE
:1048A00088404349096881434148016094F82C10CD
:1048B000012088403E49096808433D490860E16A93
:1048C00001EB8101394A02EB8100211DFDF70CFE4D
:1048D000BDE8F08732490968886931490968C96AC1
:1048E000C1F105012E4A1268916170472C48006899
:1048F00030B12B49096801F14C00C96C491C0160B9
:1049000027480068704770B506460D4600F047FE20
:1049100023480068006D88B901202149096881F8A1
:1049200054005DB101212846FFF751F84FF0805047
:1049300020490860BFF34F8FBFF36F8F00F056FE22
:1049400000F02DFE16480068046D4CB126B1002021
:1049500013490968086503E0601E11490968086584
:1049600000200F49096881F8540000F03FFE2046FE
:1049700070BD2DE9F0410746884614461D4600F0FB
:104980000EFE0748006890F8540002282BD0044916
:10499000096811E0600000204C0000205C0000204D
:1049A000380000205400002070000020F402002095
:1049B0005000002004ED00E001F15000096DB94302
:1049C00001600120F549096881F854005DB10121B9
:1049D0002846FEF7FCFF4FF08050F1490860BFF316
:1049E0004F8FBFF36F8F00F001FE00F0D8FD1CB1B8
:1049F000EA480068006D2060E848006890F85400BC
:104A0000022801D0002608E0E449096801F15000BD
:104A1000096D21EA0801016001260020DF490968CB
:104A200081F8540000F0E2FD3046BDE8F0812DE948
:104A3000F04706460D46174698464FF0010A56B90C
:104A400000BF502080F31188BFF34F8FBFF36F8FEB
:104A500000BF00BFFEE7344600F0A1FDB8F1000F33
:104A600002D0206DC8F8000094F85490022084F819
:104A70005400052F17D2DFE807F01503070B0D00D0
:104A8000206D2843206521E0206D401C20651DE03D
:104A900025651BE0B9F1020F01D0256501E04FF05B
:104AA000000A13E012E0206D401C08B9012000E06C
:104AB000002050B900BF502080F31188BFF34F8F02
:104AC000BFF36F8F00BF00BFFEE700BF00BFB9F1AB
:104AD000010F33D1201DFDF72DFD94F82C1001207E
:104AE0008840B04909680843AE490860E16A01EBB3
:104AF0008101AD4A02EB8100211DFDF7F5FCA06AA2
:104B000008B9012000E0002050B900BF502080F318
:104B10001188BFF34F8FBFF36F8F00BF00BFFEE759
:104B20009E49E06A0968C96A884207D94FF08050F7
:104B30009B490860BFF34F8FBFF36F8F00F056FDA6
:104B40005046BDE8F0872DE9F84F07460E469046DF
:104B50009946DDF828B00120009057B900BF5020D9
:104B600080F31188BFF34F8FBFF36F8F00BF00BF7B
:104B7000FEE700F06FFD3C4600BF5021EFF31180CF
:104B800081F31188BFF34F8FBFF36F8F00BF0546CE
:104B9000B9F1000F02D0206DC9F8000094F854A0BC
:104BA000022084F85400B8F1050F17D2DFE808F0AE
:104BB0001503070B0D00206D3043206521E0206DAB
:104BC000401C20651DE026651BE0BAF1020F01D0F4
:104BD000266501E00020009013E012E0206D401CEB
:104BE00008B9012000E0002050B900BF502080F338
:104BF0001188BFF34F8FBFF36F8F00BF00BFFEE779
:104C000000BF00BFBAF1010F3DD1A06A08B9012071
:104C100000E0002050B900BF502080F31188BFF39E
:104C20004F8FBFF36F8F00BF00BFFEE75F48006884
:104C3000A8B9201DFDF77EFC94F82C1001208840B7
:104C400058490968084357490860E16A01EB810146
:104C5000554A02EB8100211DFDF746FC04E004F1FA
:104C600018015348FDF740FC4C49E06A0968C96ADD
:104C7000884208D9BBF1000F02D00120CBF8000018
:104C800001204C49086000BF85F3118800BF0098DF
:104C9000BDE8F88F2DE9F04105460F4655B900BF34
:104CA000502080F31188BFF34F8FBFF36F8F00BF89
:104CB00000BFFEE700F0CEFC2C4600BF5021EFF312
:104CC000118081F31188BFF34F8FBFF36F8F00BF47
:104CD000064694F85480022084F85400206D401C4D
:104CE0002065B8F1010F3AD1A06A08B9012000E0AF
:104CF000002050B900BF502080F31188BFF34F8FC0
:104D0000BFF36F8F00BF00BFFEE728480068A8B957
:104D1000201DFDF70FFC94F82C100120884021493C
:104D2000096808431F490860E16A01EB81011E4AD6
:104D300002EB8100211DFDF7D7FB04E004F118010F
:104D40001B48FDF7D1FB1549E06A0968C96A88422A
:104D500005D90FB10120386001201649086000BF55
:104D600086F3118800BFBDE8F08170B5054615B91E
:104D70000A48006800E02846064600F010FC96F855
:104D80005400022804D1002086F85400012400E0D9
:104D9000002400F02BFC204670BD000038000020ED
:104DA00004ED00E050000020F4020020700000201C
:104DB000800300205C0000202DE9F04104460D46F0
:104DC00016461F464FF0000865602461B5420CD8B6
:104DD000F01BA169884202D34FF0010811E0211DA8
:104DE000F7480068FDF78CFB0BE0BE4204D2BD42E1
:104DF00002D34FF0010804E0211DF2480068FDF7DE
:104E00007FFB4046BDE8F0812DE9FE4304460D4698
:104E100016461F46DDF828804FF0000954B900BF40
:104E2000502080F31188BFF34F8FBFF36F8F00BF07
:104E300000BFFEE7E448006810B3009501960294B5
:104E4000062D15DAFFF70CFC022808D10023424694
:104E50006946DD480068FDF799FC814610E00023B3
:104E60001A466946D8480068FDF790FC814607E07D
:104E700000233A466946D4480068FDF7E5FE8146BE
:104E80004846BDE8FE832DE9F84332E0CD4800688E
:104E9000C0680568CB480068C068C468201DFDF77D
:104EA00049FB2046616A8847E069012821D1A06951
:104EB0004619AE4207D966602461211DC1480068C9
:104EC000FDF71EFB15E0002003462A460146009030
:104ED0002046FFF799FF074657B900BF502080F3DF
:104EE0001188BFF34F8FBFF36F8F00BF00BFFEE786
:104EF00000BFB4480068006808B9012000E0002045
:104F00000028C3D0AF48D0F80080AD480068AD4954
:104F10000860AB48C0F80080BDE8F88370B504466F
:104F2000FFF72FF90546A9480068854204D2FFF72C
:104F3000AAFF0120206001E000202060A348056056
:104F4000284670BD70B586B06AE00398002867DB1C
:104F5000059C606908B9012000E0002010B9201DFF
:104F6000FDF7E8FA02A8FFF7D9FF054603980A28DB
:104F700054D2DFE800F009050731334F0608323418
:104F800000BF00BF00BF00BF0498A269811803469C
:104F90002A462046FFF710FFE8B12046616A88479D
:104FA000E069012817D1002000900498A1694218F7
:104FB000002319462046FFF727FF064656B900BFD3
:104FC000502080F31188BFF34F8FBFF36F8F00BF66
:104FD00000BFFEE700BF22E000BF20E000BF049852
:104FE000A061A06908B1012000E0002050B900BF15
:104FF000502080F31188BFF34F8FBFF36F8F00BF36
:1050000000BFFEE7A06941192B462A462046FFF75C
:10501000D3FE04E0204600F05AFC00E000BF00BFD1
:10502000002203A968480068FDF70FFF00288CD113
:1050300006B070BDF8B505460F4662480068C06806
:10504000C468201DFDF776FAE06901281DD1A0692A
:1050500041192B463A462046FFF7AEFEA8B1002084
:1050600003462A46014600902046FFF7CDFE06463D
:1050700056B900BF502080F31188BFF34F8FBFF3A4
:105080006F8F00BF00BFFEE700BF2046616A884700
:10509000F8BDF8B505460C46FEF7D7FC6846FFF7A5
:1050A0003DFF0646009820BB44B9B54206D8FEF73E
:1050B0001EFC31462846FFF7BDFF1CE03CB14048CE
:1050C0000068006808B9012000E000200446A91B20
:1050D00022463D480068FEF7A6F9FEF708FC50B9E5
:1050E0004FF080503A490860BFF34F8FBFF36F8F86
:1050F00001E0FEF7FCFBF8BD0146324A1268126877
:105100000AB9012200E000220A600A6822B92D4A89
:105110001268D268106800E00020704708B500BF30
:105120006846FFF7E9FF044620460099FFF7B1FF04
:10513000FFF708FFF4E710B500F031FA22480068E5
:10514000D0B92448FDF7C0F92348FDF7BDF921483F
:105150001C49086020481A49086000220C210A20D6
:10516000FDF75AFA184908600846006820B11BA1EB
:1051700015480068FEF731F900F038FA10BD1CB58B
:105180000024FFF7D8FF1048006858B115480221E5
:1051900000234FF48272CDE9001013A11448FEF7EA
:1051A00040FA044654B900BF502080F31188BFF381
:1051B0004F8FBFF36F8F00BF00BFFEE720461CBDBF
:1051C00078000020740000207C0000208400002073
:1051D00004ED00E0BC030020D0030020546D7251A8
:1051E0000000000080000020546D722053766300A0
:1051F0001D5100082DE9F04706460D461746984612
:10520000DDE908940DB1012000E0002050B900BF95
:10521000502080F31188BFF34F8FBFF36F8F00BF13
:1052200000BFFEE75CB1FFF786FF2660A561E7617E
:10523000C4F82080C4F82490201DFDF752F9BDE881
:10524000F0872DE9FC4705460E4617469846DDF8DF
:1052500028902C2000F0A7FA04463CB143463A4679
:1052600031462846CDE90094FFF7C4FF2046BDE84B
:10527000FC874B48006808B1012000E0002050B9CD
:1052800000BF502080F31188BFF34F8FBFF36F8FA3
:1052900000BF00BFFEE742480068704701460A466B
:1052A00051B900BF502080F31188BFF34F8FBFF377
:1052B0006F8F00BF00BFFEE79069704710B50146D1
:1052C0000A4651B900BF502383F31188BFF34F8FB3
:1052D000BFF36F8F00BF00BFFEE7506810BD0146EF
:1052E0000A4651B900BF502080F31188BFF34F8F99
:1052F000BFF36F8F00BF00BFFEE71068704770B547
:105300000446264654B900BF502080F31188BFF3ED
:105310004F8FBFF36F8F00BF00BFFEE700F03FF974
:10532000706908B9012000E00020012801D10025A2
:1053300000E0012500F05AF9284670BD70B504461A
:10534000254654B900BF502080F31188BFF34F8F1A
:10535000BFF36F8F00BF00BFFEE700F020F92E6A99
:1053600000F044F9304670BD70B504460D4626463F
:1053700054B900BF502080F31188BFF34F8FBFF3A3
:105380006F8F00BF00BFFEE700F009F9356200F043
:105390002DF970BD0146886A704781627047000030
:1053A00080000020C6480068401C08B9012000E0C9
:1053B000002050B900BF502080F31188BFF34F8FF9
:1053C000BFF36F8F00BF00BFFEE700BF502080F328
:1053D0001188BFF34F8FBFF36F8F00BF00BFFEE791
:1053E000001F4FF080730360001F21F00103036072
:1053F000001FB44B036014380260001F6FF00203FB
:1054000003602038704700204FF0E0210861886178
:10541000AD4800684FF47A71B0FBF1F0401E4FF0D8
:10542000E02148610720086170471CB5A748006863
:10543000A749884201D0012000E0002050B900BFF8
:10544000502080F31188BFF34F8FBFF36F8F00BFE1
:1054500000BFFEE79D4800689D49491E884201D073
:10546000012000E0002050B900BF502080F31188D7
:10547000BFF34F8FBFF36F8F00BF00BFFEE79549AB
:10548000084600780190FF200A4610700846007810
:1054900000909DF8000000F0F0009DF80020904280
:1054A00001D1012000E0002050B900BF502080F35E
:1054B0001188BFF34F8FBFF36F8F00BF00BFFEE7B0
:1054C0009DF8000000F05000834A10700720834AC6
:1054D000106009E081480068401E804A10609DF815
:1054E00000004006000E00909DF8000000F08000D3
:1054F0008028EFD079480068C0F10700042801D166
:10550000012000E0002050B900BF502080F3118836
:10551000BFF34F8FBFF36F8F00BF00BFFEE76F4831
:10552000006800026D4A10601046008800F4E060D8
:105530001060684A0198107064482030006840F498
:1055400070006249203108600846006840F07040F1
:105550000860FFF758FF002059490860FAF7B0FECD
:105560005F48006840F040405D490860FAF794FEEB
:1055700000201CBD52480068B0F57A7F01D101209F
:1055800000E0002050B900BF502080F31188BFF325
:105590004F8FBFF36F8F00BF00BFFEE7704700BFA4
:1055A000502080F31188BFF34F8FBFF36F8F00BF80
:1055B00043480068401C42490860084600680128CA
:1055C00013D14248001D0068C0B208B9012000E0B4
:1055D000002050B900BF502080F31188BFF34F8FD7
:1055E000BFF36F8F00BF00BFFEE77047344800680D
:1055F00050B900BF502080F31188BFF34F8FBFF325
:105600006F8F00BF00BFFEE72D480068401E2C4989
:1056100008600846006820B9002080F3118800BFA8
:1056200000BF704710B500BF502080F31188BFF352
:105630004F8FBFF36F8F00BFFEF7A6F820B14FF07A
:1056400080502249091D086000BF002080F31188A6
:1056500000BF10BD70B5FAF76BFE0446102C16D3D0
:1056600004F1E02090F8F0531B480078854201DBFC
:10567000012000E0002050B900BF502080F31188C5
:10568000BFF34F8FBFF36F8F00BF00BFFEE70F4820
:105690000C30006800F4E06010490968884201D8C5
:1056A000012000E0002050B900BF502080F3118895
:1056B000BFF34F8FBFF36F8F00BF00BFFEE770BD1A
:1056C00088000020A55300081000002000ED00E035
:1056D00071C20F4100E400E08C0000209000002027
:1056E00034EF00E010B501469F4800E00068036811
:1056F0008B42FBD30246436813448B4204D1436878
:105700004C682344436001460A464B6813440468CE
:10571000A34211D1954C03682468A34208D04B687A
:105720000468646823444B6003681B680B6005E0F1
:105730008E4B1B680B6001E003680B60884200D051
:10574000016010BD30B54FF49633894800F007046E
:105750002CB1C01D20F00700854C041B1B1B02460A
:10576000814C22600024804D6C60D018083820F0F5
:1057700007007E4C206000247C4D2D686C607B4DC2
:105780002D682C601146441A4C60784C24680C60DB
:10579000784D4C682C60784D4C682C604FF000447C
:1057A000764D2C6030BD2DE9F04104464FF00008E5
:1057B000FEF74BF96D48006808B9FFF7C3FF6F4863
:1057C0000068204000286BD1D4B1083404F00700F1
:1057D000B0B104F00700C0F10800044404F0070071
:1057E00008B9012000E0002050B900BF502080F32C
:1057F0001188BFF34F8FBFF36F8F00BF00BFFEE76D
:10580000002C4DD05C480068844249D8564E304642
:10581000056801E02E462D686868A04202D228681B
:105820000028F7D151480068854239D0306800F12E
:105830000808286830606868001B102819D92F19DB
:1058400007F0070008B9012000E0002050B900BFB0
:10585000502080F31188BFF34F8FBFF36F8F00BFCD
:1058600000BFFEE76868001B78606C603846FFF791
:1058700039FF414968680968081A3F4908600846C5
:1058800000683C490968884203D23B4800683949AE
:1058900008603A4968680968084368600020286021
:1058A000FEF725F808F0070008B9012000E0002005
:1058B00050B900BF502080F31188BFF34F8FBFF362
:1058C0006F8F00BF00BFFEE74046BDE8F08170B5B6
:1058D00006463546002E3FD0083D2C4627496068D5
:1058E0000968084008B1012000E0002050B900BF5D
:1058F000502080F31188BFF34F8FBFF36F8F00BF2D
:1059000000BFFEE7206808B9012000E0002050B980
:1059100000BF502080F31188BFF34F8FBFF36F8F0C
:1059200000BF00BFFEE7154960680968084098B1EC
:10593000206888B911496068096888436060FEF78B
:1059400084F80D496068096808440B4908602046DE
:10595000FFF7C8FEFDF7CBFF70BD07480068704732
:105960000448006870477047940000209C000020A5
:10597000E4030020A4000020A0000020A8000020D4
:1059800000200C4908700120704701460120094A97
:105990001070094801700120704701460020054A37
:1059A000127832B1044A12780A700022014B1A7040
:1059B00001207047AD000020AC00002070B5054606
:1059C0000C465DB1012240F225516348FBF719FDF9
:1059D0004FF480716148FAF7FBFF0AE0002240F2C1
:1059E00025515D48FBF70DFD4FF480715B48FAF7D8
:1059F000EDFF34B1012240F226615748FBF701FD6B
:105A000005E0002240F226615348FBF7FAFC70BD26
:105A1000F0B587B005460C4616461F4601210846DC
:105A2000FBF7F6F901211020FBF74CFA07220921B8
:105A30004B48FAF7DAFF07220A214948FAF7D5FF5F
:105A40004FF4C060059002208DF8180003208DF8F7
:105A5000190000208DF81A0001208DF81B0005A9FF
:105A60003F48FAF737FF01940020ADF80800ADF881
:105A70000A00ADF80C00ADF810000C20ADF80E00D7
:105A800001A93548FBF77FFB01213348FBF703FCF5
:105A90004FF4C060FAF728FE25208DF800000020A2
:105AA0008DF8010001208DF802008DF80300684692
:105AB000FAF71FFE01214020FBF7AAF94FF480708E
:105AC000059001208DF8180000208DF81A000320A1
:105AD0008DF8190001208DF81B0005A91F48FAF761
