:020000040800F2
:10000000883A0120E9070008C5050008C70500086F
:10001000CB050008CF050008D3050008000000004C
:10002000000000000000000000000000790200084D
:10003000D705000800000000D5020008F9280008D4
:100040000308000803080008030800080308000864
:100050000308000803080008030800080308000854
:100060000308000803080008030800080308000844
:100070000308000803080008030800080308000834
:100080000308000803080008030800080308000824
:10009000030800080308000803080008032F0008ED
:1000A0000308000803080008030800080308000804
:1000B00003080008776F00081530000803080008DF
:1000C00003080008030800080308000803080008E4
:1000D00003080008636E000803080008030800080E
:1000E000212E00080308000803080008F730000864
:1000F0009D360008030800080308000803080008EC
:100100000308000803080008353700080308000842
:100110000308000803080008030800080308000893
:100120000308000803080008030800080308000883
:100130000308000803080008030800080308000873
:100140000308000803080008030800080308000863
:100150000308000803080008030800080308000853
:100160000308000803080008030800080308000843
:100170000308000803080008030800080308000833
:10018000030800080308000800F002F800F05CF81B
:100190000AA090E8000C82448344AAF10107DA45E2
:1001A00001D100F051F8AFF2090EBAE80F0013F0D8
:1001B000010F18BFFB1A43F001031847909100008C
:1001C000B09100000A444FF0000C10F8013B13F00E
:1001D000070408BF10F8014B1D1108BF10F8015BA0
:1001E000641E05D010F8016B641E01F8016BF9D193
:1001F00013F0080F1EBF10F8014BAD1C0C1B09D1EA
:100200006D1E58BF01F801CBFAD505E014F8016B5B
:1002100001F8016B6D1EF9D59142D6D370470000ED
:100220000023002400250026103A28BF78C1FBD8FF
:10023000520728BF30C148BF0B6070471FB508F098
:100240001EFF1FBD10B510BD08F0B9FC1146FFF729
:10025000F5FF00F060F908F0D7FC03B4FFF7F2FFF8
:1002600003BC08F077FC000030BF72B6704762B67E
:10027000704780F3088870472C4B19680868B0E80D
:10028000F04F80F30988BFF36F8F4FF0000080F3C9
:10029000118870470000000008480068006880F37B
:1002A00008884FF0000080F3148862B661B6BFF38F
:1002B0004F8FBFF36F8F00DF00BF00BF08ED00E07E
:1002C000DFF80C00016841F470010160704700BF65
:1002D00088ED00E0EFF30980BFF36F8F134B1A68CE
:1002E0001EF0100F08BF20ED108A20E9F04F1060BB
:1002F00009B44FF0500080F31188BFF34F8FBFF364
:100300006F8F04F009FF4FF0000080F3118809BCE3
:1003100019680868B0E8F04F1EF0100F08BFB0EC85
:10032000108A80F30988BFF36F8F70476400002044
:10033000EFF305807047000008B500204FF49643A6
:1003400001220A21009006F027FE06F0E9FE07E0F0
:1003500006F00BFF01207E498861322004F0A3FDE6
:10036000F6E78AB000BF00BF684608F0D2FA0398EB
:1003700080470A20764908605AE07548007A40B202
:100380008DF803007248406D08B1012000E00020A4
:100390008DF802006E4890F858008DF801006C4806
:1003A000C06D02906A48406A012801D106988047D2
:1003B0006748C06801281DD1049880479DF8020055
:1003C00028B99DF90310079A029890471AE09DF802
:1003D0000200012816D19DF801209DF803300BB1D1
:1003E000012300E00023194609AB089C0298A047AE
:1003F000099007E05648C06820B99DF90310002015
:10040000079A90479DF82400514908649DF82400FC
:1004100050490978884205D09DF824004E49097852
:10042000884202D101204D490860642004F03BFD60
:10043000A3E72DED088B03F09BF941E01421052083
:1004400003F0EAF9044600EE104AB8EE400A10EE56
:10045000100A08F0A3FD41EC1B0B9FED410B53EC80
:10046000102B08F09DFC41EC1A0B9FED3F0B53EC59
:10047000102B08F095FC41EC190B08F007FC08EE76
:10048000100ABCEEC80A10EE100A84B230480465A7
:1004900045F6CC30844208DA3548007840F0010057
:1004A0003349087008F02DFA07E03148007800F071
:1004B000FE002F49087008F028FA322004F0F3FCFF
:1004C000BCE71CB5044606F02EFA2A480421002396
:1004D0008A01CDE9001028A12A4804F066FA2A48CA
:1004E000052100234FF48072CDE9001027A12A488E
:1004F00004F05BFA294802210023CA01CDE900106B
:1005000027A12A4804F051FA2948006804F09BFA10
:1005100006F030FA1CBD1CB54FF4407000F084F9B1
:10052000A82002F0F1F902F05DFA21480121002330
:100530008022CDE900101FA1214804F036FA04F012
:1005400074FF00201CBD02E0642004F0ACFCFBE75B
:10055000F0300120969200089A920008A48242424C
:100560006666666666664A3F000000000070C74027
:10057000150000200C0000204144435F7461736B40
:10058000000000003304000810000020526F626F6A
:10059000745F7461736B0000630300080400002043
:1005A0004D6F646275735F7461736B00390300088B
:1005B0000000002073746172745F7461736B0000DB
:1005C000C3040008704700BFFEE700BFFEE700BF9E
:1005D000FEE700BFFEE770470CB5002001900090D9
:1005E0007648006840F480307449086000BF734862
:1005F000006800F4003000900198401C01900098C1
:1006000018B90198B0F5A04FF1D16C48006800F41A
:10061000003010B10120009001E00020009000980F
:10062000012846D165484030006840F08050634959
:10063000403108606248006840F44040604908600A
:100640005E48083000685D49083108600846006867
:1006500040F4004008600846006840F4A05008607C
:100660005848091F0860081F006840F08070091F83
:10067000086000BF5148006800F000700028F9D001
:1006800040F20570504908604C480830006820F07E
:1006900003004A49083108600846006840F002003B
:1006A000086000BF45480830006800F00C000828CA
:1006B000F8D10CBD10B54548006840F470004349BE
:1006C00008603E48006840F001003C490860002096
:1006D0003A4908310860394800683D4908403749BF
:1006E00008603C48091D0860081F006820F480204D
:1006F000091F0860002031490C310860FFF76CFFCA
:100700004FF0006031498039086010BD70B500209D
:100710000022022300240221284D08352D6805F00F
:100720000C0020B1042806D0082834D107E02A4D57
:100730002A4E356033E02A4D284E35602FE01F4D9C
:100740002D1D2D68C5F380541C4D2D1D2D6805F001
:100750003F0154B1224DB5FBF1F5184E361D3668F8
:10076000C6F3881605FB06F209E01B4DB5FBF1F553
:10077000124E361D3668C6F3881605FB06F20F4D7D
:100780002D1D2D68C5F301456D1C6B00B2FBF3F503
:10079000124E356003E0104D104E356000BF00BFB3
:1007A000064D08352D68C5F303150E4E705D0B4DD3
:1007B0002D68C540094E356070BD0000003802400C
:1007C0000070004008544007003C024088ED00E003
:1007D000FFFFF6FE103000240024F4001800002073
:1007E00000127A001C000020094880470948004791
:1007F000FEE7FEE7FEE7FEE7FEE7FEE7FEE7FEE7D1
:10080000FEE7FEE704480549054A064B704700002D
:10081000B50600088901000888340120883A0120C3
:10082000883601208836012032490143324A11605E
:10083000704770B5002100230F22C4781CB32E4CE2
:10084000246804F4E064C4F5E064C4F30721C1F152
:100850000404E3B20A4144789C40E1B28478144035
:1008600021430C07210E254C05786155047804F0CE
:100870001F050124AC4005786D11AD0005F1E025A0
:10088000C5F8004109E0047804F01F050124AC40DC
:100890001B4D0678761145F8264070BD194A0A406E
:1008A0000243154B1B1F1A60704739B1124A121DC3
:1008B00012680243104B1B1D1A6006E00E4A121DFF
:1008C000126882430C4B1B1D1A607047042808D124
:1008D0004FF0E021096941F004014FF0E02211617D
:1008E00007E04FF0E021096921F004014FF0E02218
:1008F000116170470000FA050CED00E000E400E033
:1009000080E100E080FFFF1F10B504469848844254
:1009100008D10121084600F086FB0021012000F0EB
:1009200082FB76E09348844208D10121022000F046
:100930007AFB0021022000F076FB6AE08E488442B8
:1009400008D10121042000F06EFB0021042000F0FA
:100950006AFB5EE08948844208D10121082000F04A
:1009600062FB0021082000F05EFB52E084488442D4
:1009700008D10121102000F056FB0021102000F0CA
:1009800052FB46E07F48844208D10121202000F03C
:100990004AFB0021202000F046FB3AE07A488442DE
:1009A00008D10121402000F03EFB0021402000F052
:1009B0003AFB2EE07548844208D10121802000F0E6
:1009C00032FB0021802000F02EFB22E070488442A0
:1009D00008D10121801500F026FB0021A01500F0B0
:1009E00022FB16E06B48844208D10121401500F03B
:1009F0001AFB0021601500F016FB0AE066488442ED
:100A000007D10121001500F00EFB0021201500F098
:100A10000AFB10BDF0B50A4600210023002400BFE8
:100A20003DE0012505FA01F3156805EA03049C423F
:100A300034D105684F000326BE40B54305601579E3
:100A40004E00B5400668354305601579012D02D08A
:100A50001579022D16D185684F000326BE40B54397
:100A6000856055794E00B540866835438560456898
:100A700001268E40B5434560456896798E40B6B2F2
:100A800035434560C5684F000326BE40B543C56089
:100A9000D5794E00B540C6683543C560491C10295C
:100AA000BFD3F0BD4FF6FF710160002101714171AC
:100AB0008171C171704708B54FF480320092009A7D
:100AC0000A430092009AC261C161009AC261C26980
:100AD0000092C269009208BD0246002013690B40D3
:100AE0000BB1012000E0002070470146086980B288
:100AF00070470246002053690B400BB1012000E013
:100B0000002070470146486980B2704701837047F2
:100B1000418370470AB1018300E04183704741611E
:100B2000704742694A4042617047F0B50023002493
:100B30004D07ED0E02FA05F3CE1000F1200555F831
:100B400026504E07F70E0F26BE40B543CF1000F1DA
:100B5000200646F82750CE1000F1200555F8265003
:100B600045EA0304CE1000F1200545F82640F0BD0B
:100B7000000002400004024000080240000C024055
:100B8000001002400014024000180240001C024005
:100B9000002002400024024000280240F94800687A
:100BA00040F00100F74908600020F649083108606C
:100BB000F4480068F4490840F2490860F348091D08
:100BC0000860F348EF4984310860F0481038091D87
:100BD0000860EC48006820F48020EA4908600020A2
:100BE000E8490C310860E7498C3108607047002102
:100BF000E44A921C117011460870704710B5014606
:100C00000022002300204A11012A02D1DD4C236872
:100C100008E0022A03D1DB4C7034236802E0D94C8F
:100C20007434236801F01F02012494401C400CB16D
:100C3000012000E0002010BD38B500200090002405
:100C4000002500BF3120FFF7D9FF05460098401C62
:100C500000900098B0F5A04F01D0002DF2D03120C7
:100C6000FFF7CCFF08B1012400E00024204638BD86
:100C700001460020C34A106820F0F80040EAC10095
:100C800010607047C349086070470021BD4A703248
:100C900011701170012802D004280AD104E001214A
:100CA000B84A7032117005E00521B64A70321170F1
:100CB00000E000BF00BF7047B7490860704770B5DB
:100CC000049C41EA82150126C6EB530645EA064517
:100CD000054345EA0465AB4E361D356070BDAD4930
:100CE00008667047820142EA0172A64B84331A609B
:100CF0007047A8498866704710B5830143EA0163CD
:100D000043EA02739F4C8834236010BDA1490867F1
:100D10007047A049C864704702460020994B0833C9
:100D2000186820F0EC6042EA01031843954B083341
:100D30001860704702460020924B0833186820F074
:100D4000784042EA010318438E4B0833186070471D
:100D5000014600208B4A0832106820F00300084347
:100D60001060704787480830006800F00C0070473A
:100D700001460020834A0832106820F0F000084342
:100D800010607047014600207E4A0832106820F447
:100D9000E05008431060704701460020794A08324D
:100DA000106820F4604040EAC10010607047F0B560
:100DB000002100220024022500260223714F08375B
:100DC0003F6807F00C0121B1042905D0082937D16B
:100DD00005E0724F076036E0714F076033E0694FFE
:100DE0003F1D3F68C7F38056664F3F1D3F6807F0C1
:100DF0003F036EB16A4FB7FBF3F7DFF888C10CF120
:100E0000040CDCF800C0CCF3881C07FB0CF40CE0ED
:100E1000624FB7FBF3F7DFF86CC10CF1040CDCF8A0
:100E200000C0CCF3881C07FB0CF4564F3F1D3F68F5
:100E3000C7F301477F1C7D00B4FBF5F7076002E0B4
:100E4000564F076000BF00BF4E4F08373F6807F09E
:100E5000F0010909534F7A5C0768D7404760494F52
:100E600008373F6807F4E051890A4E4F7A5C4768BB
:100E7000D7408760434F08373F6807F46041490B0C
:100E8000484F7A5C4768D740C760F0BD002100F446
:100E90004072B2F5407F0AD13A4A0832116821F413
:100EA000F811414A02401143364A08321160354A6E
:100EB00070321268C0F30B031A43324B70331A605E
:100EC00070473549443908607047334940390860F4
:100ED000704736490860704701460020294A8C3225
:100EE000106820F01F004A1E1043264A8C32106002
:100EF000704701460020234A8C32106820F4F850D5
:100F00004A1E40EA02201F4A8C3210607047014698
:100F100000201C4A8C32106820F4401008431060F6
:100F2000704701460020174A8C32106820F44000B8
:100F300008431060704701460020124A8C32106846
:100F400020F440300843106070471949086070472A
:100F500039B10C4A3032126802430A4B30331A60FE
:100F600006E0084A303212688243064B30331A607A
:100F70007047F9B1034A343212680243014B3433EB
:100F80001A601CE000380240FFFFF6EA103000242F
:100F90000030002000004742800E47420024F40049
:100FA00000127A002C000020FFFCFF0F5C0147427A
:100FB000E01147428F4A126882438E4B1A60704795
:100FC00039B18C4A121D126802438A4B1B1D1A60EC
:100FD00006E0884A121D12688243864B1B1D1A6068
:100FE000704739B1834A0C3212680243814B0C338B
:100FF0001A6006E07F4A0C32126882437D4B0C3344
:101000001A60704739B17B4A103212680243794B3B
:1010100010331A6006E0774A103212688243754B2B
:1010200010331A60704739B1724A243A1268024389
:10103000704B243B1A6006E06E4A243A12688243E1
:101040006C4B243B1A60704739B16A4A203A1268E7
:101050000243684B203B1A6006E0664A203A126859
:101060008243644B203B1A60704739B1614A1C3A95
:10107000126802435F4B1C3B1A6006E05D4A1C3A53
:10108000126882435B4B1C3B1A60704739B1594A66
:10109000143A12680243574B143B1A6006E0554A53
:1010A000143A12688243534B143B1A60704739B1AB
:1010B000504A103A126802434E4B103B1A6006E049
:1010C0004C4A103A126882434A4B103B1A607047F0
:1010D00039B1484A1C3212680243464B1C331A602D
:1010E00006E0444A1C3212688243424B1C331A60A9
:1010F000704739B13F4A2032126802433D4B2033DA
:101100001A6006E03B4A203212688243394B203392
:101110001A60704739B1374A243212680243354B9E
:1011200024331A6006E0334A243212688243314B7A
:1011300024331A60704739B12E4A2C3212680243A8
:101140002C4B2C331A6006E02A4A2C321268824358
:10115000284B2C331A60704739B1264A3032126856
:101160000243244B30331A6006E0224A30321268C0
:101170008243204B30331A607047012808D11D4943
:101180003C31096841F008011A4A3C32116007E01D
:1011900018493C31096821F00801164A3C321160B7
:1011A000704739B1134A273A12780243114B273B53
:1011B0001A7006E00F4A273A127882430D4B273BFC
:1011C0001A7070470B484030006840F08070094941
:1011D00040310860704701460020064A283A1268EC
:1011E0000A400AB1012000E0002070470149263979
:1011F000087070473438024010B501218803FFF7AA
:1012000056FF00214FF48040FFF751FF10BD1C49ED
:10121000086070471B490862704730B500228B0791
:101220001C0F0F2303FA04F2154B08338C1053F8EC
:1012300024309343124C08348D1044F82530234653
:101240008C1053F824308C07240F00FA04F4234345
:101250000B4C08348D1044F8253030BD0949DC3181
:101260000860704708490860704700200449203131
:10127000096801F4807109B1012000E00020704785
:1012800000380140000027420004274210B5044600
:10129000FA48844208D101211020FFF708FF0021FD
:1012A0001020FFF704FF57E0F548844209D10121DF
:1012B0004804FFF7EBFE00214FF40030FFF7E6FE95
:1012C0004AE0F048844209D101218804FFF7DEFE9C
:1012D00000214FF48020FFF7D9FE3DE0EA48844228
:1012E00009D10121C804FFF7D1FE00214FF40020ED
:1012F000FFF7CCFE30E0E548844209D10121080522
:10130000FFF7C4FE00214FF48010FFF7BFFE23E07B
:10131000DF48844208D101212020FFF7C8FE0021C8
:101320002020FFF7C4FE17E0DA48844209D10121EA
:101330008807FFF7ABFE00214FF08040FFF7A6FEC5
:101340000AE0D548844207D101214005FFF79EFEFF
:1013500000216005FFF79AFE10BD2DE9FF47054605
:101360000E460024A14600BFA046B08900B100BFD0
:101370002C8A24F44054F08804432C82AC8941F236
:101380000C608443B0883189084371890843044361
:10139000AC81AC8A24F44074B0890443AC826846C2
:1013A000FFF705FDB548854202D0B948854202D114
:1013B000DDF80C9001E0DDF80890A88900F4004009
:1013C00040B109EBC90000EB091031684900B0FBDE
:1013D000F1F707E009EBC90000EB0910316889005B
:1013E000B0FBF1F76420B7FBF0F0040120096421A1
:1013F00001FB1078A88900F4004040B1322000EBD6
:10140000C800B0FBF1F000F00700044308E0322010
:1014100000EB08106421B0FBF1F000F00F00044372
:101420002C81BDE8FF874FF41651016000218180B7
:10143000C18001810C21418100218181704710B55B
:1014400002460020108A20F470600B884C882343E9
:101450008C882343CC8823431843108210BD00217D
:10146000018041808180C180704721B1828942F42E
:101470000052828104E082894DF6FF731A40828116
:101480007047028B02F47F420283028B0A4302837D
:10149000704721B1828942F40042828103E082894F
:1014A000C2F30E028281704721B1828A42F4006247
:1014B000828204E0828A4FF2FF731A408282704770
:1014C000C1F308028280704701468888C0F3080093
:1014D0007047028A4FF6F0731A400282028A0A436A
:1014E0000282704721B1828942F00202828104E0C7
:1014F00082894FF6FD731A408281704782894FF2CC
:10150000FF731A40828182890A4382817047028A6E
:101510004FF6DF731A400282028A0A430282704742
:1015200021B1028A42F48042028204E0028A4BF630
:10153000FF731A4002827047818941F00101818165
:10154000704721B1828A42F00802828204E0828AD6
:101550004FF6F7731A4082827047028BD2B2028331
:10156000028B42EA01220283704721B1828A42F053
:101570002002828204E0828A4FF6DF731A40828260
:10158000704721B1828A42F01002828204E0828A8E
:101590004FF6EF731A4082827047828A4FF6FB73D0
:1015A0001A408282828A0A438282704721B1828AEB
:1015B00042F00202828204E0828A4FF6FD731A40F2
:1015C000828270471AB1838A0B43838202E0838A46
:1015D0008B4383827047F0B5034600240026002524
:1015E000002040F66A17B94200D100BF1846C1F387
:1015F000421401F01F06012707FA06F5012C01D15C
:101600000C3004E0022C01D1103000E014301AB18B
:1016100007682F43076002E00768AF430760F0BD2B
:1016200002460020B1F5007F00D100BF13880B40B7
:101630000BB1012000E00020704701F40072B2F508
:10164000007F00D100BFCA430280704770B50246D8
:10165000002400230025002040F66A16B14200D184
:1016600000BFC1F3421501F01F03012606FA03F380
:10167000012D13D19689334017E00000001001407E
:101680000044004000480040004C00400050004032
:101690000014014000780040007C0040022D02D17F
:1016A000168A334001E0968A33400C12012606FA6E
:1016B00004F41688344013B10CB1012000E000207E
:1016C00070BD10B50022002340F66A14A14200D17B
:1016D00000BF0A1201249440A3B2DC43048010BD71
:1016E00010B50446FE48844208D101210846FFF7A0
:1016F000DEFC00210120FFF7DAFC9DE0B4F1804F11
:1017000008D101210846FFF7C1FC00210120FFF7A5
:10171000BDFC91E0F348844208D101210220FFF78B
:10172000B5FC00210220FFF7B1FC85E0EE488442C1
:1017300008D101210420FFF7A9FC00210420FFF7B4
:10174000A5FC79E0E948844208D101210820FFF78F
:101750009DFC00210820FFF799FC6DE0E4488442DD
:1017600008D101211020FFF791FC00211020FFF784
:101770008DFC61E0DF48844208D101212020FFF781
:1017800085FC00212020FFF781FC55E0DA488442E7
:1017900008D101210220FFF78AFC00210220FFF777
:1017A00086FC49E0D548844209D101210804FFF7AD
:1017B0007EFC00214FF48030FFF779FC3CE0D048FC
:1017C000844209D101214804FFF771FC00214FF444
:1017D0000030FFF76CFC2FE0CA48844209D1012198
:1017E0008804FFF764FC00214FF48020FFF75FFCC2
:1017F00022E0C548844208D101214020FFF746FC81
:1018000000214020FFF742FC16E0C048844208D186
:1018100001218020FFF73AFC00218020FFF736FCF1
:101820000AE0BB48844207D101218015FFF72EFC56
:101830000021A015FFF72AFC10BD00220288A84B4A
:1018400098420ED0AC4B98420BD0B0F1804F08D0EC
:10185000A44B984205D0A44B984202D0A34B984287
:1018600004D14FF68F731A404B881A43A04B98420D
:1018700007D0A04B984204D04FF6FF431A400B8983
:101880001A4302804B68C3620B880385944B9842CD
:1018900002D0994B984201D18B7A0386012383822F
:1018A00070474FF0FF31416000210180018141808C
:1018B000817270470185828270470A460021018843
:1018C0004FF68F7319401143018070474162704792
:1018D000C16270470146486A70470146088D7047EB
:1018E00021B1028842F00202028004E002884FF631
:1018F000FD731A400280704721B1028842F0040251
:10190000028004E002884FF6FB731A4002807047A1
:1019100021B1028842F08002028004E002884FF682
:101920007F731A400280704702884FF6F7731A409F
:10193000028002880A430280704702884FF6FF4304
:101940001A40028002880A430280704721B102884F
:1019500042F00102028004E002884FF6FE731A4052
:101960000280704770B5002400220023058C4FF6DA
:10197000FE7635400584028C8388048B4FF68F7584
:101980002C40B51E2C400D882C43751E2A408D8995
:101990002A434D882A43524DA84202D0564DA842B0
:1019A00013D14FF6F7752A40CD892A434FF6FB75C0
:1019B0002A408D882A434FF6FF652B404FF6FF558E
:1019C0002B400D8A2B434D8A2B43838004838D68E3
:1019D0004563028470BD70B5002400220023058C8D
:1019E0004FF6EF7635400584028C8388048B48F6E9
:1019F000FF752C404FF6FF452C400D884FF6FF76C3
:101A000006EA05252C434FF6DF752A408D8906EA44
:101A100005152A434D8806EA05152A43304DA8428C
:101A200002D0354DA8421DD14FF67F752A40CD8991
:101A30004FF6FF7606EA05152A434FF6BF752A4092
:101A40008D8806EA05152A434FF6FF352B404FF2E5
:101A5000FF752B400D8A06EA85052B434D8A06EA61
:101A600085052B43838004838D688563028470BD64
:101A700070B5002400220023058C4FF6FF66354028
:101A80000584028C8388848B4FF68F752C404FF62B
:101A9000FC752C400D882C434FF6FF552A408D894C
:101AA0004FF6FF7606EA05252A434D8806EA052506
:101AB0002A430B4DA84202D00F4DA84238D14FF215
:101AC000FF752A40CD894FF6FF7606EA05252A43A1
:101AD0004FF6FF352A408D8806EA05252A4319E08E
:101AE000000001400004004000080040000C0040DD
:101AF000001000400014004000040140004001407C
:101B0000004401400048014000180040001C004013
:101B1000002000404EF6FF752B404DF6FF752B4020
:101B20000D8A06EA05152B434D8A06EA05152B4357
:101B3000838084838D68C563028470BD70B5002284
:101B400000230024058C4EF6FF7635400584038C77
:101B50008488828B48F6FF752A404FF6FF452A405D
:101B60000D884FF6FF7606EA05252A434DF6FF75E8
:101B70002B408D8906EA05352B434D8806EA05354D
:101B80002B43FE4DA84202D0FD4DA84208D14BF692
:101B9000FF752C400D8A4FF6FF7606EA85152C431B
:101BA000848082838D680564038470BD0021018078
:101BB0004180818081608181C18101824182704741
:101BC00070B50346002000241846183001258D40CA
:101BD000ACB21D8CA5431D8409B108290AD100EBC4
:101BE000610005684FF68F7635400560056815433E
:101BF00005600FE00D1FC5F34E052844056848F643
:101C0000FF763540056005684FF6FF7606EA022646
:101C10003543056070BD4163704781637047C163A0
:101C20007047016470470A460021018B4FF68F739D
:101C300019401143018370470A460021018B48F681
:101C4000FF7319404FF6FF7303EA02231943018320
:101C500070470A460021818B4FF68F73194011435C
:101C6000818370470A460021818B48F6FF73194033
:101C70004FF6FF7303EA02231943818370470A4634
:101C80000021018B4FF6F773194011430183704710
:101C90000A460021018B4FF2FF7319404FF6FF7384
:101CA00003EA02231943018370470A460021818B0E
:101CB0004FF6F77319401143818370470A4600219C
:101CC000818B4FF2FF7319404FF6FF7303EA022333
:101CD0001943818370470A460021018B4FF6FB733D
:101CE00019401143018370470A460021018B4FF6CA
:101CF000FF3319404FF6FF7303EA022319430183B0
:101D000070470A460021818B4FF6FB73194011433F
:101D1000818370470A460021818B4FF6FF331940BB
:101D20004FF6FF7303EA02231943818370470A4683
:101D30000021018B4FF67F731940114301837047D7
:101D40000A460021018BC1F30E014FF6FF7303EA2F
:101D500002231943018370470A460021818B4FF605
:101D60007F7319401143818370470A460021818B9C
:101D7000C1F30E014FF6FF7303EA02231943818377
:101D800070470A460021018C4FF6FD73194011433C
:101D9000018470470A460021018C4FF6F773194001
:101DA0001143018470470A460021018C4FF6DF730E
:101DB00019404FF6FF7303EA021319430184704779
:101DC0000A460021018C4FF67F7319404FF6FF73CE
:101DD00003EA02131943018470470A460021018C6B
:101DE0004FF6FF5319404FF6FF7303EA02231943DE
:101DF000018470470A460021018C4FF2FF7319409D
:101E00004FF6FF7303EA02231943018470470A4621
:101E10000021018C4DF6FF7319404FF6FF7303EA62
:101E2000023319430184704730B5002301248C40EC
:101E3000A3B2048C9C430484048C02FA01F5ADB275
:101E40002C43048430BD30B5002304248C40A3B25D
:101E5000048C9C430484048C02FA01F5ADB22C433B
:101E6000048430BD828B4FF2FF331A408283828B11
:101E70004FF6FF7303EA01231A4382837047F0B5DC
:101E80000C461546002100220026078C4EF6FF7CEA
:101E900007EA0C070784818B028C4FF6FF7707EA6D
:101EA000043640F6FF4739404FF6FF7707EA05272B
:101EB00039434FF6FF7707EA0337394345F6FF7793
:101EC0003A4046F480573A4381830284F0BD828BC6
:101ED0004FF6F3731A408283828B0A4382837047E2
:101EE000F0B50C461546002100220026078C4FF65F
:101EF000FF6C07EA0C070784818B028C4FF6FF7793
:101F000007EA04264FF60C7739404FF6FF7707EAC9
:101F100003172F4339434FF2FF573A4046F4807777
:101F20003A4381830284F0BD028B4FF2FF331A40A3
:101F30000283028B4FF6FF7303EA01231A430283E5
:101F40007047F0B50C461546002100220026078C8C
:101F50004FF6EF7C07EA0C070784018B028C4FF6E3
:101F6000FF7707EA041640F6FF4739404FF6FF7740
:101F700007EA033739434FF6FF7703E000000140DB
:101F80000004014007EA052739434FF65F773A40DE
:101F900046F010073A4301830284F0BD028B4FF6EE
:101FA000F3731A400283028B0A4302837047F0B531
:101FB0000C46154600210022068C4FF6FE773E4067
:101FC0000684018B028C4FF60C7631407E1C06EAAB
:101FD00003162E4331434FF6F576324044F00106A6
:101FE000324301830284F0BD70B505460C4620885B
:101FF00050B92389A28861882846FFF7D8FFE18875
:102000002846FFF7CBFF25E0208804280AD1238942
:10201000A28861882846FFF794FFE1882846FFF7E9
:1020200083FF17E0208808280AD12389A2886188C5
:102030002846FFF755FFE1882846FFF748FF09E0EB
:102040002389A28861882846FFF719FFE18828467E
:10205000FFF708FF70BD00210180418001218180D0
:102060000021C180018170472DE9F04105460C46F1
:1020700000260127608808B9022600E00026A08813
:10208000012801D1022700E001272088A0B9238977
:10209000A28861882846FFF78AFFE1882846FFF773
:1020A0007DFF23893A4631462846FFF74AFFE188FB
:1020B0002846FFF739FF13E02389A2886188284664
:1020C000FFF73FFFE1882846FFF72EFF23893A46B6
:1020D00031462846FFF76BFFE1882846FFF75EFF91
:1020E000BDE8F0810146486B70470146886B704738
:1020F0000146C86B70470146086C70470A884B88D8
:102100001A438B881A43CB881A430B891A434B898D
:102110001A438B891A43A0F844207047002101809C
:1021200041808180C180018141818181704731B1CD
:10213000B0F8442042F40042A0F8442005E0B0F892
:102140004420C2F30E02A0F84420704721B18288D7
:1021500042F00402828004E082884FF6FB731A404A
:102160008280704721B1828842F00102828004E0BF
:1021700082884FF6FE731A40828070471AB18389B5
:102180000B43838102E083898B4383817047818283
:10219000704702460020138A0B400BB1012000E07B
:1021A00000207047CA430282704730B502460020C3
:1021B00000230024158A05EA0103958905EA010434
:1021C00013B10CB1012000E0002030BDCA430282EF
:1021D000704741EA0203A0F8483070471AB183897A
:1021E0000B43838102E083898B438381704721B154
:1021F000828842F00802828004E082884FF6F773FA
:102200001A408280704701894FF6F87211400181AF
:1022100070470A46002101894FF68F731940114318
:102220000181704730B504460D4629462046FFF728
:10223000F0FF208940F00700208130BD2DE9F041FA
:1022400004460D4616461F46602D06D13B46012228
:1022500031462046FFF775FE05E03B460122314638
:102260002046FFF7A4FE29462046FFF7D2FF20892B
:1022700040F007002081BDE8F08130B50C46002118
:102280000189C9B24FF6FF7505EA032515432543B9
:102290002943018130BD2DE9F04105460E46174620
:1022A0009846002443463A4631462846FFF7E5FF64
:1022B0002C894FF6F870044044F007044FF68F70F5
:1022C000044044F070042C81BDE8F081F0B5044670
:1022D0000D4616461F463B46324629462046FFF726
:1022E000CCFF208940F480402081F0BD82884FF6E9
:1022F0008F731A40828082880A43828070470289E5
:102300004FF6F8731A40028102890A43028170472E
:1023100002894FF67F731A40028102890A430281C3
:102320007047F0B50C4615461E46002100220023DA
:102330000189028B038C4FF6F877394021434FF621
:10234000FC473A4040F201173A434FF6DD773B40F5
:102350004FF6FF7707EA06172F433B4301810283BD
:102360000384F0BD21B1828842F08002828004E0C3
:1023700082884FF67F731A4082807047A0F8501011
:1023800070470000002041490860091D0860091DD0
:102390000860091D08603E483C49143108607047D8
:1023A00000213A498279002A3AD00A461268036825
:1023B0009A430B461A600A1D126803689A430B1D64
:1023C0001A60027911440A6803681A430A602F4AA6
:1023D0000832126803689A432C4B08331A601A1D9E
:1023E000126803689A43294B0C331A604279102A09
:1023F0000ED11A1F126803681A43244B08331A605F
:102400001A1D126803681A43204B0C331A600DE042
:102410001E49427911440A6803681A430A6005E0BC
:10242000027911440A6803689A430A6070470021E0
:10243000016001710C2141710021817170471349C4
:10244000103109680143114A10321160704701468A
:1024500000200E4A143212680A400AB1012000E03E
:102460000020704709491431086070470146002078
:10247000064A143212680A400AB1012000E0002026
:10248000704702491431086070470000003C014069
:10249000FFFF7F0010B501210802FEF708FE0021B2
:1024A0004FF48070FEF703FE10BD30B502460020E9
:1024B00000235068F84C20400D790C6844EA05244C
:1024C000204350609068F54C2040D1E903542C43E0
:1024D0008D682C434D7944EA450420439060D06ACE
:1024E00020F470000C7D641EE4B2234340EA0350E4
:1024F000D06230BD00210160017141718160C16015
:1025000001610121017570470021E54A1168E54A22
:102510001140D0E900231A4383681A43C3681A4361
:102520001143E14AC2F80413704700210160416081
:102530008160C160704721B1826842F0010282600F
:1025400003E0826822F00102826070470A4600219F
:102550004168D64B19401143416070474162826225
:1025600070470A460021416821F01F011143416074
:10257000704738B1CA49096841F40001CA4AC2F833
:10258000041306E0C649096821F40001C64AC2F8EE
:102590000413704738B1C249096841F48001C24A46
:1025A000C2F8041306E0BE49096821F48001BE4A5E
:1025B000C2F804137047F0B504460D460020002110
:1025C000092D11DDE068A5F10A0606EB460707268E
:1025D00006FA07F18843A5F10A0606EB460603FA58
:1025E00006F10843E0600CE0206905EB450707268B
:1025F00006FA07F1884305EB450603FA06F108439E
:102600002061072A0FDA606B561E06EB86071F262D
:1026100006FA07F18843561E06EB860605FA06F110
:102620000843606322E00D2A0FDA206BD61F06EB09
:1026300086071F2606FA07F18843D61F06EB860693
:1026400005FA06F10843206310E0E06AA2F10D06E6
:1026500006EB86071F2606FA07F18843A2F10D064E
:1026600006EB860605FA06F10843E062F0BD8168D4
:1026700041F0804181607047014600208A6802F085
:1026800080420AB1012000E00020704721B1826839
:1026900042F48062826003E0826822F48062826099
:1026A000704721B1826842F00202826003E08268D2
:1026B00022F002028260704710B50A460021002312
:1026C000416821F46041531E41EA4331416010BD2D
:1026D00021B1426842F40062426003E0426822F4A1
:1026E0000062426070470146C86C80B270476C4817
:1026F000001D0068704721B1826842F480728260D8
:1027000003E0826822F480728260704721B182689F
:1027100042F40072826003E0826822F400728260F8
:10272000704738B15E49096841F400515E4AC2F809
:10273000041306E05A49096821F400515A4AC2F8C4
:1027400004137047F0B50446154600200022002609
:10275000092911DDE068A1F10A0707EB470C0727FB
:1027600007FA0CF29043A1F10A0707EB470703FAB7
:1027700007F21043E0600CE0206901EB410C0727F1
:1027800007FA0CF2904301EB410703FA07F21043FA
:102790002061A06BC0F30156EF1C06F1010CA7EB02
:1027A0000C0707EB870C1F2707FA0CF29043EF1C6E
:1027B00006F1010CA7EB0C0707EB870701FA07F2FC
:1027C0001043A063F0BD10B50A4600210023816BC1
:1027D00021F44011531E41EA0351816310BD08B535
:1027E000002300930090009B0B440093009B1A6011
:1027F00008BD0A460021816821F4702111438160DF
:1028000070470A460021816821F44011114381601C
:102810007047816841F48001816070470146002063
:102820008A6802F480020AB1012000E000207047AB
:1028300021B1426842F48062426003E0426822F4BF
:1028400080624260704721B1426842F48052426027
:1028500003E0426822F480524260704708B50246A5
:1028600000200090009201F12800009B1844009085
:102870000098006880B208BD10B50B460021D9B29F
:10288000012404FA01F11AB144680C43446002E0E7
:1028900044688C43446010BDFFFEFFFCFDF7FFC0A1
:1028A00004230140E030FCFF00200140FFFD3FFF1A
:1028B0000246002013680B400BB1012000E000200D
:1028C0007047CA430260704770B50246002000237B
:1028D00000240B12556801268E4005EA060415688F
:1028E0001D4015B10CB1012000E0002070BD002298
:1028F0000A12D3430360704710B503F075F801283E
:1029000001D004F053F810BD70B504460420FDF763
:10291000DDFF3248047025464FF47A7045430120AC
:102920002F4908804FF0E020006940F002004FF08E
:10293000E021086108464561006940F00100086136
:1029400070BD70B5034600224FF0E0267569234E36
:10295000367803FB06F44FF0E026B16910E04FF043
:10296000E026B06988420BD0884202D20E1A324467
:1029700002E02E1A0E4432440146A24200D300E087
:10298000EDE700BF70BD70B5044603F02DF80128D7
:1029900010D013480088844206D311480088B4FB45
:1029A000F0F5284602F07FFA0D480088B4FBF0F1FC
:1029B00000FB11444FF47A7104FB01F0FFF7C1FFF3
:1029C00070BD30B50446002504E04FF47A70FFF77F
:1029D000B8FF6D1CA542F8D330BD00003C000020BC
:1029E0003E0000201CB501211020FEF7B1FA0C209A
:1029F000009001208DF8040000208DF806000320CF
:102A00008DF8050001208DF8070069461148FEF792
:102A100001F80C210F48FEF779F801212020FEF77C
:102A200097FA4FF40070009001208DF80400002008
:102A30008DF8060003208DF8050001208DF80700B1
:102A400069460548FDF7E6FF4FF400710248FEF7BE
:102A50005DF81CBD0010024000140240F84AB2FBB1
:102A6000F0F2521E4A436423B2FBF3F2F54B5A6371
:102A7000F34AB2FBF0F2521E4A436423B2FBF3F274
:102A8000F04B9A63EE4AB2FBF0F2521E4A436423C3
:102A9000B2FBF3F2EB4BDA63E94AB2FBF0F2521EFF
:102AA0004A436423B2FBF3F2E64B1A6470471CB549
:102AB00001211020FEF74CFA01210846FEF7A2FA88
:102AC00002208DF8040003208DF8050000208DF809
:102AD00006008DF807004FF4D44000906946DA48AC
:102AE000FDF798FF01220921D748FEF71EF80122C1
:102AF0000B21D548FEF719F801220D21D248FEF727
:102B000014F801220E21D048FEF70FF81CBD30B595
:102B100089B0044600BFFFF7CAFFC948B0FBF4F014
:102B2000451E0020ADF81800ADF81A000795ADF865
:102B300020008DF8220006A9C248FEF77EFE602024
:102B4000ADF804000120ADF806000020ADF810003B
:102B50004FF48070ADF8140032206843642190FB7C
:102B6000F1F0039001A9B748FEF7FCFE01A9B548B2
:102B7000FEF731FF01A9B348FEF77AFF01A9B1487A
:102B8000FEF7DCFF0121AF48FEF7E0FE0121AD4872
:102B9000FFF7CDFA64212046FFF760FF09B030BD92
:102BA000A74AB2FBF0F2521E4A436423B2FBF3F28F
:102BB000A64B1A60A24AB2FBF0F2521E4A436423AB
:102BC000B2FBF3F2A14B1B1D1A6070471CB501212B
:102BD0000420FEF7BDF901210220FEF713FA0220BE
:102BE0008DF8040003208DF8050000208DF8060004
:102BF0008DF80700C020009069469548FDF70AFF50
:102C0000032206219248FDF790FF032207219048F6
:102C1000FDF78BFF1CBD30B589B0044600BFFFF740
:102C2000D5FF8748B0FBF4F0451E0020ADF8180032
:102C3000ADF81A000795ADF820008DF8220006A91E
:102C400082483438FEF7F9FD6020ADF80400012019
:102C5000ADF806000020ADF810004FF48070ADF81C
:102C6000140032206843642190FBF1F0039001A925
:102C700076483438FEF776FE01A974483438FEF7FA
:102C8000AAFE012171483438FEF760FE01216F4829
:102C90003438FFF74CFA64212046FFF781FF09B072
:102CA00030BD1CB501210820FEF752F93F200090ED
:102CB00001208DF8040000208DF8060003208DF817
:102CC000050001208DF8070069466248FDF7A2FE65
:102CD0003F216048FDF71AFF1CBD10B5044634B112
:102CE000012C09D13F215B48FDF712FF09E03F218C
:102CF0005848FDF70BFF04E03F215648FDF706FF5B
:102D000000BF00BF10BD10B53F215248FDF7FEFEC9
:102D100010BD10B53F214F48FDF7FAFE10BD1CB5A0
:102D200001210920FEF714F94020009000208DF8C1
:102D3000040003208DF8050001208DF80700694686
:102D40004548FDF767FE4FF47040009000208DF875
:102D5000040003208DF8050001208DF80700694666
:102D60003C48FDF757FE1CBD0EB553214FF6FF70D2
:102D700000F066F9FFF7D3FF01218803FEF742F95F
:102D800006210020FEF749FA4020009000208DF82F
:102D9000040008208DF8050001208DF80600684623
:102DA000FFF7FEFA17208DF808000E208DF80900B5
:102DB00000208DF80A0001208DF80B0002A8FDF715
:102DC00038FD0C210320FEF728FA0D210320FEF721
:102DD00024FA0E210320FEF720FA0F210320FEF72C
:102DE0001CFA4FF47040009000208DF80400082079
:102DF0008DF8050001208DF806006846FFF7D0FA2F
:102E000028208DF808000D208DF8090000208DF88D
:102E10000A0001208DF80B0002A8FDF70AFD0EBD87
:102E200010B54FF48050FFF721FB20B30B4800781A
:102E3000C0B901200A4988600849087017E00000FD
:102E4000007A030A000001400010024034040140EF
:102E500000080240000C0240000002404200002036
:102E60001002002048488068401C474988604FF4A1
:102E70008050FFF706FB4FF40050FFF7F7FA88B1D8
:102E80004248007828B901203F49C8603F4908708E
:102E900004E03D48C068401C3B49C8604FF4005006
:102EA000FFF7EFFA4FF48040FFF7E0FA88B13848B7
:102EB000007828B90120344908613549087004E0D8
:102EC00031480069401C304908614FF48040FFF7E9
:102ED000D8FA4FF40040FFF7C9FA88B12D480078BE
:102EE00028B90120284948612A49087004E0264889
:102EF0004069401C244948614FF40040FFF7C1FA83
:102F000010BD10B52448007840B901201E49486022
:102F100000F004FC01202049087004E01A484068D1
:102F2000401C194948604020FFF7ABFA10BD10B5AE
:102F300001211A48FFF7FBF801211948FFF7F7F8BC
:102F400000F0ECFB10BD012080F3138800BF00BF30
:102F5000BFF34F8F1348006800F4E0601249084344
:102F6000001D10490860BFF34F8F00BF00BFFEE790
:102F700010B500210948FFF7DAF800210848FFF7EB
:102F8000D6F800F0D1FB10BD100200204300002055
:102F900044000020450000204100002000000140C6
:102FA000000401400CED00E00000FA057FB5054685
:102FB0000C4601210420FEF714F80295ADF80440F8
:102FC0000020ADF80600ADF80C0001A91A48FEF784
:102FD00034FC012211461848FFF7D0F81E208DF866
:102FE000000007208DF8010000208DF8020001206C
:102FF0008DF803006846FDF71CFC7FBD10B501216C
:103000000D48FEF7A3FC10BD10B500210A48FEF7DD
:103010009DFC10BD10B501210748FFF7C6F8012837
:1030200004D106480078401C044908700121024878
:10303000FFF7CCF810BD000000080040620000203F
:1030400030B589B004460D4601214020FDF7C9FF87
:1030500001210220FDF77CFF4FF480400790022001
:103060008DF8200003208DF8210000208DF822002B
:1030700002208DF8230007A93648FDF7CBFC092272
:103080000E213448FDF751FDADF810500020ADF889
:1030900012000594ADF8180004A92F48FEF7CDFBE7
:1030A0000020ADF80400ADF806000120ADF80800DE
:1030B0000020ADF80A00ADF80C0001A92648FEF783
:1030C00093FF012203212448FFF758F801212248E9
:1030D000FEF73CFC2B208DF800000F208DF801003E
:1030E00000208DF8020001208DF803006846FDF7EE
:1030F000A0FB09B030BD10B501211748FFF755F806
:1031000020B101211448FFF761F821E002211248A3
:10311000FFF74BF8E0B11148006808B9012000E062
:1031200000200E4908600E48007840B901200D4982
:10313000086000F0F3FA01200949087004E009482A
:103140000068401C0749086002210348FFF73EF869
:1031500010BD000000040240001800408C024242F2
:10316000460000201002002010B544F62060FFF752
:10317000CEFC44F62060FFF74EFDFFF792FDFFF70F
:10318000F3FD42F2CF01C720FFF710FF42F2CF015B
:1031900040F2F31000F09AFA42F2CF0141F2883087
:1031A00000F048FA10BD024602FB01F03223B0FBEA
:1031B000F3F0081A7047024602FB01F03223B0FB1D
:1031C000F3F0704770B505460E46FA480078FA49A4
:1031D000C1F8900035B1012D06D0022D0BD0032D82
:1031E00014D10AE0002413E03146F2480078FFF7DA
:1031F000E2FF04460CE034460AE0EE490978491C37
:10320000C8B23146FFF7CFFF044601E0002400BFFB
:1032100000BF204670BD2DE9F04106460C4615461C
:103220001F4636B1012E0ED0022E1CD0032E32D1F5
:1032300024E024B900260020DE49087002E00126BF
:10324000FFF7DCFE29E0DB480078322801D20126B6
:1032500008E00FB9002605E00226FFF7D5FE0020A2
:10326000D449087019E0AC4201D1022605E0AC4215
:1032700000D314B90326FFF7C1FE0EE0CD48007855
:10328000322801D2032605E00026FFF7BDFE00200C
:10329000C849087001E0002600BF00BF3046BDE805
:1032A000F081014600EE101AB8EE400ADFEDC30AC5
:1032B00020EE200ADFEDC20A20EE200ADFEDC10A6F
:1032C00020EE200ADFEDC00A80EE201ABCEEC10A13
:1032D00010EE100A70472DE9F04704460F461546D8
:1032E0001E46BA4928680860E6602178491EB84A37
:1032F00052F82100FFF7D5FFA060B648A368026826
:10330000B2480168B4480078FFF785FFB2490870F9
:1033100008460078022802D1B04928680860AE4803
:103320000078032807D1AD480168AB480078FFF763
:1033300049FF606005E0A84800782968FFF742FF70
:103340006060A54800789C49C1F884006068C1F8B5
:1033500088002868C1F88C009E4928680860A04849
:1033600006703A46D4E9010105F029F8814600EBE0
:10337000D970216901EB600020612069002802DA20
:103380000020206109E02069642802DD64202061BA
:1033900003E0606808B900202061606978B9E068DE
:1033A00020B1012805D0022807D105E0FFF7B1FCC4
:1033B00004E0FFF7A8FC01E000BF00BF00BF2078D9
:1033C00007284ED2DFE800F04D04101C28344000DE
:1033D0002069C0F1640042F2CF014843642190FBB0
:1033E000F1F0804908643DE02069C0F1640042F2D8
:1033F000CF014843642190FBF1F07A49C86331E082
:103400002069C0F1640042F2CF014843642190FB7F
:10341000F1F07449886325E02069C0F1640042F24C
:10342000CF014843642190FBF1F06E49486319E0F5
:103430002069C0F1640042F2CF014843642190FB4F
:10344000F1F0694908600DE02069C0F1640042F2C2
:10345000CF014843642190FBF1F06349091D0860E6
:1034600000E000BF00BF5C480078022803D1A068DC
:1034700008B94FF001084046BDE8F08770B5064630
:10348000DDE9044570BD08700022CA604A600A6127
:103490004A618A60704710B502460B46002100BFA2
:1034A00053E052F82100B0F5FF7F15D852F8210003
:1034B0004E4C44F82100204650F821004C4C54F862
:1034C0002140001B424C44F82100484850F821009C
:1034D000474C44F8210036E052F8210000EE100A73
:1034E000B8EE400ADFED350A20EE200ADFED340A9F
:1034F00020EE200A9FED3F1AC0EE010A3E4850F828
:10350000210000EE100AB8EE400A30EE800ABCEE50
:10351000C00A10EE100A384C44F8210052F821007D
:10352000324C44F82100204650F82100304C54F829
:103530002140001B264C44F8210000202C4C44F86C
:10354000210042F82100481CC1B2581E8842A8DA66
:1035500029480068184CE06706241068B0FBF4F0B6
:10356000154CC4F8800010BD2DE9F0412DED048B01
:1035700004460E46A01B002801DB014600E0414244
:10358000642951DDF4BBA71B002F01DB394600E0A5
:103590007942084605F0D9FB41EC190B9FED170B5A
:1035A00053EC102B05F0FCFB41EC180B05F0A0FBD5
:1035B00005463AE062000020F0300120C3F54840A3
:1035C0000000344200007A44009049465800002030
:1035D0002802002054000020610000205C00002030
:1035E0004A0000200000014034040140580200203D
:1035F0007002002000402145880200209A99999984
:103600009999E93FFFE7204605F0B6FB41EC190B1D
:103610001FED060B53EC102B05F0C2FB41EC180B11
:1036200005F066FB054600E025462846BDEC048B08
:10363000BDE8F0817FB505460C4601218020FDF7ED
:10364000D0FC0295ADF804400020ADF80600ADF8BE
:103650000C0001A91B48FEF7F0F801221146194899
:10366000FEF78CFD2C208DF8000006208DF801005F
:1036700000208DF8020001208DF803006846FDF758
:10368000D8F87FBD10B501210E48FEF75FF910BDD7
:1036900010B500210B48FEF759F910BD10B50121F6
:1036A0000848FEF782FD012807D10748006808B9DD
:1036B000012000E000200449086001210148FEF7D4
:1036C00085FD10BD001C0040A48242427FB5054626
:1036D0000C4601210820FDF784FC0295ADF804405A
:1036E0000020ADF80600ADF80C0001A91D48FEF75A
:1036F000A4F8012211461B48FEF740FD32208DF848
:10370000000009208DF8010000208DF80200012042
:103710008DF803006846FDF78CF87FBD10B50121D8
:103720001048FEF713F910BD10B500210D48FEF743
:103730000DF910BD10B501210A48FEF736FD01282C
:103740000BD10948006808B9012000E000200649B3
:10375000086006210548FFF79EFE01210148FEF79B
:1037600035FD10BD000C00408802424210020020CE
:1037700000B58DB001210846FDF7EAFB01210802E2
:10378000FDF740FC20200B9003208DF83000002036
:103790008DF833000BA92C48FDF73CF901210802F4
:1037A000FDF785FC00214FF48070FDF780FC0020C0
:1037B00007900A9009904FF48030089007A8FEF710
:1037C000A3FE002001908DF808008DF809000390F9
:1037D000059001208DF8180001A91C48FEF765FE30
:1037E00001211A48FEF7A7FE0DB000BD10B5044632
:1037F0000723012221461548FEF7DDFE1348FEF798
:1038000036FF00BF02211148FFF752F80028F9D017
:103810000E48FEF768FF10BD2DE9F04107460C4643
:103820000025002608E03846FFF7E0FF05440520A4
:10383000FFF7A9F8701CC6B2A642F4DBB5FBF4F0A2
:1038400080B2BDE8F081000000000240002001408D
:1038500000F1080141604FF0FF31816000F1080183
:10386000C160016100210160704700210161704762
:1038700042684A6093688B60936859609160086100
:1038800003685B1C0360704710B502460B685C1C44
:103890000CB9106907E002F1080000E040684468D4
:1038A00024689C42FAD944684C604C68A1608860E6
:1038B00041600A611468641C146010BD01460A6905
:1038C000D1E901309860D1E901035860506888421D
:1038D00001D188685060002008611068401E1060A7
:1038E0001068704770B505460E462C4654B900BFA7
:1038F000502080F31188BFF34F8FBFF36F8F00BF4D
:1039000000BFFEE703F00FF8D4E90F12206801FBB7
:103910000200A0600020A06320686060E06B401E91
:10392000226C216800FB0211E160FF2084F8440052
:1039300084F845009EB9206908B9012000E0002004
:10394000A8B904F1100001F039FF80B14FF08050A8
:10395000FA490860BFF34F8FBFF36F8F07E004F1A0
:103960001000FFF775FF04F12400FFF771FF03F06B
:1039700001F8012070BD2DE9F04106460D461746BD
:103980009846069C0DB9246000E02760E663256434
:1039900001212046FFF7A6FF84F84C80BDE8F081A6
:1039A0002DE9F84305460E4690460DB1012000E092
:1039B000002050B900BF502080F31188BFF34F8F13
:1039C000BFF36F8F00BF00BFFEE70EB9002701E015
:1039D00005FB06F707F1500003F0A9F804464CB1C7
:1039E000A14609F1500943464A463146284600940B
:1039F000FFF7C1FF2046BDE8F88370B5044602F02A
:103A000092FF94F9455010E0606A08B9012000E087
:103A1000002038B904F1240001F0D0FE18B101F003
:103A2000D1FF00E003E0681E45B2002DECDC00BFD2
:103A3000FF2084F8450002F09DFF02F074FF94F926
:103A4000445010E0206908B9012000E0002048B986
:103A500004F1100001F0B2FE08B101F0B3FF681EDE
:103A600045B200E001E0002DECDC00BFFF2084F84F
:103A7000440002F07FFF70BD70B5054602F053FFB1
:103A8000A86BE96B884201D1012400E0002402F018
:103A900071FF204670BD2DE9F04104460F461546E2
:103AA0004FF00008A66B206C48B9206800282CD184
:103AB000A06802F002F880460020A06025E07DB9F1
:103AC0003946226C606804F087FF216C6068084406
:103AD0006060D4E90101884217D32068606014E077
:103AE0003946226CE06804F077FF216CE068411AE7
:103AF000E1602168E068884203D2216CA068411A25
:103B0000E160022D01D106B1761E701CA063404613
:103B1000BDE8F0812DE9FF4383B0064688461D4687
:103B20004FF00009344654B900BF502080F311888B
:103B3000BFF34F8FBFF36F8F00BF00BFFEE7B8F139
:103B4000000F01D1206C08B9012000E0002050B91D
:103B500000BF502080F31188BFF34F8FBFF36F8FEA
:103B600000BF00BFFEE7022D02D1E06B012801D1AA
:103B7000012000E0002050B900BF502080F31188E0
:103B8000BFF34F8FBFF36F8F00BF00BFFEE701F0A1
:103B90002BFF08B9059808B9012000E0002050B9B2
:103BA00000BF502080F31188BFF34F8FBFF36F8F9A
:103BB00000BF00BFFEE700BF02F0B5FEA06BE16BE7
:103BC000884201D3022D28D12A4641462046FFF7DC
:103BD00062FF0746606A08B9012000E0002068B96A
:103BE00004F1240001F0EAFD88B14FF08050534900
:103BF0000860BFF34F8FBFF36F8F08E03FB14FF006
:103C000080504E490860BFF34F8FBFF36F8F02F0B3
:103C1000B1FE012007B0BDE8F083059818B902F0A5
:103C2000A9FE0020F6E7B9F1000F04D101A801F0C8
:103C300080FE4FF0010902F09DFE01F0CAF802F08B
:103C400072FE94F94400401C10B9002084F844002E
:103C500094F94500401C10B9002084F8450002F09A
:103C600089FE05A901A801F06BFEF0B92046FFF717
:103C700003FFA0B104F11000059901F035FD2046C5
:103C8000FFF7BBFE00F0F7FF002895D14FF0805002
:103C90002A490860BFF34F8FBFF36F8F8CE7204630
:103CA000FFF7ABFE00F0E7FF86E72046FFF7A5FE33
:103CB00000F0E1FF0020ADE710B5044654B100204C
:103CC000A06020600021E16000231A4619462046CA
:103CD000FFF720FF10BD2DE9F04104460126002723
:103CE000224600210120FFF75BFE05462846FFF72C
:103CF000E3FF2846BDE8F08170B505462C4654B96F
:103D000000BF502080F31188BFF34F8FBFF36F8F38
:103D100000BF00BFFEE701F064FEA16888420FD13A
:103D2000E068401EE060E06828B900231A461946A2
:103D30002046FFF7EFFE012603E0000004ED00E05F
:103D40000026304670BD01464A6A22B10A6B1268ED
:103D5000C2F1050000E00020704770B5054602F092
:103D6000E2FDA86B08B9012400E0002402F002FE85
:103D7000204670BD2DE9F34182B005464FF00008A2
:103D80002C46002654B900BF502080F31188BFF3A1
:103D90004F8FBFF36F8F00BF00BFFEE7206C08B9E5
:103DA000012000E0002050B900BF502080F31188AE
:103DB000BFF34F8FBFF36F8F00BF00BFFEE701F06F
:103DC00013FE08B9039808B9012000E0002050B99B
:103DD00000BF502080F31188BFF34F8FBFF36F8F68
:103DE00000BF00BFFEE700BF02F09DFDA76BFFB163
:103DF000781EA063206810B901F03CFFA060206924
:103E000008B9012000E0002060B904F1100001F0C1
:103E1000D5FC38B14FF08050F8490860BFF34F8FA0
:103E2000BFF36F8F02F0A6FD012004B0BDE8F08162
:103E3000039898B90EB9012000E0002050B900BFE6
:103E4000502080F31188BFF34F8FBFF36F8F00BFF7
:103E500000BFFEE702F08EFD0020E6E7B8F1000F9C
:103E600004D1684601F065FD4FF0010802F082FDC3
:103E700000F0AFFF02F057FD94F94400401C10B968
:103E8000002084F8440094F94500401C10B900203B
:103E900084F8450002F06EFD03A9684601F050FD6C
:103EA00040BB2046FFF759FFF0B1206838B902F057
:103EB0003AFDA06801F0A4FD064602F05BFD04F1A6
:103EC0002400039901F010FC2046FFF796FD00F056
:103ED000D2FE002888D14FF08050C8490860BFF357
:103EE0004F8FBFF36F8F7FE72046FFF786FD00F00F
:103EF000C2FE79E72046FFF780FD00F0BCFE2046B9
:103F0000FFF72BFF0028EED05EB102F00CFD20463B
:103F1000FFF719FF07463946A06801F02CFE02F0B2
:103F200029FD002081E72DE9F04106460F46344681
:103F300054B900BF502080F31188BFF34F8FBFF3F7
:103F40006F8F00BF00BFFEE701F04BFDA168884204
:103F500004D1E068401CE060012508E039462046B5
:103F6000FFF708FF054615B1E068401CE0602846F1
:103F7000BDE8F08170B505460E460DB1012000E0A8
:103F8000002050B900BF502080F31188BFF34F8F3D
:103F9000BFF36F8F00BF00BFFEE7AE4201D8012024
:103FA00000E0002050B900BF502080F31188BFF31B
:103FB0004F8FBFF36F8F00BF00BFFEE702220021CB
:103FC0002846FFF7EDFC044604B1A663204670BD09
:103FD0002DE9F05F07468A4690461E463C4654B996
:103FE00000BF502080F31188BFF34F8FBFF36F8F56
:103FF00000BF00BFFEE7BAF1000F01D1206C08B985
:10400000012000E0002050B900BF502080F311884B
:10401000BFF34F8FBFF36F8F00BF00BFFEE7022ECD
:1040200002D1E06B012801D1012000E0002050B94D
:1040300000BF502080F31188BFF34F8FBFF36F8F05
:1040400000BF00BFFEE702F0C9FC00BF5021EFF344
:10405000118081F31188BFF34F8FBFF36F8F00BFC3
:104060000546A06BE16B884201D3022E23D194F95F
:1040700045B0324651462046FFF70DFD0BF10100D9
:1040800088B9606A08B9012000E0002080B904F115
:10409000240001F093FB58B1B8F1000F08D00120C3
:1040A000C8F8000004E00BF1010040B284F84500BC
:1040B0004FF0010901E04FF0000900BF85F31188BE
:1040C00000BF4846BDE8F09F2DE9F04706460F4681
:1040D000344654B900BF502080F31188BFF34F8F8E
:1040E000BFF36F8F00BF00BFFEE7206C08B901204F
:1040F00000E0002050B900BF502080F31188BFF3CA
:104100004F8FBFF36F8F00BF00BFFEE7206808B975
:10411000A06808B9012000E0002050B900BF50207D
:1041200080F31188BFF34F8FBFF36F8F00BF00BFC5
:10413000FEE702F053FC00BF5021EFF3118081F342
:104140001188BFF34F8FBFF36F8F00BF0546D4F8C0
:104150003890E06B48451ED994F945A009F101005B
:10416000A0630AF1010070B9606A08B9012000E09B
:10417000002068B904F1240001F020FB40B13FB1F8
:104180000120386004E00AF1010040B284F84500E3
:104190004FF0010801E04FF0000800BF85F31188DF
:1041A00000BF4046BDE8F08770B504460D46206C60
:1041B00070B1216CE0680144E160D4E902108842EA
:1041C00001D32168E1602846226CE16804F004FC18
:1041D00070BD2DE9F74183B005460E464FF000084B
:1041E0002C466CB900BF502080F31188BFF34F8F6D
:1041F000BFF36F8F00BF00BFFEE7000004ED00E0DB
:104200000EB9206C08B9012000E0002050B900BFB1
:10421000502080F31188BFF34F8FBFF36F8F00BF23
:1042200000BFFEE701F0E0FB08B9059808B90120DE
:1042300000E0002050B900BF502080F31188BFF388
:104240004F8FBFF36F8F00BF00BFFEE700BF02F0CC
:104250006AFBA76BF7B131462046FFF7A5FF781E32
:10426000A063206908B9012000E0002060B904F1D2
:10427000100001F0A3FA38B14FF08050FA490860FD
:10428000BFF34F8FBFF36F8F02F074FB012006B0B6
:10429000BDE8F081059818B902F06CFB0020F6E744
:1042A000B8F1000F04D101A801F043FB4FF0010861
:1042B00002F060FB00F08DFD02F035FB94F9440044
:1042C000401C10B9002084F8440094F94500401CBB
:1042D00010B9002084F8450002F04CFB05A901A8A4
:1042E00001F02EFBF0B92046FFF737FDA0B104F135
:1042F0002400059901F0F8F92046FFF77EFB00F055
:10430000BAFC0028A3D14FF08050D7490860BFF312
:104310004F8FBFF36F8F9AE72046FFF76EFB00F0D9
:10432000AAFC94E72046FFF768FB00F0A4FC2046B7
:10433000FFF713FD00288AD00020A8E72DE9F743F6
:1043400082B005460E464FF000082C4654B900BF17
:10435000502080F31188BFF34F8FBFF36F8F00BFE2
:1043600000BFFEE70EB9206C08B9012000E0002074
:1043700050B900BF502080F31188BFF34F8FBFF3B7
:104380006F8F00BF00BFFEE701F02EFB08B9049855
:1043900008B9012000E0002050B900BF502080F390
:1043A0001188BFF34F8FBFF36F8F00BF00BFFEE7D1
:1043B00000BF02F0B8FAD4F83890B9F1000F1ED05F
:1043C000E76831462046FFF7EFFEE760606A08B90C
:1043D000012000E0002060B904F1240001F0EEF9B2
:1043E00038B14FF08050A0490860BFF34F8FBFF342
:1043F0006F8F02F0BFFA012005B0BDE8F08304988A
:1044000018B902F0B7FA0020F6E7B8F1000F04D1AE
:10441000684601F08EFA4FF0010802F0ABFA00F0A6
:10442000D8FC02F080FA94F94400401C10B9002036
:1044300084F8440094F94500401C10B9002084F829
:10444000450002F097FA04A9684601F079FAF0B93C
:104450002046FFF782FCA0B104F12400049901F08A
:1044600043F92046FFF7C9FA00F005FC0028A0D167
:104470004FF080507C490860BFF34F8FBFF36F8FC0
:1044800097E72046FFF7B9FA00F0F5FB91E72046E1
:10449000FFF7B3FA00F0EFFB2046FFF75EFC0028C1
:1044A00087D00020A8E72DE9F05F06468946174629
:1044B000344654B900BF502080F31188BFF34F8FAA
:1044C000BFF36F8F00BF00BFFEE7B9F1000F01D14E
:1044D000206C08B9012000E0002050B900BF502036
:1044E00080F31188BFF34F8FBFF36F8F00BF00BF02
:1044F000FEE702F073FA00BF5021EFF3118081F361
:104500001188BFF34F8FBFF36F8F00BF0546D4F8FC
:1045100038A0BAF1000F22D094F944B049462046A1
:10452000FFF742FEAAF10100A0630BF1010070B990
:10453000206908B9012000E0002068B904F11000EA
:1045400001F03CF940B13FB10120386004E00BF1CB
:10455000010040B284F844004FF0010801E04FF040
:10456000000800BF85F3118800BF4046BDE8F09FFA
:104570002DE9F04706468846344654B900BF50201E
:1045800080F31188BFF34F8FBFF36F8F00BF00BF61
:10459000FEE7B8F1000F01D1206C08B9012000E05E
:1045A000002050B900BF502080F31188BFF34F8F17
:1045B000BFF36F8F00BF00BFFEE7206C08B1012082
:1045C00000E0002050B900BF502080F31188BFF3F5
:1045D0004F8FBFF36F8F00BF00BFFEE702F0FEF901
:1045E00000BF5021EFF3118081F31188BFF34F8F8B
:1045F000BFF36F8F00BF0546A06B48B1D4F80C9095
:1046000041462046FFF7D0FDC4F80C90012700E09A
:10461000002700BF85F3118800BF3846BDE8F0874A
:1046200070B5044654B900BF502080F31188BFF321
:104630004F8FBFF36F8F00BF00BFFEE702F073F92B
:10464000A56B02F097F9284670BD70B50446254663
:1046500065B900BF502080F31188BFF34F8FBFF3BF
:104660006F8F00BF00BFFEE704ED00E002F05BF9D2
:10467000D5E90E10461A02F07DF9304670BD10B52E
:1046800001460A4652B900BF502383F31188BFF395
:104690004F8FBFF36F8F00BF00BFFEE7906B10BD61
:1046A000014600200EE0544A02EBC00252688A42E2
:1046B00007D10022504B43F8302003EBC0035A606F
:1046C00002E0401C0828EED300BF704770B50446D6
:1046D000254655B900BF502080F31188BFF34F8F96
:1046E000BFF36F8F00BF00BFFEE72846FFF7D8FF7C
:1046F000284602F0B0FA70BD0146886C70478164AC
:104700007047014691F84C00704710B501460A46C3
:1047100052B900BF502383F31188BFF34F8FBFF30B
:104720006F8F00BF00BFFEE7936B0BB9012000E065
:10473000002010BD10B501460A4652B900BF5023F3
:1047400083F31188BFF34F8FBFF36F8F00BF00BF9C
:10475000FEE7936BD46BA34201D1012000E000205F
:1047600010BD024600200BE0234B53F8303033B924
:10477000214B43F8301003EBC0035A6002E0401CA9
:104780000828F1D300BF70470246002000210AE04C
:10479000194B03EBC1035B68934203D1164B53F8EB
:1047A000310002E0491C0829F2D300BF70472DE90F
:1047B000F04105460E4617462C4602F0B4F894F92F
:1047C0004400401C10B9002084F8440094F94500CE
:1047D000401C10B9002084F8450002F0CBF8A06B13
:1047E00028B93A46314604F1240000F0C9FF2046BA
:1047F000FFF703F9BDE8F081A002002010B5002406
:1048000007E004EB8401FB4A02EB8100FFF720F88C
:10481000641C052CF5D3F848FFF71AF8F748FFF7A2
:1048200017F8F748FFF714F8F648FFF711F8F648BD
:10483000FFF70EF8F048F5490860F048F4490860C1
:1048400010BD10B5044602F06EF8F2480068401C36
:10485000F0490860F048006840B9EF480460084635
:10486000006801280DD1FFF7C9FF0AE0EB48006896
:1048700038B9E9480068C06AE16A884201D8E64868
:104880000460E7480068401CE54908600846006885
:10489000206494F82C1001208840E24909680843FC
:1048A000E0490860E16A01EB8101D24A02EB810034
:1048B000211DFEF7DDFF02F05DF8D848006868B101
:1048C000D5480068C06AE16A884207D24FF080503C
:1048D000D5490860BFF34F8FBFF36F8F10BD2DE92F
:1048E000F05F82460E4690469B460A9F0C9C56B946
:1048F00000BF502080F31188BFF34F8FBFF36F8F3D
:1049000000BF00BFFEE74FEA8801A522206B04F03C
:10491000A8F8A8F10100216B01EB800929F0070933
:1049200009F0070008B9012000E0002050B900BFDD
:10493000502080F31188BFF34F8FBFF36F8F00BFFC
:1049400000BFFEE7002507E0715D04F1340041552A
:10495000705D00B902E06D1C0A2DF5D300BF002187
:104960003D200155052F00D30427E762A7640020EE
:10497000E064201DFEF779FF04F11800FEF775FFD3
:104980002461C7F10500A06164620020206584F8FD
:1049900054005A465146484601F0E6FE20600B9806
:1049A00008B10B980460BDE8F09F2DE9FF4F85B07A
:1049B000804689461746DDE912ABB80002F0B7F829
:1049C000064656B1582002F0B2F804460CB12663F0
:1049D00004E0304602F03FF900E000247CB1002002
:1049E000CDE900ABCDE902403A4649464046089B36
:1049F000FFF775FF2046FFF724FF012501E04FF088
:104A0000FF35284609B0BDE8F08F8049096809687C
:104A100009B9012100E0002121B14FF0FF31834AA3
:104A2000116006E079490968C968C8687F4A416829
:104A30001160704710B50446206B02F00CF9204657
:104A400002F009F910BD70B5054601F06CFF15B90B
:104A50007148006800E028460446201DFEF72EFF3E
:104A600078B9E06A00EB8000624951F8200040B953
:104A700094F82C10012088406A49096881436948EC
:104A80000160A06A18B104F11800FEF717FF64482E
:104A90000068401C624908605F480068844209D190
:104AA000211D5848FEF7E4FE61480068401C60493B
:104AB000086009E057480068401E564908602046D3
:104AC000FFF7B8FFFFF7A1FF01F054FF534800685C
:104AD000E8B151480068844219D15648006808B9C5
:104AE000012000E0002050B900BF502080F3118861
:104AF000BFF34F8FBFF36F8F00BF00BFFEE74FF0D4
:104B0000805049490860BFF34F8FBFF36F8F70BD6E
:104B10002DE9F0414FF0000846480068002868D1B0
:104B200045480068451C4448056015BB3748006887
:104B3000006808B9012000E0002050B900BF5020F3
:104B400080F31188BFF34F8FBFF36F8F00BF00BF9B
:104B5000FEE72E4807682E4800682C4908602C485C
:104B6000076036480068401C34490860FFF74DFF75
:104B700000BF2E480068854263D300BF2348006809
:104B8000006808B9012000E0002020B14FF0FF309C
:104B90002649086054E01D480068C068C46866681B
:104BA000B54202D2214806604AE0201DFEF786FE8B
:104BB000A06A18B104F11800FEF780FE94F82C10DA
:104BC0000120884017490968084316490860E16ACE
:104BD00001EB8101074A02EB8100211DFEF748FE2F
:104BE0000D49E06A0968C96A8842C7D34FF00108D5
:104BF000C4E733E0E0020020440300205803002013
:104C00006C03002080030020940300206800002033
:104C10006C00002074000020640000208000002050
:104C2000900000207C00002004ED00E094000020B3
:104C3000700000209C000020780000208C000020E4
:104C400000BFFE480068C06A00EB8000FC4951F8D4
:104C50002000012801D94FF0010804E0F94800685C
:104C6000401CF8490860F848006808B14FF0010896
:104C70004046BDE8F08170B500240026F348006886
:104C800050B900BF502080F31188BFF34F8FBFF39E
:104C90006F8F00BF00BFFEE701F045FEEB480068E4
:104CA000401EEA4908600846006800284FD1E848DD
:104CB000006800284BD024E0E648C068C46804F1CE
:104CC0001800FEF7FBFD201DFEF7F8FD94F82C10F0
:104CD00001208840E04909680843DF490860E16A2B
:104CE00001EB8101D64A02EB8100211DFEF7C0FDD8
:104CF000D249E06A0968C96A884202D30120D249D0
:104D00000860D448006808B9012000E000200028AD
:104D1000D2D00CB1FFF779FECA48056865B100BF73
:104D2000FFF7F6FE10B10120C74908606D1E002D87
:104D3000F6D10020C3490860C348006838B1012695
:104D40003007C6490860BFF34F8FBFF36F8F01F084
:104D500011FE304670BD2DE9F04105460E46C048B3
:104D60000768B6480068001DFEF7A8FD50B9B348B3
:104D7000006890F82C1001208840B74909688143E9
:104D8000B5480160681C38B936B1AC480168091DE6
:104D9000B448FEF76DFD1AE07C19A848006844602D
:104DA000BC4207D2A5480168091DAF480068FEF75C
:104DB0006BFD0CE0A1480168091DAC480068FEF7D6
:104DC00063FDAB480068844201D2A9480460BDE895
:104DD000F0819E480068401C9C49086070472DE99E
:104DE000F04704460F464FF0000954B900BF502069
:104DF00080F31188BFF34F8FBFF36F8F00BF00BFE9
:104E0000FEE70FB1012000E0002050B900BF5020A4
:104E100080F31188BFF34F8FBFF36F8F00BF00BFC8
:104E2000FEE78A48006808B9012000E0002050B978
:104E300000BF502080F31188BFF34F8FBFF36F8FF7
:104E400000BF00BFFEE7FFF7C4FF85480668206883
:104E5000C5192068B04207D92068A8420BD9B542CD
:104E600009D94FF0010906E02068A84201D8B542EF
:104E700001D94FF001092560B9F1000F03D0A81B3B
:104E80000021FFF768FFFFF7F6FE8046B8F1000F3C
:104E900007D14FF0805071490860BFF34F8FBFF3C7
:104EA0006F8FBDE8F08770B504460025D4B1674820
:104EB000006808B9012000E0002050B900BF502070
:104EC00080F31188BFF34F8FBFF36F8F00BF00BF18
:104ED000FEE7FFF77EFF00212046FFF73CFFFFF7CC
:104EE000CAFE05463DB94FF080505C490860BFF3EB
:104EF0004F8FBFF36F8F70BD2DE9F04707463E46D9
:104F000056B900BF502080F31188BFF34F8FBFF315
:104F10006F8F00BF00BFFEE748480068864201D19E
:104F2000002426E001F0FFFC75695048D0F80080AD
:104F30004D48D0F8009001F01DFD454501D04D458C
:104F400001D1022415E0474885420BD1B06A38B937
:104F500096F85400012801D102240AE0032408E055
:104F6000022406E04348854200D00DB9042400E045
:104F700001242046BDE8F08770B5044601F0D3FC5B
:104F800014B92E48006800E020460646F56A01F094
:104F9000F1FC284670BD2DE9F041054601F01EFDEB
:104FA00000BF5021EFF3118081F31188BFF34F8FC1
:104FB000BFF36F8F00BF044615B92048006800E0BA
:104FC00028460746FE6A00BF84F3118800BF3046BA
:104FD000BDE8F0812DE9F04780460D464FF000090D
:104FE000052D01D2012000E0002050B900BF502063
:104FF00080F31188BFF34F8FBFF36F8F00BF00BFE7
:10500000FEE7052D00D3042501F08DFCB8F1000F5B
:1050100002D10A48006800E040460446A66CAE4251
:1050200076D0B5422BD90548006884422DD003487C
:105030000068C06AA84228D81EE000006400002072
:10504000E002002084000020880000209C00002056
:10505000740000206C0300207C00002004ED00E0C0
:1050600078000020940300206C00002068000020DD
:1050700094000020800300204FF0010905E0FE4865
:105080000068844201D14FF00109E76AE16AA06C2F
:10509000884200D1E562A564A06900F0004010B923
:1050A000C5F10500A06107EB8701F44A02EB81011D
:1050B0006069884201D1012000E00020E0B1201D9C
:1050C000FEF7FCFB30B90120B840ED490968814387
:1050D000EB48016094F82C1001208840E8490968E9
:1050E0000843E7490860E16A01EB8101E34A02EB0A
:1050F0008100211DFEF7BCFBB9F1000F07D04FF076
:105100008050E0490860BFF34F8FBFF36F8F00BF3F
:1051100001F030FCBDE8F087DB48006818B10120E1
:10512000DA49086032E00020D8490860D4480068B5
:10513000B0FA80F0C0F11F0101EB8100CF4A52F8B4
:10514000200008B1012000E0002050B900BF50202D
:1051500080F31188BFF34F8FBFF36F8F00BF00BF85
:10516000FEE701EB8102C54B03EB82004268526807
:10517000426000F108024368934202D142685268DB
:1051800042604268D268BC4B1A6000BF704770B57D
:10519000054601F0C8FB15B9B748006800E028468D
:1051A0000446201DFEF78AFB78B9E06A00EB800018
:1051B000B24951F8200040B994F82C1001208840E1
:1051C000AF4909688143AE480160A06A18B104F193
:1051D0001800FEF773FB211DAD48FEF749FB94F85C
:1051E0005400012802D1002084F8540001F0C2FBD1
:1051F000A848006828B101F096FBFFF706FC01F013
:10520000B9FB9D480068844229D1A2480068D0B10A
:105210009D48006808B9012000E0002050B900BF97
:10522000502080F31188BFF34F8FBFF36F8F00BF03
:1052300000BFFEE74FF0805092490860BFF34F8FE8
:10524000BFF36F8F0BE0924800689349096888426A
:1052500003D100208849086001E0FFF75DFF70BDC1
:1052600010B502460020114652B900BF502383F307
:105270001188BFF34F8FBFF36F8F00BF00BFFEE7F2
:10528000834C4B69A34201D1012300E0002373B199
:10529000824C8B6AA34201D1012300E0002333B981
:1052A0008B6A0BB9012300E0002303B1012010BD7C
:1052B00070B505462C4655B900BF502080F31188C3
:1052C000BFF34F8FBFF36F8F00BF00BFFEE76A4889
:1052D000006884422BD054B301F025FB2046FFF731
:1052E000BFFF10B3201DFEF7E9FA94F82C1001203F
:1052F000884063490968084361490860E16A01EB35
:1053000081015E4A02EB8100211DFEF7B1FA5A4984
:10531000E06A0968C96A884207D34FF0805059494A
:105320000860BFF34F8FBFF36F8F01F023FB70BD99
:105330002DE9F04106460027344656B900BF5020FB
:1053400080F31188BFF34F8FBFF36F8F00BF00BF93
:10535000FEE701F043FB00BF5021EFF3118081F322
:105360001188BFF34F8FBFF36F8F00BF05462046F4
:10537000FFF776FF20B344480068E0B93E49E06A91
:105380000968C96A884200D30127201DFEF796FAF2
:1053900094F82C100120884039490968084338499D
:1053A0000860E16A01EB8101344A02EB8100211DB2
:1053B000FEF75EFA04E004F118013848FEF758FAE7
:1053C00000BF85F3118800BF3846BDE8F08110B5F5
:1053D00016E001F0A8FA3248C068C468201DFEF744
:1053E0006DFA2D480068401E2B4908602D48006862
:1053F000401E2C49086001F0BDFA2046FFF71AFB59
:10540000284800680028E4D110BD00BFFFF7DFFF87
:105410001A4800680128F9D94FF0805019490860EE
:10542000BFF34F8FBFF36F8FF0E71CB51E4800210D
:105430000B468222CDE900101CA11E48FFF7B5FAE9
:105440000446012C02D101F05EF80446012C3AD149
:1054500000BF502080F31188BFF34F8FBFF36F8FD1
:1054600000BF4FF0FF30144908600120094908606F
:1054700000201249086023E064000020E0020020C0
:105480007C00002004ED00E09C000020880000204B
:105490009403002080000020740000206C03002092
:1054A00080030020700000209800002049444C45F3
:1054B000000000000B540008940000207800002039
:1054C00001F077F910E0601C08B1012000E0002035
:1054D00050B900BF502080F31188BFF34F8FBFF346
:1054E0006F8F00BF00BFFEE71CBD10B500BF50208E
:1054F00080F31188BFF34F8FBFF36F8F00BF002081
:10550000F949086001F0FAF910BDF84908687047D8
:1055100070B501F063FA0025F4480468204670BDB8
:10552000F34800687047014611B9F248006800E08E
:105530000846024652B900BF502080F31188BFF3DD
:105540004F8FBFF36F8F00BF00BFFEE702F1340043
:1055500070470246002101E0521C491C1078A52822
:10556000FAD0890888B270472DE9F04107460C4609
:1055700090461E4617B9DF48006800E038460546E9
:10558000256005F134006060E86A2061286BE06105
:10559000286CA060A86C60610020A061052E12D06C
:1055A000D4480068854202D1002020730FE02673A2
:1055B000032E0CD1FFF70DFCA86A08B1022020735E
:1055C000FFF759FB03E02846FFF796FC2073B8F17C
:1055D000000F04D0286BFFF7BCFF208401E00020FF
:1055E0002084BDE8F0812DE9F04707460C4690463F
:1055F0000026206848B3204641684968416000F1B0
:10560000080142688A4202D14168496841604168A4
:10561000D1F80C9000BF204641684968416000F114
:10562000080142688A4202D1416849684160416884
:10563000CD6806EBC60007EB8001434601222846F1
:10564000FFF792FF761C4D45E5D13046BDE8F08767
:105650002DE9F04105468846164600240527FFF748
:10566000B8FBA3480068804539D300BF7F1E07EB15
:105670008702A14B03EB820104EBC40205EB82001D
:105680000122FFF7B0FF0444002FEFD104EBC40167
:1056900005EB8100022299490968FFF7A4FF044441
:1056A00004EBC40105EB8100022295490968FFF76C
:1056B0009AFF044404EBC40105EB810004229149E4
:1056C000FFF791FF044404EBC40105EB81000322C2
:1056D0008D49FFF788FF04440EB100203060FFF7CA
:1056E000CAFA2046BDE8F08170B504460D4654B9AB
:1056F00000BF502080F31188BFF34F8FBFF36F8F2F
:1057000000BF00BFFEE77B48016818312046FEF766
:10571000BBF801212846FFF71EFB70BD70B504469B
:105720000D46164654B900BF502080F31188BFF3D0
:105730004F8FBFF36F8F00BF00BFFEE77348006855
:1057400008B1012000E0002050B900BF502080F3D4
:105750001188BFF34F8FBFF36F8F00BF00BFFEE70D
:1057600045F0004063490968886162480168183162
:105770002046FEF77DF801213046FFF7ECFA70BDB8
:1057800070B505460E46144655B900BF502080F34B
:105790001188BFF34F8FBFF36F8F00BF00BFFEE7CD
:1057A0005448016818312846FEF762F80CB14FF0F2
:1057B000FF3621463046FFF7CEFA70BD70B506467B
:1057C000F068C46854B900BF502080F31188BFF35B
:1057D0004F8FBFF36F8F00BF00BFFEE704F11800CB
:1057E000FEF76CF849480068A8B9201DFEF766F876
:1057F00094F82C1001208840454909680843444921
:105800000860E16A01EB81013B4A02EB8100211D46
:10581000FEF72EF804E004F118013E48FEF728F8E0
:105820003449E06A0968C96A884204D9012501201F
:105830003949086000E00025284670BD70B505466E
:105840000E463248006808B1012000E0002050B93F
:1058500000BF502080F31188BFF34F8FBFF36F8FCD
:1058600000BF00BFFEE746F000402860EC6854B976
:1058700000BF502080F31188BFF34F8FBFF36F8FAD
:1058800000BF00BFFEE72846FEF718F8201DFEF710
:1058900015F894F82C10012088401D490968084328
:1058A0001B490860E16A01EB8101134A02EB8100A8
:1058B000211DFDF7DDFF0F49E06A0968C96A8842CA
:1058C00002D901201449086070BD10B5044654B9CE
:1058D00000BF502080F31188BFF34F8FBFF36F8F4D
:1058E00000BF00BFFEE719E0800000207800002024
:1058F0007400002064000020E00200206800002006
:105900006C00002080030020940300209C000020F5
:105910007C0000206C0300208800002001F003F8C8
:10592000FE4800682060FE480068606001F022F8D0
:1059300010BDFA4909680160F9490968416070477A
:1059400070B505460C4655B900BF502080F311884C
:10595000BFF34F8FBFF36F8F00BF00BFFEE754B997
:1059600000BF502080F31188BFF34F8FBFF36F8FBC
:1059700000BF00BFFEE700F0D6FFE9480268686894
:10598000131A2068401C08B9002617E0E34928686C
:105990000968884204D06868904201D801260DE069
:1059A0002068984207D92068C01A20602846FFF76F
:1059B000C0FF002602E000202060012600F0DAFF90
:1059C000304670BD0120D74908607047014611B1CB
:1059D0000A46506C00E00020704708B1024651644E
:1059E0007047D14908687047D049096809B9012052
:1059F00005E0CF49096809B9022000E0002070479E
:105A000070B505462C460026002D54D0C649E06AE4
:105A10000968C96A884247D2A06900F0004028B9E5
:105A2000C1480068C06AC0F10500A061E16A01EBED
:105A30008101C04A02EB81016069884201D10120E5
:105A400000E0002050B3201DFDF738FF78B9E06A70
:105A500000EB8000B74951F8200040B994F82C10B1
:105A600001208840B44909688143B3480160AE48C9
:105A70000068C06AE06294F82C1001208840AE49AA
:105A800009680843AC490860E16A01EB8101A94A51
:105A900002EB8100211DFDF7EBFE03E0A248006848
:105AA000C06AE062012606E09F49A06C0968C96AE5
:105AB000884200D20126304670BD70B505462C469E
:105AC0000026002D55D098480068844201D101205D
:105AD00000E0002050B900BF502080F31188BFF3D0
