:020000040800F2
:10000000583901209507000871050008730500089C
:10001000770500087B0500087F0500080000000048
:10002000000000000000000000000000790200084D
:100030008305000800000000D5020008312E0008EA
:10004000AF070008AF070008AF070008AF070008B8
:10005000AF070008AF070008AF070008AF070008A8
:10006000AF070008AF070008AF070008AF07000898
:10007000AF070008AF070008AF070008AF07000888
:10008000AF070008AF070008AF070008AF07000878
:10009000AF070008AF070008AF0700080D340008DD
:1000A000AF070008AF070008AF070008AF07000858
:1000B000AF070008677A0008A7380008AF070008F4
:1000C000AF070008AF070008AF070008AF07000838
:1000D000AF07000853790008AF070008AF07000812
:1000E0001F330008AF070008AF070008913D000864
:1000F0006F410008AF070008AF070008AF0700080E
:10010000AF070008AF07000805430008AF07000865
:10011000AF070008AF070008AF070008AF070008E7
:10012000AF070008AF070008AF070008AF070008D7
:10013000AF070008AF070008AF070008AF070008C7
:10014000AF070008AF070008AF070008AF070008B7
:10015000AF070008AF070008AF070008AF070008A7
:10016000AF070008AF070008AF070008AF07000897
:10017000AF070008AF070008AF070008AF07000887
:10018000AF070008AF07000800F002F800F05CF8C5
:100190000AA090E8000C82448344AAF10107DA45E2
:1001A00001D100F051F8AFF2090EBAE80F0013F0D8
:1001B000010F18BFFB1A43F001031847A498000071
:1001C000C49800000A444FF0000C10F8013B13F0F3
:1001D000070408BF10F8014B1D1108BF10F8015BA0
:1001E000641E05D010F8016B641E01F8016BF9D193
:1001F00013F0080F1EBF10F8014BAD1C0C1B09D1EA
:100200006D1E58BF01F801CBFAD505E014F8016B5B
:1002100001F8016B6D1EF9D59142D6D370470000ED
:100220000023002400250026103A28BF78C1FBD8FF
:10023000520728BF30C148BF0B6070471FB509F097
:10024000B5FA1FBD10B510BD08F0B1FF1146FFF79C
:10025000F5FF00F00FF908F0CFFF03B4FFF7F2FF4E
:1002600003BC08F06FFF000030BF72B6704762B683
:10027000704780F3088870472C4B19680868B0E80D
:10028000F04F80F30988BFF36F8F4FF0000080F3C9
:10029000118870470000000008480068006880F37B
:1002A00008884FF0000080F3148862B661B6BFF38F
:1002B0004F8FBFF36F8F00DF00BF00BF08ED00E07E
:1002C000DFF80C00016841F470010160704700BF65
:1002D00088ED00E0EFF30980BFF36F8F134B1A68CE
:1002E0001EF0100F08BF20ED108A20E9F04F1060BB
:1002F00009B44FF0500080F31188BFF34F8FBFF364
:100300006F8F05F081FC4FF0000080F3118809BC6D
:1003100019680868B0E8F04F1EF0100F08BFB0EC85
:10032000108A80F30988BFF36F8F7047AC000020FC
:10033000EFF3058070470000C8B043A9012003F027
:100340007FFE3EA9022003F07BFE39A9032003F0C3
:1003500077FE34A9042003F073FE2FA9052003F0D3
:100360006FFE2AA9062003F06BFE23AB00220221B8
:100370004FF4167008F086FD1CAB002202214FF4EA
:10038000167008F07FFD15AB002202214FF41670A5
:1003900008F078FD0EAB002202214FF4167008F031
:1003A00071FD07AB002202214FF4167008F06AFDC0
:1003B0006B46002202214FF4167008F063FD27E01F
:1003C0001CA93EA803F0B0FD56494098086115A944
:1003D00039A803F0A9FD53493B9848610EA934A8F8
:1003E00003F0A2FD4F493698886107A92FA803F0B2
:1003F0009BFD4C493198C86169462AA803F094FDD9
:1004000048492C98086242988862642005F0C3FA33
:10041000D6E708B500204FF4964301220A21009048
:1004200007F032FB07F0F4FB04E007F016FC322083
:1004300005F0B1FAF9E71CB5044606F0ECFF3A48BE
:1004400002210023CA01CDE9001038A13A4805F085
:1004500024F83A48042100238A01CDE9001038A18C
:100460003A4805F01AF83A48006805F064F806F0D2
:10047000F9FF1CBD1CB54FF4407000F0ABF9A8208B
:1004800002F0DEFC02F04AFD03F020FD30480121BD
:1004900000238022CDE900102EA1314804F0FDFF99
:1004A00005F03BFD00201CBD08B5002006231A46C0
:1004B0000521009002F0CAFF33E0002029490870AE
:1004C0000DE018482749097810F821002649254AE7
:1004D0001278885423480078401C2249087021482B
:1004E00000780828EDDB08211F4803F017F838B919
:1004F0001E48006808B9012000E000201B49086080
:10050000194803F03FF848B11848001D006808B9C1
:10051000012000E000201549091D0860322005F087
:100520003AFACAE724020020040000204D6F6462FA
:1005300075735F7461736B00130400080C00002076
:100540004D6F746F725F7461736B00003903000844
:100550000000002073746172745F7461736B00003B
:1005600037040008110000201200002088024242D7
:10057000704700BFFEE700BFFEE700BFFEE700BF19
:10058000FEE770470CB500200190009076480068A7
:1005900040F480307449086000BF7348006800F47C
:1005A000003000900198401C0190009818B9019803
:1005B000B0F5A04FF1D16C48006800F4003010B1E4
:1005C0000120009001E0002000900098012846D111
:1005D00065484030006840F0805063494031086011
:1005E0006248006840F44040604908605E48083056
:1005F00000685D49083108600846006840F4004022
:1006000008600846006840F4A05008605848091F78
:100610000860081F006840F08070091F086000BF74
:100620005148006800F000700028F9D040F20570D1
:10063000504908604C480830006820F003004A49DF
:10064000083108600846006840F00200086000BFFA
:1006500045480830006800F00C000828F8D10CBDAF
:1006600010B54548006840F47000434908603E48B2
:10067000006840F001003C49086000203A49083118
:100680000860394800683D490840374908603C48DF
:10069000091D0860081F006820F48020091F0860F9
:1006A000002031490C310860FFF76CFF4FF000600B
:1006B00031498039086010BD70B500200022022346
:1006C00000240221284D08352D6805F00C0020B1CA
:1006D000042806D0082834D107E02A4D2A4E356078
:1006E00033E02A4D284E35602FE01F4D2D1D2D681B
:1006F000C5F380541C4D2D1D2D6805F03F0154B1EC
:10070000224DB5FBF1F5184E361D3668C6F3881636
:1007100005FB06F209E01B4DB5FBF1F5124E361D47
:100720003668C6F3881605FB06F20F4D2D1D2D68A1
:10073000C5F301456D1C6B00B2FBF3F5124E35603D
:1007400003E0104D104E356000BF00BF064D083568
:100750002D68C5F303150E4E705D0B4D2D68C54019
:10076000094E356070BD0000003802400070004046
:1007700008544007003C024088ED00E0FFFFF6FE11
:10078000103000240024F4001C00002000127A0025
:10079000200000200948804709480047FEE7FEE79F
:1007A000FEE7FEE7FEE7FEE7FEE7FEE7FEE7FEE721
:1007B00004480549054A064B7047000061060008D9
:1007C000890100085833012058390120583501208B
:1007D0005835012032490143324A1160704770B5E3
:1007E000002100230F22C4781CB32E4C246804F48B
:1007F000E064C4F5E064C4F30721C1F10404E3B28A
:100800000A4144789C40E1B28478144021430C07AB
:10081000210E254C05786155047804F01F0501244C
:10082000AC4005786D11AD0005F1E025C5F800413B
:1008300009E0047804F01F050124AC401B4D067844
:10084000761145F8264070BD194A0A400243154BFF
:100850001B1F1A60704739B1124A121D12680243F9
:10086000104B1B1D1A6006E00E4A121D12688243CF
:100870000C4B1B1D1A607047042808D14FF0E02173
:10088000096941F004014FF0E022116107E04FF0E7
:10089000E021096921F004014FF0E0221161704765
:1008A0000000FA050CED00E000E400E080E100E06B
:1008B00080FFFF1F10B504469848844208D10121EB
:1008C000084600F086FB0021012000F082FB76E064
:1008D0009348844208D10121022000F07AFB0021D4
:1008E000022000F076FB6AE08E48844208D10121A4
:1008F000042000F06EFB0021042000F06AFB5EE0A3
:100900008948844208D10121082000F062FB0021BF
:10091000082000F05EFB52E08448844208D10121A7
:10092000102000F056FB0021102000F052FB46E0A2
:100930007F48844208D10121202000F04AFB002199
:10094000202000F046FB3AE07A48844208D1012199
:10095000402000F03EFB0021402000F03AFB2EE05A
:100960007548844208D10121802000F032FB00212B
:10097000802000F02EFB22E07048844208D1012143
:10098000801500F026FB0021A01500F022FB16E0E8
:100990006B48844208D10121401500F01AFB002168
:1009A000601500F016FB0AE06648844207D1012179
:1009B000001500F00EFB0021201500F00AFB10BD11
:1009C000F0B50A4600210023002400BF3DE00125C8
:1009D00005FA01F3156805EA03049C4234D1056861
:1009E0004F000326BE40B543056015794E00B54063
:1009F0000668354305601579012D02D01579022D61
:100A000016D185684F000326BE40B54385605579F1
:100A10004E00B540866835438560456801268E40A6
:100A2000B5434560456896798E40B6B2354345601A
:100A3000C5684F000326BE40B543C560D5794E005A
:100A4000B540C6683543C560491C1029BFD3F0BD09
:100A50004FF6FF7101600021017141718171C17117
:100A6000704708B54FF480320092009A0A43009212
:100A7000009AC261C161009AC261C2690092C269F2
:100A8000009208BD0246002013690B400BB1012003
:100A900000E0002070470146086980B270470246B6
:100AA000002053690B400BB1012000E0002070478B
:100AB0000146486980B2704701837047418370479F
:100AC0000AB1018300E04183704741617047426988
:100AD0004A4042617047F0B5002300244D07ED0EF7
:100AE00002FA05F3CE1000F1200555F826504E0706
:100AF000F70E0F26BE40B543CF1000F1200646F892
:100B00002750CE1000F1200555F8265045EA030481
:100B1000CE1000F1200545F82640F0BD000002404F
:100B20000004024000080240000C02400010024095
:100B30000014024000180240001C02400020024045
:100B40000024024000280240F948006840F00100FB
:100B5000F74908600020F64908310860F448006849
:100B6000F4490840F2490860F348091D0860F34859
:100B7000EF4984310860F0481038091D0860EC48DE
:100B8000006820F48020EA4908600020E8490C3120
:100B90000860E7498C31086070470021E44A921CE4
:100BA000117011460870704710B5014600220023ED
:100BB00000204A11012A02D1DD4C236808E0022AF4
:100BC00003D1DB4C7034236802E0D94C74342368C1
:100BD00001F01F02012494401C400CB1012000E0F0
:100BE000002010BD38B5002000900024002500BF73
:100BF0003120FFF7D9FF05460098401C009000986F
:100C0000B0F5A04F01D0002DF2D03120FFF7CCFF7E
:100C100008B1012400E00024204638BD0146002030
:100C2000C34A106820F0F80040EAC1001060704725
:100C3000C349086070470021BD4A703211701170BD
:100C4000012802D004280AD104E00121B84A7032F8
:100C5000117005E00521B64A7032117000E000BF46
:100C600000BF7047B7490860704770B5049C41EAFF
:100C700082150126C6EB530645EA0645054345EABB
:100C80000465AB4E361D356070BDAD4908667047D2
:100C9000820142EA0172A64B84331A607047A84968
:100CA0008866704710B5830143EA016343EA027323
:100CB0009F4C8834236010BDA14908677047A04944
:100CC000C864704702460020994B0833186820F02A
:100CD000EC6042EA01031843954B083318607047F3
:100CE00002460020924B0833186820F0784042EA10
:100CF000010318438E4B08331860704701460020EB
:100D00008B4A0832106820F00300084310607047D7
:100D100087480830006800F00C007047014600204A
:100D2000834A0832106820F0F000084310607047D2
:100D3000014600207E4A0832106820F4E050084343
:100D40001060704701460020794A0832106820F48C
:100D5000604040EAC10010607047F0B500210022F9
:100D60000024022500260223714F08373F6807F050
:100D70000C0121B1042905D0082937D105E0724FB3
:100D8000076036E0714F076033E0694F3F1D3F68F1
:100D9000C7F38056664F3F1D3F6807F03F036EB1B3
:100DA0006A4FB7FBF3F7DFF888C10CF1040CDCF8ED
:100DB00000C0CCF3881C07FB0CF40CE0624FB7FBBF
:100DC000F3F7DFF86CC10CF1040CDCF800C0CCF3D5
:100DD000881C07FB0CF4564F3F1D3F68C7F30147C3
:100DE0007F1C7D00B4FBF5F7076002E0564F0760FB
:100DF00000BF00BF4E4F08373F6807F0F0010909F8
:100E0000534F7A5C0768D7404760494F08373F68BF
:100E100007F4E051890A4E4F7A5C4768D7408760F3
:100E2000434F08373F6807F46041490B484F7A5CED
:100E30004768D740C760F0BD002100F44072B2F5AA
:100E4000407F0AD13A4A0832116821F4F811414A28
:100E500002401143364A08321160354A7032126836
:100E6000C0F30B031A43324B70331A607047354995
:100E70004439086070473349403908607047364943
:100E80000860704701460020294A8C32106820F023
:100E90001F004A1E1043264A8C32106070470146DC
:100EA0000020234A8C32106820F4F8504A1E40EA91
:100EB00002201F4A8C3210607047014600201C4AF5
:100EC0008C32106820F440100843106070470146CF
:100ED0000020174A8C32106820F44000084310604C
:100EE000704701460020124A8C32106820F44030CE
:100EF00008431060704719490860704739B10C4ABF
:100F00003032126802430A4B30331A6006E0084A56
:100F1000303212688243064B30331A607047F9B1A1
:100F2000034A343212680243014B34331A601CE026
:100F300000380240FFFFF6EA1030002400300020A5
:100F400000004742800E47420024F40000127A005D
:100F500030000020FFFCFF0F5C014742E0114742D8
:100F60008F4A126882438E4B1A60704739B18C4A9F
:100F7000121D126802438A4B1B1D1A6006E0884A44
:100F8000121D12688243864B1B1D1A60704739B1CF
:100F9000834A0C3212680243814B0C331A6006E01C
:100FA0007F4A0C32126882437D4B0C331A607047C3
:100FB00039B17B4A103212680243794B10331A6000
:100FC00006E0774A103212688243754B10331A607C
:100FD000704739B1724A243A12680243704B243B7D
:100FE0001A6006E06E4A243A126882436C4B243B36
:100FF0001A60704739B16A4A203A12680243684B56
:10100000203B1A6006E0664A203A12688243644B2D
:10101000203B1A60704739B1614A1C3A126802439A
:101020005F4B1C3B1A6006E05D4A1C3A1268824323
:101030005B4B1C3B1A60704739B1594A143A12682D
:101040000243574B143B1A6006E0554A143A1268A3
:101050008243534B143B1A60704739B1504A103ADF
:10106000126802434E4B103B1A6006E04C4A103A9D
:10107000126882434A4B103B1A60704739B1484AA4
:101080001C3212680243464B1C331A6006E0444A85
:101090001C3212688243424B1C331A60704739B1CC
:1010A0003F4A2032126802433D4B20331A6006E06B
:1010B0003B4A203212688243394B20331A60704712
:1010C00039B1374A243212680243354B24331A604F
:1010D00006E0334A243212688243314B24331A60CB
:1010E000704739B12E4A2C32126802432C4B2C33F4
:1010F0001A6006E02A4A2C3212688243284B2C33AD
:101100001A60704739B1264A303212680243244BC4
:1011100030331A6006E0224A303212688243204B94
:1011200030331A607047012808D11D493C310968E5
:1011300041F008011A4A3C32116007E018493C317D
:10114000096821F00801164A3C321160704739B134
:10115000134A273A12780243114B273B1A7006E0D4
:101160000F4A273A127882430D4B273B1A7070477B
:101170000B484030006840F08070094940310860F9
:10118000704701460020064A283A12680A400AB110
:10119000012000E00020704701492639087070479F
:1011A0003438024010B501218803FFF756FF0021B3
:1011B0004FF48040FFF751FF10BD1C490860704795
:1011C0001B490862704730B500228B071C0F0F23A4
:1011D00003FA04F2154B08338C1053F82430934370
:1011E000124C08348D1044F8253023468C1053F8E7
:1011F00024308C07240F00FA04F423430B4C0834EA
:101200008D1044F8253030BD0949DC310860704745
:10121000084908607047002004492031096801F43A
:10122000807109B1012000E00020704700380140C2
:10123000000027420004274210B50446FA488442C1
:1012400008D101211020FFF708FF00211020FFF72F
:1012500004FF57E0F548844209D101214804FFF713
:10126000EBFE00214FF40030FFF7E6FE4AE0F048C5
:10127000844209D101218804FFF7DEFE00214FF4EA
:101280008020FFF7D9FE3DE0EA48844209D10121E0
:10129000C804FFF7D1FE00214FF40020FFF7CCFE79
:1012A00030E0E548844209D101210805FFF7C4FE7A
:1012B00000214FF48010FFF7BFFE23E0DF48844297
:1012C00008D101212020FFF7C8FE00212020FFF7D0
:1012D000C4FE17E0DA48844209D101218807FFF7EC
:1012E000ABFE00214FF08040FFF7A6FE0AE0D54894
:1012F000844207D101214005FFF79EFE00216005D1
:10130000FFF79AFE10BD2DE9FF4705460E46002463
:10131000A14600BFA046B08900B100BF2C8A24F4CA
:101320004054F08804432C82AC8941F20C60844321
:10133000B08831890843718908430443AC81AC8A81
:1013400024F44074B0890443AC826846FFF705FD7D
:10135000B548854202D0B948854202D1DDF80C90EB
:1013600001E0DDF80890A88900F4004040B109EBE5
:10137000C90000EB091031684900B0FBF1F707E044
:1013800009EBC90000EB091031688900B0FBF1F7E7
:101390006420B7FBF0F004012009642101FB107800
:1013A000A88900F4004040B1322000EBC800B0FB37
:1013B000F1F000F00700044308E0322000EB0810D1
:1013C0006421B0FBF1F000F00F0004432C81BDE874
:1013D000FF874FF41651016000218180C180018197
:1013E0000C21418100218181704710B50246002007
:1013F000108A20F470600B884C8823438C88234328
:10140000CC8823431843108210BD00210180418005
:101410008180C180704721B1828942F4005282816B
:1014200004E082894DF6FF731A4082817047028B77
:1014300002F47F420283028B0A430283704721B188
:10144000828942F40042828103E08289C2F30E0263
:101450008281704721B1828A42F40062828204E074
:10146000828A4FF2FF731A4082827047C1F30802EA
:101470008280704701468888C0F308007047028A5E
:101480004FF6F0731A400282028A0A4302827047C2
:1014900021B1828942F00202828104E082894FF602
:1014A000FD731A408281704782894FF2FF731A40A0
:1014B000828182890A4382817047028A4FF6DF73F4
:1014C0001A400282028A0A430282704721B1028ACC
:1014D00042F48042028204E0028A4BF6FF731A4013
:1014E00002827047818941F001018181704721B1F9
:1014F000828A42F00802828204E0828A4FF6F77301
:101500001A4082827047028BD2B20283028B42EA77
:1015100001220283704721B1828A42F02002828236
:1015200004E0828A4FF6DF731A408282704721B14D
:10153000828A42F01002828204E0828A4FF6EF73C0
:101540001A4082827047828A4FF6FB731A40828269
:10155000828A0A438282704721B1828A42F0020263
:10156000828204E0828A4FF6FD731A4082827047BD
:101570001AB1838A0B43838202E0838A8B4383827E
:101580007047F0B50346002400260025002040F6F1
:101590006A17B94200D100BF1846C1F3421401F0E6
:1015A0001F06012707FA06F5012C01D10C3004E0D3
:1015B000022C01D1103000E014301AB107682F431B
:1015C000076002E00768AF430760F0BD02460020F5
:1015D000B1F5007F00D100BF13880B400BB1012093
:1015E00000E00020704701F40072B2F5007F00D1E6
:1015F00000BFCA430280704770B502460024002332
:101600000025002040F66A16B14200D100BFC1F3A8
:10161000421501F01F03012606FA03F3012D13D131
:101620009689334017E0000000100140004400405C
:1016300000480040004C00400050004000140140B1
:1016400000780040007C0040022D02D1168A334011
:1016500001E0968A33400C12012606FA04F416883B
:10166000344013B10CB1012000E0002070BD10B572
:101670000022002340F66A14A14200D100BF0A12E2
:1016800001249440A3B2DC43048010BD10B504468D
:10169000FE48844208D101210846FFF7DEFC002104
:1016A0000120FFF7DAFC9DE0B4F1804F08D1012161
:1016B0000846FFF7C1FC00210120FFF7BDFC91E0C7
:1016C000F348844208D101210220FFF7B5FC002134
:1016D0000220FFF7B1FC85E0EE48844208D10121E9
:1016E0000420FFF7A9FC00210420FFF7A5FC79E006
:1016F000E948844208D101210820FFF79DFC002120
:101700000820FFF799FC6DE0E448844208D10121EC
:101710001020FFF791FC00211020FFF78DFC61E005
:10172000DF48844208D101212020FFF785FC0021F9
:101730002020FFF781FC55E0DA48844208D10121DE
:101740000220FFF78AFC00210220FFF786FC49E017
:10175000D548844209D101210804FFF77EFC00210D
:101760004FF48030FFF779FC3CE0D048844209D147
:1017700001214804FFF771FC00214FF40030FFF70E
:101780006CFC2FE0CA48844209D101218804FFF78C
:1017900064FC00214FF48020FFF75FFC22E0C54885
:1017A000844208D101214020FFF746FC002140205F
:1017B000FFF742FC16E0C048844208D10121802096
:1017C000FFF73AFC00218020FFF736FC0AE0BB4817
:1017D000844207D101218015FFF72EFC0021A015BE
:1017E000FFF72AFC10BD00220288A84B98420ED0B9
:1017F000AC4B98420BD0B0F1804F08D0A44B98422C
:1018000005D0A44B984202D0A34B984204D14FF686
:101810008F731A404B881A43A04B984207D0A04BB5
:10182000984204D04FF6FF431A400B891A430280B6
:101830004B68C3620B880385944B984202D0994B46
:10184000984201D18B7A03860123838270474FF03F
:10185000FF31416000210180018141808172704728
:101860000185828270470A46002101884FF68F73F6
:10187000194011430180704741627047C16270474F
:101880000146486A70470146088D704721B10288B9
:1018900042F00202028004E002884FF6FD731A4013
:1018A0000280704721B1028842F00402028004E005
:1018B00002884FF6FB731A400280704721B10288FC
:1018C00042F08002028004E002884FF67F731A40E3
:1018D0000280704702884FF6F7731A400280028830
:1018E0000A430280704702884FF6FF431A40028085
:1018F00002880A430280704721B1028842F0010247
:10190000028004E002884FF6FE731A40028070479E
:1019100070B5002400220023058C4FF6FE7635407A
:101920000584028C8388048B4FF68F752C40B51E7E
:101930002C400D882C43751E2A408D892A434D88E2
:101940002A43524DA84202D0564DA84213D14FF619
:10195000F7752A40CD892A434FF6FB752A408D88BA
:101960002A434FF6FF652B404FF6FF552B400D8A5B
:101970002B434D8A2B43838004838D684563028407
:1019800070BD70B5002400220023058C4FF6EF7661
:1019900035400584028C8388048B48F6FF752C4003
:1019A0004FF6FF452C400D884FF6FF7606EA0525D9
:1019B0002C434FF6DF752A408D8906EA05152A4328
:1019C0004D8806EA05152A43304DA84202D0354D10
:1019D000A8421DD14FF67F752A40CD894FF6FF767C
:1019E00006EA05152A434FF6BF752A408D8806EA98
:1019F00005152A434FF6FF352B404FF2FF752B405C
:101A00000D8A06EA85052B434D8A06EA85052B4398
:101A1000838004838D688563028470BD70B5002463
:101A200000220023058C4FF6FF6635400584028CAA
:101A30008388848B4FF68F752C404FF6FC752C40B5
:101A40000D882C434FF6FF552A408D894FF6FF76BF
:101A500006EA05252A434D8806EA05252A430B4D4B
:101A6000A84202D00F4DA84238D14FF2FF752A404C
:101A7000CD894FF6FF7606EA05252A434FF6FF3556
:101A80002A408D8806EA05252A4319E00000014016
:101A90000004004000080040000C0040001000401E
:101AA0000014004000040140004001400044014097
:101AB0000048014000180040001C00400020004089
:101AC0004EF6FF752B404DF6FF752B400D8A06EA4A
:101AD00005152B434D8A06EA05152B438380848325
:101AE0008D68C563028470BD70B500220023002498
:101AF000058C4EF6FF7635400584038C8488828BF6
:101B000048F6FF752A404FF6FF452A400D884FF6EC
:101B1000FF7606EA05252A434DF6FF752B408D8991
:101B200006EA05352B434D8806EA05352B43FE4D65
:101B3000A84202D0FD4DA84208D14BF6FF752C40BB
:101B40000D8A4FF6FF7606EA85152C438480828342
:101B50008D680564038470BD00210180418081800F
:101B600081608181C18101824182704770B50346E5
:101B7000002000241846183001258D40ACB21D8C81
:101B8000A5431D8409B108290AD100EB610005684D
:101B90004FF68F76354005600568154305600FE008
:101BA0000D1FC5F34E052844056848F6FF763540FD
:101BB000056005684FF6FF7606EA022635430560A4
:101BC00070BD4163704781637047C16370470164B2
:101BD00070470A460021018B4FF68F73194011435D
:101BE000018370470A460021018B48F6FF731940B4
:101BF0004FF6FF7303EA02231943018370470A4635
:101C00000021818B4FF68F731940114381837047F8
:101C10000A460021818B48F6FF7319404FF6FF7387
:101C200003EA02231943818370470A460021018B8E
:101C30004FF6F77319401143018370470A4600219C
:101C4000018B4FF2FF7319404FF6FF7303EA022333
:101C50001943018370470A460021818B4FF6F773C1
:101C600019401143818370470A460021818B4FF24E
:101C7000FF7319404FF6FF7303EA02231943818370
:101C800070470A460021018B4FF6FB731940114340
:101C9000018370470A460021018B4FF6FF3319403C
:101CA0004FF6FF7303EA02231943018370470A4684
:101CB0000021818B4FF6FB731940114381837047DC
:101CC0000A460021818B4FF6FF3319404FF6FF7310
:101CD00003EA02231943818370470A460021018BDE
:101CE0004FF67F7319401143018370470A46002164
:101CF000018BC1F30E014FF6FF7303EA0223194370
:101D0000018370470A460021818B4FF67F7319408B
:101D10001143818370470A460021818BC1F30E0174
:101D20004FF6FF7303EA02231943818370470A4683
:101D30000021018C4FF6FD73194011430184704757
:101D40000A460021018C4FF6F773194011430184B4
:101D500070470A460021018C4FF6DF7319404FF699
:101D6000FF7303EA02131943018470470A460021F6
:101D7000018C4FF67F7319404FF6FF7303EA02138D
:101D80001943018470470A460021018C4FF6FF5326
:101D900019404FF6FF7303EA022319430184704789
:101DA0000A460021018C4FF2FF7319404FF6FF7372
:101DB00003EA02231943018470470A460021018C7B
:101DC0004DF6FF7319404FF6FF7303EA02331943D0
:101DD0000184704730B5002301248C40A3B2048CE9
:101DE0009C430484048C02FA01F5ADB22C430484B4
:101DF00030BD30B5002304248C40A3B2048C9C4336
:101E00000484048C02FA01F5ADB22C43048430BD85
:101E1000828B4FF2FF331A408283828B4FF6FF731F
:101E200003EA01231A4382837047F0B50C46154636
:101E3000002100220026078C4EF6FF7C07EA0C07E3
:101E40000784818B028C4FF6FF7707EA043640F651
:101E5000FF4739404FF6FF7707EA052739434FF62A
:101E6000FF7707EA0337394345F6FF773A4046F4F0
:101E700080573A4381830284F0BD828B4FF6F3731F
:101E80001A408283828B0A4382837047F0B50C46E6
:101E90001546002100220026078C4FF6FF6C07EA4A
:101EA0000C070784818B028C4FF6FF7707EA042624
:101EB0004FF60C7739404FF6FF7707EA03172F43A9
:101EC00039434FF2FF573A4046F480773A438183D3
:101ED0000284F0BD028B4FF2FF331A400283028B63
:101EE0004FF6FF7303EA01231A4302837047F0B5EC
:101EF0000C461546002100220026078C4FF6EF7C89
:101F000007EA0C070784018B028C4FF6FF7707EA7C
:101F1000041640F6FF4739404FF6FF7707EA0337CC
:101F200039434FF6FF7703E0000001400004014011
:101F300007EA052739434FF65F773A4046F0100726
:101F40003A4301830284F0BD028B4FF6F3731A40CB
:101F50000283028B0A4302837047F0B50C46154694
:101F600000210022068C4FF6FE773E400684018B4E
:101F7000028C4FF60C7631407E1C06EA03162E4387
:101F800031434FF6F576324044F001063243018387
:101F90000284F0BD70B505460C46208850B92389EF
:101FA000A28861882846FFF7D8FFE1882846FFF716
:101FB000CBFF25E0208804280AD12389A2886188E4
:101FC0002846FFF794FFE1882846FFF783FF17E0D4
:101FD000208808280AD12389A28861882846FFF72B
:101FE00055FFE1882846FFF748FF09E02389A288CA
:101FF00061882846FFF719FFE1882846FFF708FFA8
:1020000070BD002101804180012181800021C180BB
:10201000018170472DE9F04105460C460026012755
:10202000608808B9022600E00026A088012801D1B6
:10203000022700E001272088A0B92389A2886188AF
:102040002846FFF78AFFE1882846FFF77DFF2389AE
:102050003A4631462846FFF74AFFE1882846FFF70F
:1020600039FF13E02389A28861882846FFF73FFFE4
:10207000E1882846FFF72EFF23893A463146284655
:10208000FFF76BFFE1882846FFF75EFFBDE8F081B0
:102090000146486B70470146886B70470146C86B24
:1020A00070470146086C70470A884B881A438B8832
:1020B0001A43CB881A430B891A434B891A438B89DD
:1020C0001A43A0F84420704700210180418081809C
:1020D000C180018141818181704731B1B0F84420D4
:1020E00042F40042A0F8442005E0B0F84420C2F3D6
:1020F0000E02A0F84420704721B1828842F0040209
:10210000828004E082884FF6FB731A408280704719
:1021100021B1828842F00102828004E082884FF679
:10212000FE731A40828070471AB183890B43838102
:1021300002E083898B438381704781827047024626
:102140000020138A0B400BB1012000E000207047F3
:10215000CA430282704730B50246002000230024A3
:10216000158A05EA0103958905EA010413B10CB14A
:10217000012000E0002030BDCA430282704741EADE
:102180000203A0F8483070471AB183890B4383815A
:1021900002E083898B438381704721B1828842F0BA
:1021A0000802828004E082884FF6F7731A4082802A
:1021B000704701894FF6F8721140018170470A4655
:1021C000002101894FF68F73194011430181704737
:1021D00030B504460D4629462046FFF7F0FF20891A
:1021E00040F00700208130BD2DE9F04104460D4646
:1021F00016461F46602D06D13B4601223146204639
:10220000FFF775FE05E03B46012231462046FFF709
:10221000A4FE29462046FFF7D2FF208940F00700A0
:102220002081BDE8F08130B50C4600210189C9B29A
:102230004FF6FF7505EA0325154325432943018120
:1022400030BD2DE9F04105460E461746984600245C
:1022500043463A4631462846FFF7E5FF2C894FF6BC
:10226000F870044044F007044FF68F70044044F0C7
:1022700070042C81BDE8F081F0B504460D46164689
:102280001F463B46324629462046FFF7CCFF2089B1
:1022900040F480402081F0BD82884FF68F731A4051
:1022A000828082880A438280704702894FF6F873E1
:1022B0001A40028102890A430281704702894FF65F
:1022C0007F731A40028102890A4302817047F0B588
:1022D0000C4615461E460021002200230189028B70
:1022E000038C4FF6F877394021434FF6FC473A40CC
:1022F00040F201173A434FF6DD773B404FF6FF7748
:1023000007EA06172F433B43018102830384F0BD94
:1023100021B1828842F08002828004E082884FF6F8
:102320007F731A4082807047A0F8501070470000F9
:1023300010B50446FE48844209D101214806FEF743
:102340007BFE00214FF00070FEF776FE08E00121D1
:102350008806FEF771FE00214FF08060FEF76CFEEC
:1023600010BD30B5024600200023146824F002049A
:102370001460146844F00104146000E05B1C5468AD
:1023800004F001041CB94FF6FF74A342F6D154685F
:1023900004F001040CB900206CE08C79012C04D10C
:1023A000146844F08004146003E0146824F080048E
:1023B0001460CC79012C04D1146844F040041460FA
:1023C00003E0146824F0400414600C7A012C04D15A
:1023D000146844F02004146003E0146824F020041E
:1023E00014604C7A012C04D1146844F01004146079
:1023F00003E0146824F0100414608C7A012C04D1DA
:10240000146844F00804146003E0146824F008041D
:102410001460CC7A012C04D1146844F004041460D4
:1024200003E0146824F0040414608C78A407CD78C9
:1024300044EA05640D7944EA05444D7944EA0554BB
:102440000D886D1E2C43D461146824F001041460BF
:10245000002300E05B1C546804F001041CB14FF63B
:10246000FF74A342F6D1546804F001040CB10020BB
:1024700000E0012030BD10B50021837A012202FA6C
:1024800003F1AC4A126842F00102AA4B1A60A94A51
:102490001C3212688A43A74B1C331A60027BCAB9EC
:1024A000A44A0C3212688A43A24B0C331A60428849
:1024B000C38842EA03439F4A4032847A42F8343068
:1024C0000288838842EA03439A4A4032847A02EBC4
:1024D000C4025360027B012A19D1964A0C32126859
:1024E0000A43944B0C331A604288038842EA034340
:1024F000904A4032847A42F83430C288838842EA73
:1025000003438C4A4032847A02EBC4025360C27A9D
:102510003AB9884A121D12688A43864B1B1D1A60FD
:1025200006E0844A121D12680A43824B1B1D1A6082
:10253000028932B97F4A143212688A437D4B1433C0
:102540001A600289012A06D17A4A143212680A43B3
:10255000784B14331A60427B012A06D1754A1C322B
:1025600012680A43734B1C331A60724A126822F0D5
:102570000102704B1A6010BD00218171C17101729E
:1025800041728172C1728170C17003210171022197
:1025900041710121018070476649096841F00101DC
:1025A000644A11601146096843F60E729143614A0C
:1025B00011601146096841EA00211160114609685D
:1025C00021F001011160704721B1026842F48032AC
:1025D000026003E0026822F4803202607047E1B1D9
:1025E000026842F0800202604FF4C272125842F454
:1025F00080734FF4C27213504FF4CA72125842F4EF
:1026000080734FF4CA7213504FF4D272125842F4CE
:1026100080734FF4D27213501BE0026822F08002E4
:1026200002604FF4C272125822F480734FF4C272E7
:1026300013504FF4CA72125822F480734FF4CA72C6
:1026400013504FF4D272125822F480734FF4D272A6
:102650001350704710B502460020936803F0806362
:10266000B3F1806F00D110E0936803F00063B3F121
:10267000006F01D1012008E0936803F08053B3F1AB
:10268000805F01D1022000E00420042879D002F507
:10269000C07303EB00131B6803F0010402F5C07361
:1026A00003EB00131C600B7A7BB94B7A0C8843EA6E
:1026B000445302F5C07404EB00142468234302F56C
:1026C000C07404EB0014236010E00B7A4C6843EAFA
:1026D000C4034C7A234302F5C07404EB001424684D
:1026E000234302F5C07404EB001423608B7A03F0DB
:1026F0000F038B7202F5C07303EB00135B6823F0CA
:102700000F0402F5C07303EB00135C6002F5C073A5
:1027100003EB00135B688C7A234302F5C07404EB6F
:10272000001463608B7B1C064B7B44EA034403E08C
:1027300000640040006600400B7B44EA0323CC7A2F
:10274000234302F5C07404EB0014A3608B7C1C06C9
:102750004B7C44EA03440B7C44EA0323CC7B2343B5
:1027600002F5C07404EB0014E36002F5C07303EBE0
:1027700000131B6843F0010402F5C07303EB001360
:102780001C6010BD10B50246002321B1012907D0FD
:1027900002290FD109E09068F94C00EA04030BE02C
:1027A0009068F84C00EA040306E09068F64C00EAF2
:1027B000040301E0002300BF00BFF44C181BA34238
:1027C00016D007DC83B16FF08060184470B1022826
:1027D00018D111E0B0F5007F10D0ED4C204448B185
:1027E000B0F5003F0ED10BE002230DE000230BE01B
:1027F000002309E0002307E0012305E0012303E0B3
:10280000012301E0002300BF00BFD8B210BD21B1F9
:10281000012907D002290FD109E0826842F0800225
:1028200082600AE0826842F40042826005E08268C9
:1028300042F40002826000E000BF00BF704710B5A4
:1028400000F5D87303EB01131B6803F00403137244
:10285000137A53B900F5D87303EB01131B6840F2E8
:10286000FF7404EA5353136009E000F5D87303EBD7
:1028700001131B686FF0604404EAD303536000F552
:10288000D87303EB01131B6803F00203537200F5C6
:10289000D87303EB01135B6803F00F03937200F529
:1028A000D87303EB01135B681B0AD37400F5D8736C
:1028B00003EB01139B68D37200F5D87303EB01138C
:1028C0009B681C0A147300F5D87303EB01139B6813
:1028D0001C0C547300F5D87303EB01139B681B0E9B
:1028E000937300F5D87303EB0113DB68D37300F522
:1028F000D87303EB0113DB681C0A147400F5D8735A
:1029000003EB0113DB681C0C547400F5D87303EB64
:102910000113DB681B0E937421B9C36843F02003D5
:10292000C36003E0036943F02003036110BD21B9D4
:10293000C26842F02002C26003E0026942F0200255
:10294000026170470246002019B9D36803F0030002
:1029500006E0012903D1136903F0030000E0002021
:10296000704710B502460B4600204FF6FF71BBB909
:10297000146824F0020444F00104146000E0491ECD
:10298000546804F00304012C01D00029F7D15468E5
:1029900004F00304012C01D0002032E0012030E0DB
:1029A000012B13D1146824F00304146000E0491EC5
:1029B000546804F003040CB10029F8D1546804F001
:1029C00003040CB100201CE001201AE0022B17D1F7
:1029D000146824F0010444F00204146000E0491E6D
:1029E000546804F00304022C01D00029F7D1546884
:1029F00004F00304022C01D0002002E0012000E0DA
:102A0000002010BD014600200A6822F0010242F0B9
:102A100002020A604A6802F00302022A00D1012081
:102A2000704701464FF6FF7200200B6823F0020347
:102A30000B6000E0521E4B6803F00203022B01D131
:102A4000002AF7D14B6803F00203022B00D00120CB
:102A50007047014600208A6902F070007047014605
:102A600000208A69100E7047014600208A69C2F36F
:102A7000074070471AB143690B43436102E0436961
:102A80008B434361704710B50246002001F4700388
:102A900043B19369C1F3130423400BB101202DE02E
:102AA00000202BE001F0807343B15368C1F313049D
:102AB00023400BB1012021E000201FE001F0006362
:102AC00043B19368C1F3130423400BB1012015E017
:102AD000002013E001F0007343B1D368C1F3130485
:102AE00023400BB1012009E0002007E01369C1F386
:102AF000130423400BB1012000E0002010BD002290
:102B0000244B994202D10023836111E0C1F31302E7
:102B100001F000730BB1C2600AE001F080630BB1F9
:102B2000026105E001F000630BB1826000E04260E9
:102B300070470246002002EA01030BB1012000E0C9
:102B40000020704770B504460D4600266069284095
:102B5000002872D0B5F5807F69D01DDC082D42D0E9
:102B600006DC012D2DD0022D31D0042D7FD134E093
:102B7000102D3ED0202D42D0402D78D145E00000D0
:102B80000300000400030008000003100001000817
:102B90000001FFF77000F030B5F5004F61D009DC9F
:102BA000B5F5007F4AD0B5F5806F4DD0B5F5006F13
:102BB0005DD150E0B5F5803F2DD0B5F5003F56D141
:102BC0002FE0A0685549FFF7B4FF064651E0E068E2
:102BD0000321FFF7AEFF06464BE0E0680821FFF750
:102BE000A8FF064645E0E0681021FFF7A2FF064671
:102BF0003FE020690321FFF79CFF064639E020698A
:102C00000821FFF796FF064633E020691021FFF701
:102C100090FF06462DE060680821FFF78AFF064610
:102C200027E060681021FFF784FF064621E0A069D5
:102C30000121FFF77EFF06461BE01BE0A069022191
:102C4000FFF777FF064614E0A0690421FFF771FF44
:102C500006460EE00BE0A0697021FFF76AFF06460A
:102C600007E060680421FFF764FF064601E00026E4
:102C700000BF00E00026304670BDB1F5007F3AD0BD
:102C80000FDC202928D006DC01291CD004291DD006
:102C9000082940D11DE0402921D0B1F5807F3AD1EB
:102CA00026E0B1F5004F31D006DCB1F5806F25D0BC
:102CB000B1F5006F2FD124E0B1F5803F12D0B1F50E
:102CC000003F28D111E0154A826025E00822C26049
:102CD00022E01022C2601FE0082202611CE01022E4
:102CE000026119E00822426016E01022426013E0FF
:102CF0000422426010E0042242600DE0042242609F
:102D00000AE0002282610422426005E00022826122
:102D10000422426000E000BF00BF704701010100D3
:102D2000002041490860091D0860091D0860091D4F
:102D300008603E483C4914310860704700213A4918
:102D40008279002A3AD00A46126803689A430B46F1
:102D50001A600A1D126803689A430B1D1A600279F3
:102D600011440A6803681A430A602F4A083212683D
:102D700003689A432C4B08331A601A1D12680368C3
:102D80009A43294B0C331A604279102A0ED11A1F2C
:102D9000126803681A43244B08331A601A1D12681C
:102DA00003681A43204B0C331A600DE01E49427928
:102DB00011440A6803681A430A6005E00279114465
:102DC0000A6803689A430A60704700210160017134
:102DD0000C2141710021817170471349103109683C
:102DE0000143114A103211607047014600200E4A1B
:102DF000143212680A400AB1012000E00020704736
:102E0000094914310860704701460020064A14320F
:102E100012680A400AB1012000E000207047024910
:102E20001431086070470000003C0140FFFF7F0044
:102E300010B503F051FB012801D004F02FFB10BDA9
:102E400070B504460420FDF717FD3248047025468E
:102E50004FF47A70454301202F4908804FF0E0205D
:102E6000006940F002004FF0E0210861084645612A
:102E7000006940F00100086170BD70B50346002292
:102E80004FF0E0267569234E367803FB06F44FF0C9
:102E9000E026B16910E04FF0E026B06988420BD01F
:102EA000884202D20E1A324402E02E1A0E443244F4
:102EB0000146A24200D300E0EDE700BF70BD70B54F
:102EC000044603F009FB012810D01348008884420F
:102ED00006D311480088B4FBF0F5284602F05BFDEC
:102EE0000D480088B4FBF0F100FB11444FF47A71F7
:102EF00004FB01F0FFF7C1FF70BD30B504460025AB
:102F000004E04FF47A70FFF7B8FF6D1CA542F8D3C8
:102F100030BD000040000020420000201CB501210F
:102F20001020FDF7EBFF0C20009001208DF804002D
:102F300000208DF8060003208DF8050001208DF893
:102F4000070069460348FDF73BFD0C210148FDF7EA
:102F5000B3FD1CBD00100240F94AB2FBF0F2521E54
:102F60004A436423B2FBF3F2F64B5A63F44AB2FBD2
:102F7000F0F2521E4A436423B2FBF3F2F14B9A6320
:102F8000EF4AB2FBF0F2521E4A436423B2FBF3F263
:102F9000EC4BDA63EA4AB2FBF0F2521E4A43642376
:102FA000B2FBF3F2E74B1A6470471CB50121102005
:102FB000FDF7A4FF01210846FDF7FAFF02208DF876
:102FC000040003208DF8050000208DF806008DF820
:102FD00007004FF4D44000906946DB48FDF7F0FC51
:102FE00001220921D848FDF776FD01220B21D648A0
:102FF000FDF771FD01220D21D348FDF76CFD012283
:103000000E21D148FDF767FD1CBD30B589B00446DF
:1030100000BFFFF7CAFFCA48B0FBF4F0451E00200E
:10302000ADF81800ADF81A000795ADF820008DF83E
:10303000220006A9C348FEF7D6FB6020ADF80400C5
:103040000120ADF806000020ADF810004FF48070AC
:10305000ADF8140032206843642190FBF1F0039036
:1030600001A9B848FEF754FC01A9B648FEF789FC4F
:1030700001A9B448FEF7D2FC01A9B248FEF734FD1D
:103080000121B048FEF738FC0121AE48FFF725F8D2
:1030900064212046FFF760FF09B030BDA84AB2FBAB
:1030A000F0F2521E4A436423B2FBF3F2A74B1A60BC
:1030B000A34AB2FBF0F2521E4A436423B2FBF3F27E
:1030C000A24B1B1D1A6070471CB501210420FDF79F
:1030D00015FF01210220FDF76BFF02208DF804008F
:1030E00003208DF8050000208DF806008DF80700FC
:1030F000C020009069469648FDF762FC0322062135
:103100009348FDF7E8FC032207219148FDF7E3FC13
:103110001CBD30B589B0044600BFFFF7D5FF884815
:10312000B0FBF4F0451E0020ADF81800ADF81A0011
:103130000795ADF820008DF8220006A983483438A1
:10314000FEF751FB6020ADF804000120ADF8060049
:103150000020ADF810004FF48070ADF8140032205C
:103160006843642190FBF1F0039001A9774834385B
:10317000FEF7CEFB01A975483438FEF702FC0121A9
:1031800072483438FEF7B8FB012170483438FEF736
:10319000A4FF64212046FFF781FF09B030BD1CB5B4
:1031A00001210820FDF7AAFE3F20009001208DF8A4
:1031B000040000208DF8060003208DF80500012092
:1031C0008DF8070069466348FDF7FAFB1C2161484A
:1031D000FDF772FC23215F48FDF770FC1CBD10B5A4
:1031E0000C215C48FDF768FC03215A48FDF766FC9A
:1031F00010BD10B50C215748FDF760FC0321554860
:10320000FDF75AFC10BD1CB501210B20FDF776FE21
:103210004FF48040009000208DF8040003208DF8CA
:10322000050001208DF8070069464B48FDF7C8FBF3
:103230004020009000208DF8040003208DF8050048
:1032400001208DF8070069464448FDF7B9FB4FF4AB
:103250007040009000208DF8040003208DF80500D8
:1032600001208DF8070069463A48FDF7A9FB1CBD0F
:103270000EB5FFF7C8FF01218803FDF799FE06216F
:103280000020FDF7A0FF4020009000208DF80400F2
:1032900008208DF8050001208DF806006846FFF72C
:1032A0004DFD17208DF808000E208DF80900002034
:1032B0008DF80A0001208DF80B0002A8FDF78FFAA7
:1032C0000C210320FDF77FFF0D210320FDF77BFF7D
:1032D0000E210320FDF777FF0F210320FDF773FF79
:1032E0004FF47040009000208DF8040008208DF805
:1032F000050001208DF806006846FFF71FFD282015
:103300008DF808000D208DF8090000208DF80A00C6
:1033100001208DF80B0002A8FDF761FA0EBD10B573
:103320004FF48050FFF770FD38B30D480078D8B9DE
:1033300006200C49886001200949087019E0000046
:10334000007A030A000001400010024034040140EA
:1033500000080240000C024000040240000002404D
:10336000460000202C04002033488068801D32492C
:1033700088604FF48050FFF752FD4FF40050FFF784
:1033800043FD90B12D48007830B906202A49C86025
:1033900001202A49087004E02748C068801D26499A
:1033A000C8604FF40050FFF73AFD4FF48040FFF73C
:1033B0002BFD90B12248007830B906201E490861E3
:1033C00001201F49087004E01B480069801D1A494C
:1033D00008614FF48040FFF722FD4FF40040FFF7F3
:1033E00013FD90B11748007830B9062012494861A2
:1033F00001201449087004E00F484069801D0E49FF
:1034000048614FF40040FFF70AFD10BD10B50E48AB
:10341000007840B906200849486000F06DFF01209F
:103420000949087004E004484068801D024948606A
:103430004020FFF7F4FC10BD2C04002047000020C2
:103440004800002049000020450000202DE9F041FF
:103450008AB004460D4616461F46DDF8408001211D
:103460000846FDF74BFD01214806FDF790FD4FF49E
:10347000C050089002208DF8240000208DF826000E
:1034800003208DF8250001208DF8270008A94C485D
:10349000FDF796FA09220B214948FDF71CFB09228A
:1034A0000C214748FDF717FB00208DF81A008DF816
:1034B0001B008DF81C0001208DF81D0000208DF8E8
:1034C0001E008DF81F008DF816808DF817408DF8BE
:1034D00018608DF81950ADF8147005A93948FEF739
:1034E00040FF00208DF80E008DF80F0001208DF8B0
:1034F00010000020ADF80400ADF80600ADF808009B
:10350000ADF80A00ADF80C0001208DF8110001A8FB
:10351000FEF7B1FF00200AB0BDE8F081F0B585B03C
:1035200007460D46002412200090019000208DF8DF
:1035300008008DF809008DF80A5000BF05E0395DDC
:103540000DF10B000155601C84B2AC42F7DB6946FB
:103550001C48FFF77FF80646002401E0601C84B297
:1035600031461848FFF70EF918B940F6FF7084424B
:10357000F4DB40F6FF70844202DB012005B0F0BDB1
:103580000020FBE730B585B0054600210D48FFF768
:10359000D9F910B9002005B030BD6A4600210948AC
:1035A000FFF74DF9002404E00DF10B00005D2855F4
:1035B000641C9DF80A00A042F6D89DF80A00EAE7CC
:1035C000000002400064004030B589B004460D465A
:1035D00001210420FDF7DBFC01210820FDF78EFC12
:1035E0004FF48050079002208DF8200003208DF8C2
:1035F000210000208DF8220002208DF8230007A969
:10360000FD48FDF7DDF902220C21FB48FDF763FAC6
:10361000ADF810500020ADF812000594ADF8180078
:1036200004A9F648FEF7DFF80020ADF80400ADF875
:1036300006000120ADF808000020ADF80A00ADF842
:103640000C0001A9ED48FEF7A5FC01220321EB487F
:10365000FEF76AFD0121E948FEF74EF91E208DF8BC
:1036600000000D208DF8010000208DF802000120DF
:103670008DF803006846FDF7B2F809B030BD30B5EB
:1036800089B004460D4601210420FDF780FC01218C
:103690000820FDF733FC4FF40050079002208DF80E
:1036A000200003208DF8210000208DF82200022048
:1036B0008DF8230007A9D048FDF782F902220D21D9
:1036C000CD48FDF708FAADF810500020ADF8120013
:1036D0000594ADF8180004A9C848FEF784F8042042
:1036E000ADF804000020ADF806000120ADF8080098
:1036F0000020ADF80A00ADF80C0001A9BF48FEF7A4
:1037000049FC01220521BD48FEF70EFD0121BB4801
:10371000FEF7F2F81E208DF800000C208DF8010055
:1037200000208DF8020001208DF803006846FDF7A7
:1037300056F809B030BD30B589B004460D460121B8
:103740000420FDF724FC01210820FDF7D7FB4FF4EE
:103750008040079002208DF8200003208DF8210082
:1037600000208DF8220002208DF8230007A9A2482E
:10377000FDF726F902220E219F48FDF7ACF9ADF8BE
:1037800010500020ADF812000594ADF8180004A9FF
:103790009A48FEF728F80820ADF804000020ADF89C
:1037A00006000120ADF808000020ADF80A00ADF8D1
:1037B0000C0001A99148FEF7EDFB012209218F4879
:1037C000FEF7B2FC01218D48FEF796F81E208DF819
:1037D00000000B208DF8010000208DF80200012070
:1037E0008DF803006846FCF7FAFF09B030BD30B52C
:1037F00089B004460D4601210420FDF7C8FB0121D4
:103800000820FDF77BFB4FF40040079002208DF865
:10381000200003208DF8210000208DF822000220D6
:103820008DF8230007A97448FDF7CAF802220F217A
:103830007148FDF750F9ADF810500020ADF81200B6
:103840000594ADF8180004A96C48FDF7CCFF0C20D6
:10385000ADF804000020ADF806000120ADF8080026
:103860000020ADF80A00ADF80C0001A96348FEF78E
:1038700091FB012211216148FEF756FC01215F48AE
:10388000FEF73AF81E208DF800000A208DF801009E
:1038900000208DF8020001208DF803006846FCF737
:1038A0009EFF09B030BD10B52DED088B01215348A6
:1038B000FEF751FC20B101215048FEF75DFCE4E128
:1038C00002214E48FEF747FC002868D002214B48F1
:1038D000FEF752FC4A48008840B94848FEF7D8FB3A
:1038E0004849088001204649088023E04448008870
:1038F00001281FD14148FEF7CBFB43490880084609
:10390000008840490988884207DD3F4800883D49D2
:103910000988401A3D49086009E03B4800884FF695
:10392000FF71081A3749098808443849086000209F
:1039300033490880354800683549B1FBF0F09628D6
:10394000BDD9324800683349B1FBF0F04FF48171C2
:10395000B0FBF1F0304908600846006805F015FE3C
:1039600041EC1B0B9FED2D0B53EC102B05F020FEB3
:1039700041EC1A0B9FED2B0B53EC102B05F018FEAE
:1039800041EC190B9FED290B53EC102B05F076FC45
:1039900041EC180B05F0CAFD2649886075E1042149
:1039A0001648FEF7D8FB00287ED004211348FEF706
:1039B000E3FB2148008840B91048FEF76CFB1F4923
:1039C000088001201C4908804BE01B480088012822
:1039D00047D10A48FEF75FFB19490880084600886E
:1039E0001649098888422FDD15480088134909883F
:1039F000401A1449086031E0000C02400008004001
:103A0000500000204C0000204E00002058000020F4
:103A10008096980000CA9A3B540000201F85EB5105
:103A2000B81E094000000000008046400000000071
:103A300000408F4044040020600000205C00002013
:103A40005E00002068000020914800884FF6FF715A
:103A5000081A9049098808448F49086000208F4956
:103A600008808D4800688E49B1FBF0F0962895D902
:103A7000894800688B49B1FBF0F04FF48171B0FBCD
:103A8000F1F0894908600846006805F07EFD41ECC8
:103A90001B0B1FED1E0B53EC102B05F089FD41ECA9
:103AA0001A0B1FED200B00E012E053EC102B05F079
:103AB0007FFD41EC190B1FED230B53EC102B05F090
:103AC000DDFB41EC180B05F031FD7849C860DCE006
:103AD00008217748FEF73FFB002868D0082174488A
:103AE000FEF74AFB7348008840B97148FEF7D6FAE2
:103AF0007149088001206F49088023E06D480088E3
:103B000001281FD16A48FEF7C9FA6C4908800846A7
:103B1000008869490988884207DD68480088664945
:103B20000988401A6649086009E0644800884FF631
:103B3000FF71081A6049098808446149086000203B
:103B40005C4908805E4800685549B1FBF0F0962852
:103B50002CD95B4800685349B1FBF0F04FF48171F8
:103B6000B0FBF1F0574908600846006805F00DFD0C
:103B700041EC1B0B1FED570B53EC102B05F018FD00
:103B800041EC1A0B1FED590B53EC102B05F010FDF7
:103B900041EC190B1FED5B0B53EC102B05F06EFB8A
:103BA00041EC180B05F0C2FC404908616DE01021A2
:103BB0003F48FEF7D0FA002867D010213C48FEF7B6
:103BC000DBFA4148008840B93948FEF76AFA3F49B4
:103BD000088001203C49088023E03B4800880128F8
:103BE0001FD13348FEF75DFA39490880084600883E
:103BF00036490988884207DD3548008833490988F5
:103C0000401A3449086009E0314800884FF6FF71D6
:103C1000081A2E49098808442E49086000202A49BC
:103C200008802C4800681E49B1FBF0F096282CD97A
:103C3000284800681B49B1FBF0F04FF48171B0FBDC
:103C4000F1F0254908600846006805F09EFC41EC4B
:103C50001B0B1FED8E0B53EC102B05F0A9FC41EC58
:103C60001A0B1FED900B53EC102B05F0A1FC41EC4F
:103C7000190B1FED920B53EC102B05F0FFFA41ECE2
:103C8000180B05F053FC09494861BDEC088B10BDC9
:103C90005E0000205C000020680000206000002022
:103CA0008096980000CA9A3B6400002044040020DB
:103CB00000080040700000206C0000206E00002012
:103CC0007800002074000020800000207C0000208C
:103CD0007E000020880000208400002030B589B0DC
:103CE00004460D4601214020FDF751F90121022033
:103CF000FDF704F94FF48040079002208DF8200072
:103D000003208DF8210000208DF8220002208DF87C
:103D1000230007A95D48FCF753FE09220E215B48EA
:103D2000FCF7D9FEADF810500020ADF81200059454
:103D3000ADF8180004A95648FDF755FD0020ADF870
:103D40000400ADF806000120ADF808000020ADF831
:103D50000A00ADF80C0001A94D48FEF71BF901223D
:103D600003214B48FEF7E0F901214948FDF7C4FD66
:103D70002B208DF8000002208DF8010001208DF825
:103D800002008DF803006846FCF729FD09B030BD3C
:103D900010B52DED088B01213D48FEF7DCF920B16F
:103DA00001213B48FEF7E8F938E002213848FEF7E8
:103DB000D2F998B302213648FEF7DEF9354800887B
:103DC00040B93348FEF764F933490880012031498E
:103DD000088023E02F48008801281FD12C48FEF7D7
:103DE00057F92E490880084600882B4909888842DF
:103DF00007DD2A48008828490988401A28490860B0
:103E000009E0264800884FF6FF71081A2249098800
:103E100008442349086000201E49088020480068A3
:103E20002049B1FBF0F096282CD91D4800681E49A6
:103E3000B1FBF0F04FF48171B0FBF1F01B49086069
:103E40000846006805F0A1FB41EC1B0B9FED180B29
:103E500053EC102B05F0ACFB41EC1A0B9FED160B4D
:103E600053EC102B05F0A4FB41EC190B9FED140B48
:103E700053EC102B05F002FA41EC180B05F056FB41
:103E800011490860BDEC088B10BD00000004024021
:103E900000180040900000208C0000208E000020C0
:103EA000940000208096980000CA9A3B9800002059
:103EB0001F85EB51B81E09400000000000804640FD
:103EC0000000000000408F404404002010B544F67C
:103ED0002060FFF79AF844F62060FFF71AF9FFF721
:103EE0005EF9FFF7C5F942F2CF0140F2E73000F08A
:103EF000DBF910BD014600EE101AB8EE400ADFED06
:103F0000650A20EE200ADFED640A20EE200ADFEDCC
:103F1000630A20EE200ADFED620A80EE201ABCEE72
:103F2000C10A10EE100A704770B504460D465D4890
:103F30000068E0605B48806860602178491E5A4AEA
:103F400052F82100FFF7D6FFA0602A46D4E901010C
:103F500004F0ADFF064600EBD670216901EB60006E
:103F600020612069002802DA0020206104E0206935
:103F7000642801DD64202061E06848B1012804D094
:103F8000022806D1FFF72BF904E0FFF732F901E030
:103F900000BF00BF00BF207807284ED2DFE800F046
:103FA0004D04101C283440002069C0F1640042F226
:103FB000CF014843642190FBF1F03C4908643DE0A7
:103FC0002069C0F1640042F2CF014843642190FBB4
:103FD000F1F03649C86331E02069C0F1640042F273
:103FE000CF014843642190FBF1F03049886325E01C
:103FF0002069C0F1640042F2CF014843642190FB84
:10400000F1F02A49486319E02069C0F1640042F2E6
:10401000CF014843642190FBF1F0254908600DE091
:104020002069C0F1640042F2CF014843642190FB53
:10403000F1F01F49091D086000E000BF00BF70BD1E
:1040400008700222CA6000224A600A618A607047D2
:1040500010B502460B46002100BF16E052F82100C1
:10406000144C44F82100204650F82100124C54F81A
:104070002140001B0C4C44F821000E4850F8210050
:104080000D4C44F82100481CC1B2581E8842E5DAA4
:1040900010BD0000C3F54840000034420000C84293
:1040A00000F82747240200205C04002000000140A3
:1040B00034040140740400208C04002030B589B021
:1040C00004460D4601218020FCF761FF01210846CE
:1040D000FCF714FF4020079002208DF820000320F9
:1040E0008DF8210000208DF8220002208DF8230099
:1040F00007A95D48FCF764FC092206215A48FCF731
:10410000EAFCADF810500020ADF812000594ADF8AF
:10411000180004A95548FDF766FB0020ADF804001F
:10412000ADF806000120ADF808000020ADF80A0047
:10413000ADF80C0001A94D48FDF72CFF0122032129
:104140004A48FDF7F1FF01214848FDF7D5FB2C2037
:104150008DF8000002208DF8010001208DF802008A
:104160008DF803006846FCF73AFB09B030BD10B586
:104170002DED088B01213D48FDF7EDFF20B1012118
:104180003A48FDF7F9FF38E002213848FDF7E3FF30
:1041900098B302213548FDF7EFFF3548008840B954
:1041A0003248FDF775FF3349088001203049088007
:1041B00023E02F48008801281FD12C48FDF768FF15
:1041C0002D490880084600882A490988884207DD69
:1041D0002948008827490988401A2849086009E0C9
:1041E000254800884FF6FF71081A224909880844BB
:1041F0002249086000201E490880204800682049A4
:10420000B1FBF0F096282CD91C4800681D49B1FB81
:10421000F0F04FF48171B0FBF1F01B4908600846E3
:10422000006805F0B2F941EC1B0B9FED180B53EC45
:10423000102B05F0BDF941EC1A0B9FED160B53EC5A
:10424000102B05F0B5F941EC190B9FED140B53EC55
:10425000102B05F013F841EC180B05F067F9114924
:104260004860BDEC088B10BD00000240001C0040FF
:10427000A00000209C0000209E000020A400002040
:104280008096980000CA9A3BA80000201F85EB5139
:10429000B81E0940000000000080464000000000F9
:1042A00000408F40440400207FB505460C460121A4
:1042B0000820FCF76CFE0295ADF804400020ADF834
:1042C0000600ADF80C0001A91A48FDF78CFA01228E
:1042D00011461848FDF728FF32208DF8000009200C
:1042E0008DF8010000208DF8020001208DF80300F8
:1042F0006846FCF774FA7FBD10B501210D48FDF743
:10430000FBFA10BD10B501210A48FDF724FF012872
:104310000BD10948006808B9012000E000200649D7
:10432000086006210548FFF793FE01210148FDF7CB
:1043300023FF10BD000C0040880242422C040020E4
:1043400000F1080141604FF0FF31816000F1080188
:10435000C160016100210160704700210161704767
:1043600042684A6093688B60936859609160086105
:1043700003685B1C0360704710B502460B685C1C49
:104380000CB9106907E002F1080000E040684468D9
:1043900024689C42FAD944684C604C68A1608860EB
:1043A00041600A611468641C146010BD01460A690A
:1043B000D1E901309860D1E9010358605068884222
:1043C00001D188685060002008611068401E1060AC
:1043D0001068704770B505460E462C4654B900BFAC
:1043E000502080F31188BFF34F8FBFF36F8F00BF52
:1043F00000BFFEE703F00FF8D4E90F12206801FBBD
:104400000200A0600020A06320686060E06B401E96
:10441000226C216800FB0211E160FF2084F8440057
:1044200084F845009EB9206908B9012000E0002009
:10443000A8B904F1100001F039FF80B14FF08050AD
:10444000FA490860BFF34F8FBFF36F8F07E004F1A5
:104450001000FFF775FF04F12400FFF771FF03F070
:1044600001F8012070BD2DE9F04106460D461746C2
:104470009846069C0DB9246000E02760E663256439
:1044800001212046FFF7A6FF84F84C80BDE8F081AB
:104490002DE9F84305460E4690460DB1012000E097
:1044A000002050B900BF502080F31188BFF34F8F18
:1044B000BFF36F8F00BF00BFFEE70EB9002701E01A
:1044C00005FB06F707F1500003F0A9F804464CB1CC
:1044D000A14609F1500943464A4631462846009410
:1044E000FFF7C1FF2046BDE8F88370B5044602F02F
:1044F00092FF94F9455010E0606A08B9012000E08D
:10450000002038B904F1240001F0D0FE18B101F008
:10451000D1FF00E003E0681E45B2002DECDC00BFD7
:10452000FF2084F8450002F09DFF02F074FF94F92B
:10453000445010E0206908B9012000E0002048B98B
:1045400004F1100001F0B2FE08B101F0B3FF681EE3
:1045500045B200E001E0002DECDC00BFFF2084F854
:10456000440002F07FFF70BD70B5054602F053FFB6
:10457000A86BE96B884201D1012400E0002402F01D
:1045800071FF204670BD2DE9F04104460F461546E7
:104590004FF00008A66B206C48B9206800282CD189
:1045A000A06802F002F880460020A06025E07DB9F6
:1045B0003946226C606804F007FD216C606808448D
:1045C0006060D4E90101884217D32068606014E07C
:1045D0003946226CE06804F0F7FC216CE068411A6F
:1045E000E1602168E068884203D2216CA068411A2A
:1045F000E160022D01D106B1761E701CA063404619
:10460000BDE8F0812DE9FF4383B0064688461D468C
:104610004FF00009344654B900BF502080F3118890
:10462000BFF34F8FBFF36F8F00BF00BFFEE7B8F13E
:10463000000F01D1206C08B9012000E0002050B922
:1046400000BF502080F31188BFF34F8FBFF36F8FEF
:1046500000BF00BFFEE7022D02D1E06B012801D1AF
:10466000012000E0002050B900BF502080F31188E5
:10467000BFF34F8FBFF36F8F00BF00BFFEE701F0A6
:104680002BFF08B9059808B9012000E0002050B9B7
:1046900000BF502080F31188BFF34F8FBFF36F8F9F
:1046A00000BF00BFFEE700BF02F0B5FEA06BE16BEC
:1046B000884201D3022D28D12A4641462046FFF7E1
:1046C00062FF0746606A08B9012000E0002068B96F
:1046D00004F1240001F0EAFD88B14FF08050534905
:1046E0000860BFF34F8FBFF36F8F08E03FB14FF00B
:1046F00080504E490860BFF34F8FBFF36F8F02F0B9
:10470000B1FE012007B0BDE8F083059818B902F0AA
:10471000A9FE0020F6E7B9F1000F04D101A801F0CD
:1047200080FE4FF0010902F09DFE01F0CAF802F090
:1047300072FE94F94400401C10B9002084F8440033
:1047400094F94500401C10B9002084F8450002F09F
:1047500089FE05A901A801F06BFEF0B92046FFF71C
:1047600003FFA0B104F11000059901F035FD2046CA
:10477000FFF7BBFE00F0F7FF002895D14FF0805007
:104780002A490860BFF34F8FBFF36F8F8CE7204635
:10479000FFF7ABFE00F0E7FF86E72046FFF7A5FE38
:1047A00000F0E1FF0020ADE710B5044654B1002051
:1047B000A06020600021E16000231A4619462046CF
:1047C000FFF720FF10BD2DE9F04104460126002728
:1047D000224600210120FFF75BFE05462846FFF731
:1047E000E3FF2846BDE8F08170B505462C4654B974
:1047F00000BF502080F31188BFF34F8FBFF36F8F3E
:1048000000BF00BFFEE701F064FEA16888420FD13F
:10481000E068401EE060E06828B900231A461946A7
:104820002046FFF7EFFE012603E0000004ED00E064
:104830000026304670BD01464A6A22B10A6B1268F2
:10484000C2F1050000E00020704770B5054602F097
:10485000E2FDA86B08B9012400E0002402F002FE8A
:10486000204670BD2DE9F34182B005464FF00008A7
:104870002C46002654B900BF502080F31188BFF3A6
:104880004F8FBFF36F8F00BF00BFFEE7206C08B9EA
:10489000012000E0002050B900BF502080F31188B3
:1048A000BFF34F8FBFF36F8F00BF00BFFEE701F074
:1048B00013FE08B9039808B9012000E0002050B9A0
:1048C00000BF502080F31188BFF34F8FBFF36F8F6D
:1048D00000BF00BFFEE700BF02F09DFDA76BFFB168
:1048E000781EA063206810B901F03CFFA060206929
:1048F00008B9012000E0002060B904F1100001F0C7
:10490000D5FC38B14FF08050F8490860BFF34F8FA5
:10491000BFF36F8F02F0A6FD012004B0BDE8F08167
:10492000039898B90EB9012000E0002050B900BFEB
:10493000502080F31188BFF34F8FBFF36F8F00BFFC
:1049400000BFFEE702F08EFD0020E6E7B8F1000FA1
:1049500004D1684601F065FD4FF0010802F082FDC8
:1049600000F0AFFF02F057FD94F94400401C10B96D
:10497000002084F8440094F94500401C10B9002040
:1049800084F8450002F06EFD03A9684601F050FD71
:1049900040BB2046FFF759FFF0B1206838B902F05C
:1049A0003AFDA06801F0A4FD064602F05BFD04F1AB
:1049B0002400039901F010FC2046FFF796FD00F05B
:1049C000D2FE002888D14FF08050C8490860BFF35C
:1049D0004F8FBFF36F8F7FE72046FFF786FD00F014
:1049E000C2FE79E72046FFF780FD00F0BCFE2046BE
:1049F000FFF72BFF0028EED05EB102F00CFD204641
:104A0000FFF719FF07463946A06801F02CFE02F0B7
:104A100029FD002081E72DE9F04106460F46344686
:104A200054B900BF502080F31188BFF34F8FBFF3FC
:104A30006F8F00BF00BFFEE701F04BFDA168884209
:104A400004D1E068401CE060012508E039462046BA
:104A5000FFF708FF054615B1E068401CE0602846F6
:104A6000BDE8F08170B505460E460DB1012000E0AD
:104A7000002050B900BF502080F31188BFF34F8F42
:104A8000BFF36F8F00BF00BFFEE7AE4201D8012029
:104A900000E0002050B900BF502080F31188BFF320
:104AA0004F8FBFF36F8F00BF00BFFEE702220021D0
:104AB0002846FFF7EDFC044604B1A663204670BD0E
:104AC0002DE9F05F07468A4690461E463C4654B99B
:104AD00000BF502080F31188BFF34F8FBFF36F8F5B
:104AE00000BF00BFFEE7BAF1000F01D1206C08B98A
:104AF000012000E0002050B900BF502080F3118851
:104B0000BFF34F8FBFF36F8F00BF00BFFEE7022ED2
:104B100002D1E06B012801D1012000E0002050B952
:104B200000BF502080F31188BFF34F8FBFF36F8F0A
:104B300000BF00BFFEE702F0C9FC00BF5021EFF349
:104B4000118081F31188BFF34F8FBFF36F8F00BFC8
:104B50000546A06BE16B884201D3022E23D194F964
:104B600045B0324651462046FFF70DFD0BF10100DE
:104B700088B9606A08B9012000E0002080B904F11A
:104B8000240001F093FB58B1B8F1000F08D00120C8
:104B9000C8F8000004E00BF1010040B284F84500C1
:104BA0004FF0010901E04FF0000900BF85F31188C3
:104BB00000BF4846BDE8F09F2DE9F04706460F4686
:104BC000344654B900BF502080F31188BFF34F8F93
:104BD000BFF36F8F00BF00BFFEE7206C08B9012054
:104BE00000E0002050B900BF502080F31188BFF3CF
:104BF0004F8FBFF36F8F00BF00BFFEE7206808B97B
:104C0000A06808B9012000E0002050B900BF502082
:104C100080F31188BFF34F8FBFF36F8F00BF00BFCA
:104C2000FEE702F053FC00BF5021EFF3118081F347
:104C30001188BFF34F8FBFF36F8F00BF0546D4F8C5
:104C40003890E06B48451ED994F945A009F1010060
:104C5000A0630AF1010070B9606A08B9012000E0A0
:104C6000002068B904F1240001F020FB40B13FB1FD
:104C70000120386004E00AF1010040B284F84500E8
:104C80004FF0010801E04FF0000800BF85F31188E4
:104C900000BF4046BDE8F08770B504460D46206C65
:104CA00070B1216CE0680144E160D4E902108842EF
:104CB00001D32168E1602846226CE16804F084F9A0
:104CC00070BD2DE9F74183B005460E464FF0000850
:104CD0002C466CB900BF502080F31188BFF34F8F72
:104CE000BFF36F8F00BF00BFFEE7000004ED00E0E0
:104CF0000EB9206C08B9012000E0002050B900BFB7
:104D0000502080F31188BFF34F8FBFF36F8F00BF28
:104D100000BFFEE701F0E0FB08B9059808B90120E3
:104D200000E0002050B900BF502080F31188BFF38D
:104D30004F8FBFF36F8F00BF00BFFEE700BF02F0D1
:104D40006AFBA76BF7B131462046FFF7A5FF781E37
:104D5000A063206908B9012000E0002060B904F1D7
:104D6000100001F0A3FA38B14FF08050FA49086002
:104D7000BFF34F8FBFF36F8F02F074FB012006B0BB
:104D8000BDE8F081059818B902F06CFB0020F6E749
:104D9000B8F1000F04D101A801F043FB4FF0010866
:104DA00002F060FB00F08DFD02F035FB94F9440049
:104DB000401C10B9002084F8440094F94500401CC0
:104DC00010B9002084F8450002F04CFB05A901A8A9
:104DD00001F02EFBF0B92046FFF737FDA0B104F13A
:104DE0002400059901F0F8F92046FFF77EFB00F05A
:104DF000BAFC0028A3D14FF08050D7490860BFF318
:104E00004F8FBFF36F8F9AE72046FFF76EFB00F0DE
:104E1000AAFC94E72046FFF768FB00F0A4FC2046BC
:104E2000FFF713FD00288AD00020A8E72DE9F743FB
:104E300082B005460E464FF000082C4654B900BF1C
:104E4000502080F31188BFF34F8FBFF36F8F00BFE7
:104E500000BFFEE70EB9206C08B9012000E0002079
:104E600050B900BF502080F31188BFF34F8FBFF3BC
:104E70006F8F00BF00BFFEE701F02EFB08B904985A
:104E800008B9012000E0002050B900BF502080F395
:104E90001188BFF34F8FBFF36F8F00BF00BFFEE7D6
:104EA00000BF02F0B8FAD4F83890B9F1000F1ED064
:104EB000E76831462046FFF7EFFEE760606A08B911
:104EC000012000E0002060B904F1240001F0EEF9B7
:104ED00038B14FF08050A0490860BFF34F8FBFF347
:104EE0006F8F02F0BFFA012005B0BDE8F08304988F
:104EF00018B902F0B7FA0020F6E7B8F1000F04D1B4
:104F0000684601F08EFA4FF0010802F0ABFA00F0AB
:104F1000D8FC02F080FA94F94400401C10B900203B
:104F200084F8440094F94500401C10B9002084F82E
:104F3000450002F097FA04A9684601F079FAF0B941
:104F40002046FFF782FCA0B104F12400049901F08F
:104F500043F92046FFF7C9FA00F005FC0028A0D16C
:104F60004FF080507C490860BFF34F8FBFF36F8FC5
:104F700097E72046FFF7B9FA00F0F5FB91E72046E6
:104F8000FFF7B3FA00F0EFFB2046FFF75EFC0028C6
:104F900087D00020A8E72DE9F05F0646894617462E
:104FA000344654B900BF502080F31188BFF34F8FAF
:104FB000BFF36F8F00BF00BFFEE7B9F1000F01D153
:104FC000206C08B9012000E0002050B900BF50203B
:104FD00080F31188BFF34F8FBFF36F8F00BF00BF07
:104FE000FEE702F073FA00BF5021EFF3118081F366
:104FF0001188BFF34F8FBFF36F8F00BF0546D4F802
:1050000038A0BAF1000F22D094F944B049462046A6
:10501000FFF742FEAAF10100A0630BF1010070B995
:10502000206908B9012000E0002068B904F11000EF
:1050300001F03CF940B13FB10120386004E00BF1D0
:10504000010040B284F844004FF0010801E04FF045
:10505000000800BF85F3118800BF4046BDE8F09FFF
:105060002DE9F04706468846344654B900BF502023
:1050700080F31188BFF34F8FBFF36F8F00BF00BF66
:10508000FEE7B8F1000F01D1206C08B9012000E063
:10509000002050B900BF502080F31188BFF34F8F1C
:1050A000BFF36F8F00BF00BFFEE7206C08B1012087
:1050B00000E0002050B900BF502080F31188BFF3FA
:1050C0004F8FBFF36F8F00BF00BFFEE702F0FEF906
:1050D00000BF5021EFF3118081F31188BFF34F8F90
:1050E000BFF36F8F00BF0546A06B48B1D4F80C909A
:1050F00041462046FFF7D0FDC4F80C90012700E0A0
:10510000002700BF85F3118800BF3846BDE8F0874F
:1051100070B5044654B900BF502080F31188BFF326
:105120004F8FBFF36F8F00BF00BFFEE702F073F930
:10513000A56B02F097F9284670BD70B50446254668
:1051400065B900BF502080F31188BFF34F8FBFF3C4
:105150006F8F00BF00BFFEE704ED00E002F05BF9D7
:10516000D5E90E10461A02F07DF9304670BD10B533
:1051700001460A4652B900BF502383F31188BFF39A
:105180004F8FBFF36F8F00BF00BFFEE7906B10BD66
:10519000014600200EE0544A02EBC00252688A42E7
:1051A00007D10022504B43F8302003EBC0035A6074
:1051B00002E0401C0828EED300BF704770B50446DB
:1051C000254655B900BF502080F31188BFF34F8F9B
:1051D000BFF36F8F00BF00BFFEE72846FFF7D8FF81
:1051E000284602F0B0FA70BD0146886C70478164B1
:1051F0007047014691F84C00704710B501460A46C9
:1052000052B900BF502383F31188BFF34F8FBFF310
:105210006F8F00BF00BFFEE7936B0BB9012000E06A
:10522000002010BD10B501460A4652B900BF5023F8
:1052300083F31188BFF34F8FBFF36F8F00BF00BFA1
:10524000FEE7936BD46BA34201D1012000E0002064
:1052500010BD024600200BE0234B53F8303033B929
:10526000214B43F8301003EBC0035A6002E0401CAE
:105270000828F1D300BF70470246002000210AE051
:10528000194B03EBC1035B68934203D1164B53F8F0
:10529000310002E0491C0829F2D300BF70472DE914
:1052A000F04105460E4617462C4602F0B4F894F934
:1052B0004400401C10B9002084F8440094F94500D3
:1052C000401C10B9002084F8450002F0CBF8A06B18
:1052D00028B93A46314604F1240000F0C9FF2046BF
:1052E000FFF703F9BDE8F081A404002010B5002405
:1052F00007E004EB8401FB4A02EB8100FFF720F892
:10530000641C052CF5D3F848FFF71AF8F748FFF7A7
:1053100017F8F748FFF714F8F648FFF711F8F648C2
:10532000FFF70EF8F048F5490860F048F4490860C6
:1053300010BD10B5044602F06EF8F2480068401C3B
:10534000F0490860F048006840B9EF48046008463A
:10535000006801280DD1FFF7C9FF0AE0EB4800689B
:1053600038B9E9480068C06AE16A884201D8E6486D
:105370000460E7480068401CE5490860084600688A
:10538000206494F82C1001208840E2490968084301
:10539000E0490860E16A01EB8101D24A02EB810039
:1053A000211DFEF7DDFF02F05DF8D848006868B106
:1053B000D5480068C06AE16A884207D24FF0805041
:1053C000D5490860BFF34F8FBFF36F8F10BD2DE934
:1053D000F05F82460E4690469B460A9F0C9C56B94B
:1053E00000BF502080F31188BFF34F8FBFF36F8F42
:1053F00000BF00BFFEE74FEA8801A522206B03F043
:1054000028FEA8F10100216B01EB800929F00709B2
:1054100009F0070008B9012000E0002050B900BFE2
:10542000502080F31188BFF34F8FBFF36F8F00BF01
:1054300000BFFEE7002507E0715D04F1340041552F
:10544000705D00B902E06D1C0A2DF5D300BF00218C
:105450003D200155052F00D30427E762A7640020F3
:10546000E064201DFEF779FF04F11800FEF775FFD8
:105470002461C7F10500A06164620020206584F802
:1054800054005A465146484601F0E6FE20600B980B
:1054900008B10B980460BDE8F09F2DE9FF4F85B07F
:1054A000804689461746DDE912ABB80002F0B7F82E
:1054B000064656B1582002F0B2F804460CB12663F5
:1054C00004E0304602F03FF900E000247CB1002007
:1054D000CDE900ABCDE902403A4649464046089B3B
:1054E000FFF775FF2046FFF724FF012501E04FF08D
:1054F000FF35284609B0BDE8F08F80490968096882
:1055000009B9012100E0002121B14FF0FF31834AA8
:10551000116006E079490968C968C8687F4A41682E
:105520001160704710B50446206B02F00CF920465C
:1055300002F009F910BD70B5054601F06CFF15B910
:105540007148006800E028460446201DFEF72EFF43
:1055500078B9E06A00EB8000624951F8200040B958
:1055600094F82C10012088406A49096881436948F1
:105570000160A06A18B104F11800FEF717FF644833
:105580000068401C624908605F480068844209D195
:10559000211D5848FEF7E4FE61480068401C604940
:1055A000086009E057480068401E564908602046D8
:1055B000FFF7B8FFFFF7A1FF01F054FF5348006861
:1055C000E8B151480068844219D15648006808B9CA
:1055D000012000E0002050B900BF502080F3118866
:1055E000BFF34F8FBFF36F8F00BF00BFFEE74FF0D9
:1055F000805049490860BFF34F8FBFF36F8F70BD74
:105600002DE9F0414FF0000846480068002868D1B5
:1056100045480068451C4448056015BB374800688C
:10562000006808B9012000E0002050B900BF5020F8
:1056300080F31188BFF34F8FBFF36F8F00BF00BFA0
:10564000FEE72E4807682E4800682C4908602C4861
:10565000076036480068401C34490860FFF74DFF7A
:1056600000BF2E480068854263D300BF234800680E
:10567000006808B9012000E0002020B14FF0FF30A1
:105680002649086054E01D480068C068C468666820
:10569000B54202D2214806604AE0201DFEF786FE90
:1056A000A06A18B104F11800FEF780FE94F82C10DF
:1056B0000120884017490968084316490860E16AD3
:1056C00001EB8101074A02EB8100211DFEF748FE34
:1056D0000D49E06A0968C96A8842C7D34FF00108DA
:1056E000C4E733E0E4040020480500205C05002006
:1056F000700500208405002098050020B0000020DF
:10570000B4000020BC000020AC000020C800002035
:10571000D8000020C400002004ED00E0DC000020E0
:10572000B8000020E4000020C0000020D4000020C9
:1057300000BFFE480068C06A00EB8000FC4951F8D9
:105740002000012801D94FF0010804E0F948006861
:10575000401CF8490860F848006808B14FF001089B
:105760004046BDE8F08170B500240026F34800688B
:1057700050B900BF502080F31188BFF34F8FBFF3A3
:105780006F8F00BF00BFFEE701F045FEEB480068E9
:10579000401EEA4908600846006800284FD1E848E2
:1057A000006800284BD024E0E648C068C46804F1D3
:1057B0001800FEF7FBFD201DFEF7F8FD94F82C10F5
:1057C00001208840E04909680843DF490860E16A30
:1057D00001EB8101D64A02EB8100211DFEF7C0FDDD
:1057E000D249E06A0968C96A884202D30120D249D5
:1057F0000860D448006808B9012000E000200028B3
:10580000D2D00CB1FFF779FECA48056865B100BF78
:10581000FFF7F6FE10B10120C74908606D1E002D8C
:10582000F6D10020C3490860C348006838B101269A
:105830003007C6490860BFF34F8FBFF36F8F01F089
:1058400011FE304670BD2DE9F04105460E46C048B8
:105850000768B6480068001DFEF7A8FD50B9B348B8
:10586000006890F82C1001208840B74909688143EE
:10587000B5480160681C38B936B1AC480168091DEB
:10588000B448FEF76DFD1AE07C19A8480068446032
:10589000BC4207D2A5480168091DAF480068FEF761
:1058A0006BFD0CE0A1480168091DAC480068FEF7DB
:1058B00063FDAB480068844201D2A9480460BDE89A
:1058C000F0819E480068401C9C49086070472DE9A3
:1058D000F04704460F464FF0000954B900BF50206E
:1058E00080F31188BFF34F8FBFF36F8F00BF00BFEE
:1058F000FEE70FB1012000E0002050B900BF5020AA
:1059000080F31188BFF34F8FBFF36F8F00BF00BFCD
:10591000FEE78A48006808B9012000E0002050B97D
:1059200000BF502080F31188BFF34F8FBFF36F8FFC
:1059300000BF00BFFEE7FFF7C4FF85480668206888
:10594000C5192068B04207D92068A8420BD9B542D2
:1059500009D94FF0010906E02068A84201D8B542F4
:1059600001D94FF001092560B9F1000F03D0A81B40
:105970000021FFF768FFFFF7F6FE8046B8F1000F41
:1059800007D14FF0805071490860BFF34F8FBFF3CC
:105990006F8FBDE8F08770B504460025D4B1674825
:1059A000006808B9012000E0002050B900BF502075
:1059B00080F31188BFF34F8FBFF36F8F00BF00BF1D
:1059C000FEE7FFF77EFF00212046FFF73CFFFFF7D1
:1059D000CAFE05463DB94FF080505C490860BFF3F0
:1059E0004F8FBFF36F8F70BD2DE9F04707463E46DE
:1059F00056B900BF502080F31188BFF34F8FBFF31B
:105A00006F8F00BF00BFFEE748480068864201D1A3
:105A1000002426E001F0FFFC75695048D0F80080B2
:105A20004D48D0F8009001F01DFD454501D04D4591
:105A300001D1022415E0474885420BD1B06A38B93C
:105A400096F85400012801D102240AE0032408E05A
:105A5000022406E04348854200D00DB9042400E04A
:105A600001242046BDE8F08770B5044601F0D3FC60
:105A700014B92E48006800E020460646F56A01F099
:105A8000F1FC284670BD2DE9F041054601F01EFDF0
:105A900000BF5021EFF3118081F31188BFF34F8FC6
:105AA000BFF36F8F00BF044615B92048006800E0BF
:105AB00028460746FE6A00BF84F3118800BF3046BF
:105AC000BDE8F0812DE9F04780460D464FF0000912
:105AD000052D01D2012000E0002050B900BF502068
